:020000040000FA
:100000000C9453000C947B000C947B000C947B00AC
:100010000C947B000C947B000C9420100C947B00BF
:100020000C947B000C947B000C947B000C947B0064
:100030000C947B000C947B000C947B000C947B0054
:100040000C948B030C947B000C94FB030C94D50351
:100050000C947B000C947B000C947B000C947B0034
:100060000C947B000C947B0000000000250028000D
:100070002B0000000000240027002A0004040404D0
:100080000404040402020202020203030303030342
:10009000010204081020408001020408102001021F
:1000A00004081020401111241FBECFEFD8E0DEBF9E
:1000B000CDBF11E0A0E0B1E0E8E9F5E202C00590B3
:1000C0000D92A63AB107D9F722E0A6EAB1E001C045
:1000D0001D92AB3DB207E1F710E0C3E5D0E004C0EC
:1000E0002197FE010E94B412C235D107C9F70E94C0
:1000F00023100C94CA120C940000AF92BF92CF92BE
:10010000DF92EF92FF920F931F93CF93DF936C01D7
:100110007B018B01040F151FEB015E01AE18BF08B8
:10012000C017D10759F06991D601ED91FC9101906A
:10013000F081E02DC6010995892B79F7C501DF9182
:10014000CF911F910F91FF90EF90DF90CF90BF90D4
:10015000AF900895FC01538D448D252F30E0842FFE
:1001600090E0821B930B541710F0CF9608950197DF
:100170000895FC01918D828D981761F0A28DAE0FCC
:10018000BF2FB11D5D968C91928D9F5F9F73928F53
:1001900090E008958FEF9FEF0895FC01918D828D7F
:1001A000981731F0828DE80FF11D858D90E008954C
:1001B0008FEF9FEF0895FC01918D228D892F90E0A4
:1001C000805C9F4F821B91098F73992708958AE362
:1001D00092E00E94DB0021E0892B09F420E0822FCD
:1001E00008950E94E70081110C940000089580E0BA
:1001F00090E0892B11F00C94F1000895FC01A48D7E
:10020000A80FB92FB11DA35ABF4F2C91848D90E038
:1002100001968F739927848FA689B7892C93A0891B
:10022000B1898C91837080648C93938D848D9813A5
:1002300006C00288F389E02D80818F7D8083089538
:10024000EF92FF920F931F93CF93DF93EC0181E026
:10025000888F9B8D8C8D98131AC0E889F9898081CD
:1002600085FF15C09FB7F894EE89FF896083E88900
:10027000F98980818370806480839FBF81E090E0F2
:10028000DF91CF911F910F91FF90EF900895F62E7F
:100290000B8D10E00F5F1F4F0F731127E02E8C8D19
:1002A0008E110CC00FB607FCFACFE889F98980815E
:1002B00085FFF5CFCE010E94FE00F1CFEB8DEC0F54
:1002C000FD2FF11DE35AFF4FF0829FB7F8940B8F7B
:1002D000EA89FB8980818062CFCFCF93DF93EC01E5
:1002E000888D8823B9F0AA89BB89E889F9898C911E
:1002F00085FD03C0808186FD0DC00FB607FCF7CFDA
:100300008C9185FFF2CF808185FFEDCFCE010E94D9
:10031000FE00E9CFDF91CF910895FC01019000200C
:10032000E9F73197AF01481B590BBC018AE392E012
:100330000C947D008F929F92AF92BF920F931F9368
:10034000CF93DF93CDB7DEB7A1970FB6F894DEBF9A
:100350000FBECDBF19A2423008F44AE08E010F5DF6
:100360001F4F842E912CB12CA12CA50194010E9429
:100370009212E62FB901CA01EA30F4F4E05DD80127
:10038000EE938D01232B242B252B79F790E080E031
:10039000109719F0CD010E948D01A1960FB6F89427
:1003A000DEBF0FBECDBFDF91CF911F910F91BF90E8
:1003B000AF909F908F900895E95CE1CF009711F086
:1003C0000C948D0190E080E0089589E191E00C9417
:1003D0008D01BC0190E080E04AE00C949A01EDE9C7
:1003E000F0E02491E9E8F0E08491882399F090E02E
:1003F000880F991FFC01EE58FF4FA591B491FC01A5
:10040000E859FF4F859194918FB7F894EC91E22BC6
:10041000EC938FBF8CE191E00E94DE018FE090E0D1
:100420000E94D40A81E291E00E94DE018FE090E018
:100430000E94D40AEFCF8AEB9BED0E94D40AFBCF37
:10044000E0914A02F0914B0282E08083E091460203
:10045000F09147021082E0914802F09149028FEC3E
:10046000808310925202E0914E02F0914F0286E09A
:100470008083E0914C02F0914D0280818061808305
:10048000E0914C02F0914D02808188608083E09180
:100490004C02F0914D02808180688083E0914C0293
:1004A000F0914D0280818F7D808385E291E00E94F2
:1004B0008D010E94E50184E491E00E94DE010E942A
:1004C00032050E94E90181E591E00E94DE01609120
:1004D000390270E090E080E04AE00E949A010E94B8
:1004E000E5010E94E50180E691E00E94DE01809135
:1004F000A6019091A70149960E94DE0188E691E04D
:100500000E94DE0190E080E00E9445040E94E90123
:100510008091A6019091A7010E94E50180E691E0FB
:100520000E94DE018091AE019091AF01009721F40D
:100530008091A6019091A70149960E94DE0188E66C
:1005400091E00E94DE018091AE019091AF010E9486
:1005500045040E94E9010E94E50180E691E00E94C5
:10056000DE018091AC019091AD01009721F4809162
:10057000A6019091A70149960E94DE0188E691E0CC
:100580000E94DE018091AC019091AD010E94450472
:100590000E94E9010E94E50180E691E00E94DE01EF
:1005A0008091AA019091AB01009721F48091A6015E
:1005B0009091A70149960E94DE0188E691E00E9491
:1005C000DE018091AA019091AB010E9445040E9436
:1005D000E9010E94E5010E94E50188E391E00E94A3
:1005E000D40A63CF0F931F93CF93DF930FB6F89482
:1005F0000F92C091A601D091A7018E010E5F1F4FEF
:10060000C8010E948F058C899D89892B21F0CE011C
:100610000C960E948F05809137028F5F809337027E
:100620008091A6019091A701C817D907A1F5E09183
:10063000EF01F091F001FD83EC83848195819F832C
:100640008E83A481B58113961C930E931297158304
:1006500004838EEE91E09B878A878091EE018F5F05
:100660008093EE018091B3018F5F8093B3010F906F
:100670000FBE80913802882349F08091A6019091A5
:10068000A701C817D90711F40E94A306DF91CF91E3
:100690001F910F9108958091390281508093390202
:1006A0008F89988D0E94AF0CCE010E94AF0C0E94E2
:1006B0002D04DDCF0F931F930EEA11E020E040E8F8
:1006C00050E06BE771E08FEE91E00E94F30E10E0D6
:1006D00000E022E040E850E061E871E080E292E072
:1006E0000E94F30E0CEA11E021E040E450E068E8DB
:1006F00071E082EF92E00E94F30E0AEA11E021E03D
:1007000040E450E060E971E08BE192E00E94F30E7A
:100710001F910F9108951F920F920FB60F921124FF
:100720002F933F938F939F93AF93BF938091D70164
:100730009091D801A091D901B091DA013091D60100
:1007400023E0230F2D3758F50196A11DB11D2093ED
:10075000D6018093D7019093D801A093D901B0938B
:10076000DA018091D2019091D301A091D401B0918E
:10077000D5010196A11DB11D8093D2019093D301A3
:10078000A093D401B093D501BF91AF919F918F9168
:100790003F912F910F900FBE0F901F90189526E854
:1007A000230F0296A11DB11DD2CF1F920F920FB63B
:1007B0000F9211242F933F934F935F936F937F93E7
:1007C0008F939F93AF93BF93EF93FF938AE392E04E
:1007D0000E94FE00FF91EF91BF91AF919F918F9189
:1007E0007F916F915F914F913F912F910F900FBE2D
:1007F0000F901F9018951F920F920FB60F92112411
:100800002F938F939F93EF93FF93E0914A02F09180
:100810004B028081E0915002F091510282FD1BC099
:100820009081809153028F5F8F73209154028217C1
:1008300041F0E0915302F0E0E65CFD4F958F80932C
:100840005302FF91EF919F918F912F910F900FBEC7
:100850000F901F9018958081F4CFE091E301F09103
:10086000E4018081811107C08FEF9FEF9093CF014A
:100870008093CE010895E091E301F091E4010580B9
:10088000F681E02D80819181F1CF009721F4809154
:10089000A6019091A701DC015796ED91FC9180E0B3
:1008A00090E0DC012191253A09F008950196A11DFF
:1008B000B11DF8CFFC01DB010FB6F8940F92409107
:1008C000DE015091DF012D913C9111972F3F3207AE
:1008D00011F1818192816091E0017081761749F078
:1008E0004817590730F01D921C9281E00F900FBEFF
:1008F0000895481B590B42175307A8F7241B350BC3
:100900002D933C938091E00180838091DE01909152
:10091000DF019283818380E0E9CFCF93DF93DC0115
:100920001596ED91FC910680F781E02DA489B5899B
:100930008685978520893189EC013D832C83C08988
:10094000D1899B838A83CF010C9611962D913C917E
:1009500012972817390721F41296DC93CE9311973A
:10096000158A148A2C9121502C932091DB0121119E
:1009700057C0A285B3858481958126813781EC019A
:100980003D832C83C681D7819B838A83CF010296C6
:1009900011962D913C9112972817390721F4129640
:1009A000DC93CE931197138612862C9121502C93B1
:1009B000C689209136022C1710F4C093360229E024
:1009C0002C9FE0011124CE5EDD4F0980DA81C02D1D
:1009D000D583C4834C815D8157834683AC81BD81BF
:1009E00013969C938E9312979D838C83A689A29FC6
:1009F000D0011124AE5EBD4FB387A2878C918F5F6B
:100A00008C93A091A601B091A701968956968C91DE
:100A1000891730F581E08093B201DF91CF9108957D
:100A2000A091F801B091F901B787A68714962D918E
:100A30003C911597318B208B1496CD91DC911597B5
:100A40009B838A8315969C938E93149787EF91E0EE
:100A5000958B848B8091F7018F5F8093F701D1CFC5
:100A600080E0DBCF0FB6F8940F928091DE01909179
:100A7000DF010F900FBE08958091DB018F5F80939F
:100A8000DB0108950FB6F8940F92FC01928D0F9040
:100A90000FBE81E0911180E00895EF92FF920F93D5
:100AA0001F93CF93DF93EC010FB6F8940F921E8D36
:100AB0007C0181E1E80EF11C01E01116D4F08FEF0A
:100AC0008E8F0F900FBE0FB6F8940F921D8D7E0182
:100AD00088E0E80EF11C01E01116B4F08FEF8D8F65
:100AE0000F900FBEDF91CF911F910F91FF90EF906C
:100AF00008958989882319F3C7010E948D04811103
:100B00000093B2011150D9CF8885882339F3C701EA
:100B10000E948D0481110093B2011150DDCFCF935B
:100B2000DF93FC01A085B185828193812481358189
:100B3000EC013D832C83C481D5819B838A831196EC
:100B40008D919C9112978E179F0721F41296DC933A
:100B5000CE931197118610868C9181508C938C9135
:100B6000DF91CF9108950F931F93CF93DF938C0163
:100B7000FB0180819181D80113968F3F9807F1F492
:100B8000E801AF81B88512968D919C91139793835C
:100B90008283EC01FD83EC83B583A4831396FC93DD
:100BA000EE93129711870087F80180818F5F808311
:100BB000DF91CF911F910F910895D90112962D9138
:100BC0003C911397E9014881598184179507A8F74B
:100BD000DACFFC01738362839187808746175707BA
:100BE00090F0421B530B8485958548175907C8F42C
:100BF000BF016E5F7F4F8091B6019091B7010E9457
:100C0000B30580E008954217530718F4621773077D
:100C100040F4BF016E5F7F4F8091B8019091B901A0
:100C2000EECF81E00895FF920F931F93CF93DF9350
:100C3000EC01F62E0091DE011091DF018091A601FA
:100C40009091A70102960E948F05CF3FDC07E9F53E
:100C5000FF20D9F1E091E601F091E701A091A60112
:100C6000B091A7011596FC93EE931497A091A6015D
:100C7000B091A7018481958117969C938E931697C6
:100C80008091A6019091A701A481B5810296139647
:100C90009C938E9312978091A6019091A701029642
:100CA00095838483E091A601F091A70185EE91E000
:100CB000938782878091E5018F5F8093E501DF91C3
:100CC000CF911F910F91FF900895C00FD11FE09118
:100CD000A601F091A701D383C2836091A601709110
:100CE000A701C017D10768F48091E1019091E2015A
:100CF0006E5F7F4FDF91CF911F910F91FF900C940A
:100D0000B3058091E3019091E4016E5F7F4F0E94F3
:100D1000B3058091CE019091CF01C817D90778F61D
:100D2000D093CF01C093CE01CACFFC01039692832A
:100D300081832FEF3FEF34832383968385839087CE
:100D40008783108208950F920FB6F8940F921F9226
:100D500011242F923F924F925F926F927F928F92C7
:100D60009F92AF92BF92CF92DF92EF92FF920F933A
:100D70001F932F933F934F935F936F937F938F9323
:100D80009F93AF93BF93CF93DF93EF93FF93A09184
:100D9000A601B091A7010DB60D920EB60D928091ED
:100DA000DB01882321F081E08093B2015FC01092C3
:100DB000B201A091A601B091A701E091A601F09126
:100DC000A7012D913C918789908D82179307A8F0F8
:100DD0008091A6019091A7018091A6019091A70111
:100DE000259A2D9A2FEF87EA91E621508040904076
:100DF000E1F700C000001D9AF5CF2091360289E08E
:100E000001C02150422F50E0849FF001859FF00DDA
:100E10001124EE5EFD4F9081992399F3A181B28157
:100E200012960D90BC91A02DB283A183289FC00182
:100E300011248B5E9D4FA817B90729F412968D9146
:100E40009C919283818389E0849FF001859FF00DBE
:100E50001124EE5EFD4F0180F281E02D86819781A5
:100E60009093A7018093A60120933602A091A6013A
:100E7000B091A701CD91CDBFDD91DEBFFF91EF9184
:100E8000DF91CF91BF91AF919F918F917F916F91A2
:100E90005F914F913F912F911F910F91FF90EF9094
:100EA000DF90CF90BF90AF909F908F907F906F908A
:100EB0005F904F903F902F901F900F900FBE0F901C
:100EC00008958F929F92BF92CF92DF92EF92FF92FE
:100ED0000F931F93CF93DF930FB6F8940F928091E7
:100EE000DB0181508093DB018091DB01882379F065
:100EF00080E00F900FBEDF91CF911F910F91FF9077
:100F0000EF90DF90CF90BF909F908F900895809149
:100F10003902882369F3E090FC01F090FD01F0E0D4
:100F2000E0E039E041E08091F70181115EC0EF2BF4
:100F300011F00E942D04E090B001F090B101E11495
:100F4000F10409F47DC189E0D82ECC24C3940FEFBD
:100F50001FEF8091DB01811161C1C091DE01D09151
:100F6000DF014E018FEF881A980A9092DF0180927C
:100F7000DE0181149104B9F48091E3019091E401C0
:100F80002091E1013091E2013093E4012093E301EB
:100F90009093E2018093E1018091E0018F5F809363
:100FA000E0010E942D048091CE019091CF01B12CDF
:100FB0008816990608F026C1E091A601F091A701D4
:100FC000E689DE9EF0011124EE5EFD4F80818230C5
:100FD00010F0BB24B3948091B201811103C0BB20F7
:100FE00009F425C1C092B20122C1D7011696ED9134
:100FF000FC91A489B5896685778580899189EB0103
:101000009D838C8380899189EC017B836A83BF01F6
:10101000645F7F4F11960D911C9112970617170769
:1010200021F412969C938E931197158A148A8C91B1
:1010300081508C93A285B385848195816681778167
:10104000EC017D836C8366817781EB019B838A83CE
:10105000CF01029611960D911C911297081719074E
:1010600021F412967C936E931197138612862C911D
:1010700021502C93A689209136022A1710F4A093B0
:1010800036023A9FD0011124AE5EBD4F11960D90ED
:10109000BC91A02DB583A48314966D917C91159776
:1010A0007783668314966D917C911597EB019B83F2
:1010B0008A8315969C938E9314979689939FD0015B
:1010C0001124AE5EBD4FB387A2878C918F5F8C9346
:1010D000A091A601B091A70156968C91981708F49B
:1010E00022CF4093B2011FCFE091E301F091E401E0
:1010F0000580F681E02D0680F781E02D82819381C5
:101100008816990628F49093CF018093CE0154CF8E
:10111000C285D3858481958126813781DC0115962E
:101120003C932E93149726813781D90113969C9373
:101130008E931297CF01029649815A814817590719
:1011400011F43A832983138612862881215028833B
:10115000A489B5891097F9F026853785408951898A
:10116000E9015D834C8340895189EA013B832A83ED
:1011700011966D917C9112979F01245F3F4F6217EA
:10118000730721F412965C934E931197158A148A73
:101190002C9121502C93A689209136022A1710F405
:1011A000A0933602DA9ED0011124AE5EBD4F119697
:1011B0000D90BC91A02DB583A48314962D913C91E4
:1011C00015973783268314962D913C911597E90145
:1011D0009B838A8315969C938E93149796899D9DE5
:1011E000D0011124AE5EBD4FB387A2878C918F5F73
:1011F0008C93E091A601F091A7018689981710F0D1
:10120000BB24B394E091E301F091E401808181116A
:101210006BCF1093CF010093CE01CECE8091B00161
:101220009091B10101969093B1018093B001D1E00A
:10123000ED1AF10809F08DCE1092B1011092B001B3
:101240008091B201882309F453CE0E94A30681E065
:1012500050CEAF92BF92CF92DF92EF92FF920F9358
:101260001F93CF93DF9300D000D01F92CDB7DEB78E
:101270008C017B011D821C8280E0680198E0C90E10
:10128000D11C0FB6F8940F92D8015A962C915A9708
:101290005B969C915B97291708F0B0C05A96DC903A
:1012A0005A975C964C915C9741118DC08D919C91A1
:1012B000892B11F080E00AC0F801E480F580E11488
:1012C000F10439F580E0F80115821482D394D80135
:1012D0005A96DC925A9751969C91992321F0C80115
:1012E00041960E948D0481110E94A3060F900FBEAB
:1012F00081E00F900F900F900F900F90DF91CF91A2
:101300001F910F91FF90EF90DF90CF90BF90AF9023
:101310000895D70192968C919297815092968C93D2
:10132000929756962C91569791969C91291751F227
:101330008111C8CF5701B2E0AB0EB11CC5010E94AC
:101340008F05F70181A1868B482F50E024E030E023
:10135000241B350B3587248790913602981710F49B
:101360008093360289E0849FD001859FB00D1124BF
:10137000AE5EBD4F11960D90BC91A02DF701B583C7
:10138000A48314962D913C91159737832683149648
:10139000ED91FC911597B382A2821596BC92AE9204
:1013A0001497D7015696EC915697E89FF0011124B7
:1013B000EE5EFD4F1B96FC93EE931A9780818F5F34
:1013C000808381E080CF50E0B70112968D919C918F
:1013D0000E94BA12F801848D22813381820F932FEB
:1013E000911D93838283248135818217930708F4AA
:1013F00061CF80819181938382835CCF2C813D81F9
:10140000232B21F40F900FBE80E073CF811109C010
:101410008091E00189838091DE019091DF019B83BF
:101420008A830F900FBE0E943C050FB6F8940F926E
:10143000F801858D8F3F09F4158ED8015E968C9149
:101440005E978F3F11F45E961C920F900FBEBE0107
:101450006C5F7F4FCE0101960E945A0481112AC011
:101460000FB6F8940F92F801928D838D0F900FBEF6
:1014700098131AC0AC80BD806091A6017091A7013D
:10148000645F7F4FC6010E94B30561E0C5010E9401
:101490001306C8010E944D050E946107811102C018
:1014A0000E94A30681E0EDCEC8010E944D050E9476
:1014B0006107F8CFC8010E944D050E946107A4CFC3
:1014C000CF93DF9300D000D01F92CDB7DEB79C0141
:1014D0008091DC019091DD010097B9F019827B8346
:1014E0006A833D832C8320913802BE016F5F7F4F5A
:1014F00021112091DB010E9429090F900F900F907C
:101500000F900F90DF91CF91089580E0F6CFEF928A
:10151000FF920F931F93CF93DF93E091B801F09167
:10152000B9018081811113C08091B6019091B701FA
:101530009093B9018093B801F093B701E093B6019D
:10154000DF91CF911F910F91FF90EF90089505804B
:10155000F681E02D00811181C681D7817E0182E074
:10156000E80EF11CC7010E948F05E889F989CE01B8
:1015700009958A8982FFD1CF8C859D85800F911F27
:101580000817190760F49B838A83D987C887B70136
:101590008091B8019091B9010E94B305BECFB80106
:1015A000CE010E94600AB9CFCF93DF93EC010E9475
:1015B0003C0560E0CE010E9413060E946107811184
:1015C00002C00E94A306DF91CF9108950F920FB63B
:1015D000F8940F921F9211242F923F924F925F9294
:1015E0006F927F928F929F92AF92BF92CF92DF9233
:1015F000EF92FF920F931F932F933F934F935F931D
:101600006F937F938F939F93AF93BF93CF93DF930A
:10161000EF93FF93A091A601B091A7010DB60D9293
:101620000EB60D9213BE8091DB018111F9C080913D
:10163000DE019091DF0101969093DF018093DE013E
:10164000009781F52091E3013091E4014091E1019F
:101650005091E2015093E4014093E3013093E201A1
:101660002093E1012091E0012F5F2093E001E091C0
:10167000E301F091E4012081211107C02FEF3FEF3A
:101680003093CF012093CE010DC0E091E301F091A2
:10169000E4010580F681E02D208131813093CF0176
:1016A0002093CE012091CE013091CF018217930774
:1016B00010F420E0A1C020E039E0D32EE091E30156
:1016C000F091E4013081311107C08FEF9FEF9093CB
:1016D000CF018093CE0190C0E091E301F091E4014D
:1016E0000580F681E02D0680F781E02D428153814F
:1016F0008417950728F45093CF014093CE017CC006
:10170000A285B3854481558166817781EA017D8315
:101710006C8366817781EB015B834A83AF014E5F07
:101720005F4F11960D911C9112970417150721F424
:1017300012967C936E931197138612863C913150CA
:101740003C93A489B5891097F9F06685778500895F
:101750001189EB011D830C8300891189E8017B83CA
:101760006A831196ED90FC901297BF01645F7F4FE2
:10177000E616F70621F412961C930E931197158A1C
:10178000148A3C9131503C93A689309136023A1725
:1017900010F4A0933602DA9ED0011124AE5EBD4F44
:1017A00011960D90BC91A02DB583A48314966D91D4
:1017B0007C9115977783668314966D917C9115972C
:1017C000EB015B834A8315965C934E93149746898D
:1017D0004D9DD0011124AE5EBD4FB387A2873C91D1
:1017E0003F5F3C93E091A601F091A7013689431732
:1017F00008F464CF21E062CFE091A601F091A70147
:10180000E689D9E0ED9FF0011124EE5EFD4F808165
:10181000823008F021E08091B20181110EC00AC02F
:101820008091B0019091B10101969093B1018093A4
:10183000B0016AC0222309F467C08091DB018823CC
:1018400021F081E08093B2015FC01092B201A091BB
:10185000A601B091A701E091A601F091A7012D91F9
:101860003C918789908D82179307A8F08091A601FB
:101870009091A7018091A6019091A701259A2D9A98
:101880002FEF87EA91E6215080409040E1F700C0B9
:1018900000001D9AF5CF2091360289E001C0215049
:1018A000422F50E0849FF001859FF00D1124EE5EE1
:1018B000FD4F9081992399F3A181B28112960D90E9
:1018C000BC91A02DB283A183289FC00111248B5EFF
:1018D0009D4FA817B90729F412968D919C91928378
:1018E000818389E0849FF001859FF00D1124EE5ED5
:1018F000FD4F0180F281E02D868197819093A701B1
:101900008093A60120933602A091A601B091A70171
:10191000CD91CDBFDD91DEBFFF91EF91DF91CF91F2
:10192000BF91AF919F918F917F916F915F914F91F7
:101930003F912F911F910F91FF90EF90DF90CF90EB
:10194000BF90AF909F908F907F906F905F904F90DF
:101950003F902F901F900F900FBE0F900895CF9340
:10196000DF93009751F0EC010E943C05CE010E94EC
:101970000912DF91CF910C946107DF91CF91089507
:10198000CF93DF93CDB7DEB72A970FB6F894DEBFBB
:101990000FBECDBFE091B801F091B9011081F12CDB
:1019A000E12C112329F00580F681E02DE080F18003
:1019B0000E943C050E9432056C018091B401909117
:1019C000B501C816D90608F07BC00E94870AD092DC
:1019D000B501C092B4010E9461070091DC01109131
:1019E000DD011A86198680E06801B1E1CB0ED11CB9
:1019F0000FB6F8940F92F801F28CFF2009F441C160
:101A0000448D4423C1F050E086819781840F951F57
:101A100097838683248135818217930720F0808104
:101A2000918197838683D80116966D917C91CE0122
:101A300001960E94BA12FA94F801F28E80858823EA
:101A400039F0C80108960E948D0481110E94A306F6
:101A50000F900FBED980D7FCC0CF0C811D81F8013B
:101A600082859385892B21F0C80102960E948F05FB
:101A70000E9432057C018091B4019091B501E81675
:101A8000F90610F40E94870AF092B501E092B401C1
:101A9000F9E0FD1508F4A1CFED2DDD0CFF0BEA5A9E
:101AA000F24FD80152968C910C94B412040E040E8D
:101AB000040E3C0E270E360E040E040E3C0E270EAE
:101AC000D092B501C092B401112399F1CE14DF0474
:101AD000B8F10E946107E091B801F091B901058069
:101AE000F681E02D06811781C80102960E948F05BC
:101AF000D80152968C91529782FF17C01C966D9117
:101B00007C916E0D7F1D9701A601C8010E94E90519
:101B1000882321F0B701C8010E94600AD8015096BD
:101B2000ED91FC91C801099558CF8E7FF801828B09
:101B3000F5CFE091B601F091B701808161E08111AC
:101B400060E00091DC011091DD010FB6F8940F9276
:101B5000F801858D8F3F09F4158ED8015E968C9122
:101B60005E978F3F11F45E961C920F900FBEF801A6
:101B7000828D81113FC00288F389E02DA091A601DA
:101B8000B091A7011F96FC93EE931E97A091A6011A
:101B9000B091A7018481958151969C938E93509723
:101BA0008091A6019091A701A481B5810C9613960E
:101BB0009C938E9312978091A6019091A7010C9609
:101BC00095838483E091A601F091A701C801419615
:101BD000958B848BD80151968C9151978F5F51963C
:101BE0008C93C7018C199D09662311F08FEF9FEF2D
:101BF0000E941306C8010E944D050E9461078111D1
:101C0000ECCE0E94A306E9CE8160F801828BCA80E7
:101C1000DB80648575856C0D7D1D9601A701C8016B
:101C20000E94E905882309F4D8CED8015096ED9199
:101C3000FC91C8010995F801828982FFCECE6485A6
:101C400075856C0D7D1DC8010E94600AC6CE81603D
:101C5000F801828B6A817B81758764876E0D7F1D99
:101C60009701A701C8010E94E905B7CE81FD04C014
:101C7000C8010E94AF0CB1CE8E7FD80152968C93D2
:101C8000ACCE29853A85232B19F40F900FBE82CE56
:101C9000811109C08091E0018E838091DE019091D5
:101CA000DF0198878F830F900FBE0E943C050FB60F
:101CB000F8940F92D8015D968C915D978F3F11F447
:101CC0005D961C92F801868D8F3F09F4168E0F9059
:101CD0000FBEBE01675F7F4FCE0106960E945A0479
:101CE000811125C0C8010E9442058823D1F0E984F2
:101CF000FA846091A6017091A701645F7F4FC601CD
:101D00000E94B30561E0C7010E941306C8010E944A
:101D10004D050E946107811102C00E94A30681E067
:101D200067CEC8010E944D050E946107F8CFC80127
:101D30000E944D050E946107C8010E944205882348
:101D400071F328CE00E010E08091B30181110CC046
:101D500080911202823010F00E94A3060115110535
:101D600099F30E94F100F0CF0FB6F8940F92E09132
:101D7000F301F091F401C681D781CE0102960E9451
:101D80008F05809139028150809339028091B3018F
:101D900081508093B3010F900FBE8F89988D0E9460
:101DA000AF0CCE010E94AF0CCFCFCF93DF93EC01ED
:101DB0000E943C05CE010E946D11EC010E9461075A
:101DC000209769F4259A2D9A2FEF80E792E0215011
:101DD00080409040E1F700C000001D9AF5CFCE0191
:101DE000DF91CF9108957F928F929F92AF92BF9291
:101DF000CF92DF92EF92FF920F931F93CF93DF93D7
:101E0000982EA92E762E872E7A01B22ECA010E9414
:101E1000D50E6C01892B09F4F2C088E290E00E9493
:101E2000D50EEC01892B09F4E7C0D88ECF8AA70123
:101E300065EA70E0C6010E94C31281E0E81AF10869
:101E4000EF89F88DEE0DFF1D672D782DCE01499697
:101E50009B01285F3F4FDB014D91BD01DC014D939C
:101E6000CD01AB0141505109DA014C91442319F0E5
:101E70006217730781F718A2BE8AB9A21AA21B863D
:101E80001A861D8A1C8AD987C88784E090E08B193E
:101E900091099D878C87DB8BCA8B84E09E012D5D29
:101EA0003F4FD9011D928A95E9F71FA29082DF0169
:101EB0001197AC9211971C92119780E88C9311970F
:101EC0001C9257971C9211971C92B397F983E88341
:101ED0000115110519F0F801D183C0830FB6F894EC
:101EE0000F92809139028F5F809339028091A60111
:101EF0009091A701892B09F091C0D093A701C093BD
:101F0000A60180913902813081F582E192E00E9440
:101F100095068BE192E00E94950684E292E00E9491
:101F200095068DE292E00E94950689E092E00E947B
:101F3000950680E092E00E94950687EF91E00E946E
:101F400095068EEE91E00E94950685EE91E00E9446
:101F5000950689E092E09093E4018093E30180E0AC
:101F600092E09093E2018093E101809137028F5FCC
:101F700080933702AE89809136028A1710F4A093BD
:101F8000360229E02A9FD0011124AE5EBD4F119682
:101F90000D90BC91A02DBD83AC8314968D919C9126
:101FA00015979F838E831496ED91FC911597CE0122
:101FB00002969383828315969C938E931497EE8951
:101FC000E29FF0011124EE5EFD4FFB87EA878081DE
:101FD0008F5F80830F900FBE80913802882351F06D
:101FE000E091A601F091A70196898E89981710F4C7
:101FF0000E94A30681E004C0C6010E94AF0C8FEFCF
:10200000DF91CF911F910F91FF90EF90DF90CF90D4
:10201000BF90AF909F908F907F90089580913802ED
:102020008111A3CFE091A601F091A70196898E8935
:10203000891708F49ACFD093A701C093A60195CF32
:102040000E94E60A1895789484B5826084BD84B5B0
:10205000816084BD85B5826085BD85B5816085BDA3
:1020600080916E00816080936E001092810080915B
:1020700081008260809381008091810081608093E3
:102080008100809180008160809380008091B10008
:1020900084608093B1008091B00081608093B00033
:1020A00080917A00846080937A0080917A008260C7
:1020B00080937A0080917A00816080937A00809189
:1020C0007A00806880937A001092C1002091050107
:1020D000309106018FEF98E0821B930B90930201E1
:1020E000809301010E945A0300ED11E020E040ECD2
:1020F00050E068E971E082EA9EE00E94F30E8130D0
:1021000009F0B3C00FB6F8940F928091DC01909162
:10211000DD01892B09F04FC083EC91E00E94950608
:102120008AEB91E00E94950683EC91E09093B901CF
:102130008093B8018AEB91E09093B7018093B60148
:1021400081E590E00E94D50EEC01009781F14F9659
:10215000998388838AE08B8F85E08C8F0FB6F89403
:102160000F92888199812B8D4C8DBC01249F600D2D
:10217000711D11247D836C831A8E9B838A83215069
:10218000330B429FB001439F700D1124860F971FA0
:102190009F838E838FEF8D8F8E8FCE0108960E9446
:1021A0009506CE0141960E9495060F900FBED093E2
:1021B000DD01C093DC010F900FBE8091DC01909196
:1021C000DD01892B09F451C00CEC11E023E045E559
:1021D00050E06DE971E080EC9CE00E94F30E8130EC
:1021E00009F043C0F8942FEF3FEF3093CF012093D5
:1021F000CE01809338021092DF011092DE01A89583
:1022000088E190EC0FB6F894A895809360000FBE1B
:1022100090936000A091A601B091A701CD91CDBF90
:10222000DD91DEBFFF91EF91DF91CF91BF91AF9133
:102230009F918F917F916F915F914F913F912F91DE
:102240001F910F91FF90EF90DF90CF90BF90AF90D4
:102250009F908F907F906F905F904F903F902F90C6
:102260001F900F900FBE0F900895809100010E9463
:102270005A03C0E0D0E02097F1F30E94F100FBCFB9
:10228000EAE3F2E01382128288EE93E0A0E0B0E08D
:1022900084839583A683B7838BE091E091838083C9
:1022A00085EC90E09587848784EC90E0978786871B
:1022B00080EC90E0918B808B81EC90E0938B828B13
:1022C00082EC90E0958B848B86EC90E0978B868BEC
:1022D000118E128E138E148E08950F931F93CF9329
:1022E000DF938230910510F482E090E0E091D90212
:1022F000F091DA0230E020E0B0E0A0E0309799F40D
:102300002115310509F44AC0281B390B2430310549
:10231000D8F58A819B816115710589F1FB01938351
:102320008283FE0111C040815181028113814817CF
:102330005907E0F04817590799F4109761F0129681
:102340000C93129713961C933296CF01DF91CF9185
:102350001F910F9108950093D9021093DA02F4CFE0
:102360002115310551F04217530738F0A901DB015F
:102370009A01BD01DF01F801C1CFEF01F9CF9093C0
:10238000DA028093D902CDCFFE01E20FF31F8193D1
:1023900091932250310939832883D7CF2091D702D6
:1023A0003091D802232B41F4209103013091040194
:1023B0003093D8022093D70220910101309102017D
:1023C0002115310541F42DB73EB7409105015091DB
:1023D0000601241B350BE091D702F091D802E217D9
:1023E000F307A0F42E1B3F0B2817390778F0AC0138
:1023F0004E5F5F4F2417350748F04E0F5F1F509315
:10240000D8024093D702819391939FCFF0E0E0E010
:102410009CCFCF93DF930097E9F0FC0132971382B2
:102420001282A091D902B091DA02ED0130E020E0F1
:102430001097A1F420813181820F931F2091D70240
:102440003091D8022817390709F061C0F093D802FB
:10245000E093D702DF91CF910895EA01CE17DF070D
:10246000E8F54A815B819E0141155105B1F7E9010B
:10247000FB83EA8349915991C40FD51FEC17FD07DF
:1024800061F4808191810296840F951FE9019983FF
:102490008883828193819B838A83F0E0E0E01296B7
:1024A0008D919C9113970097B9F52D913C911197BF
:1024B000CD010296820F931F2091D7023091D8024E
:1024C0002817390739F6309751F51092DA02109231
:1024D000D902B093D802A093D702BCCFD383C283D2
:1024E00040815181840F951FC817D90761F44E5F51
:1024F0005F4F88819981480F591F518340838A819A
:102500009B81938382832115310509F0B0CFF0932D
:10251000DA02E093D9029ECFFD01DC01C0CF138225
:102520001282D7CFA1E21A2EAA1BBB1BFD010DC040
:10253000AA1FBB1FEE1FFF1FA217B307E407F50773
:1025400020F0A21BB30BE40BF50B661F771F881F4F
:10255000991F1A9469F760957095809590959B01E5
:10256000AC01BD01CF010895EE0FFF1F0590F4915E
:10257000E02D0994FB01DC0102C001900D92415055
:102580005040D8F70895DC0101C06D934150504090
:10259000E0F70895F894FFCF030000DB028000000D
:1025A00000000020017D00AA006D01DB00B900CD14
:1025B000000D0A0048494748004C4F57003D3D3D3B
:1025C0003D3D3D3D3D205461736B732073746174D8
:1025D0007573203D3D3D3D3D3D3D3D005469636B80
:1025E00020636F756E743A20002C205461736B2049
:1025F000636F756E743A20002D205441534B2000B8
:102600002C20486967682057617465726D61726B30
:102610003A2000426C696E6B0053657269616C0010
:1026200044656C6574656400426C6F636B6564003F
:0E26300049444C4500546D72205376630000FF
:107E0000112484B714BE81FFF0D085E080938100F7
:107E100082E08093C00088E18093C10086E0809377
:107E2000C20080E18093C4008EE0C9D0259A86E02C
:107E300020E33CEF91E0309385002093840096BBD3
:107E4000B09BFECF1D9AA8958150A9F7CC24DD24C4
:107E500088248394B5E0AB2EA1E19A2EF3E0BF2EE7
:107E6000A2D0813461F49FD0082FAFD0023811F036
:107E7000013811F484E001C083E08DD089C08234E0
:107E800011F484E103C0853419F485E0A6D080C0E4
:107E9000853579F488D0E82EFF2485D0082F10E0AE
:107EA000102F00270E291F29000F111F8ED06801E7
:107EB0006FC0863521F484E090D080E0DECF843638
:107EC00009F040C070D06FD0082F6DD080E0C81688
:107ED00080E7D80618F4F601B7BEE895C0E0D1E017
:107EE00062D089930C17E1F7F0E0CF16F0E7DF06D8
:107EF00018F0F601B7BEE89568D007B600FCFDCFD4
:107F0000A601A0E0B1E02C9130E011968C91119780
:107F100090E0982F8827822B932B1296FA010C0160
:107F200087BEE89511244E5F5F4FF1E0A038BF0790
:107F300051F7F601A7BEE89507B600FCFDCF97BE46
:107F4000E89526C08437B1F42ED02DD0F82E2BD052
:107F50003CD0F601EF2C8F010F5F1F4F84911BD097
:107F6000EA94F801C1F70894C11CD11CFA94CF0C13
:107F7000D11C0EC0853739F428D08EE10CD085E9AC
:107F80000AD08FE07ACF813511F488E018D01DD067
:107F900080E101D065CF982F8091C00085FFFCCF94
:107FA0009093C60008958091C00087FFFCCF809118
:107FB000C00084FD01C0A8958091C6000895E0E648
:107FC000F0E098E1908380830895EDDF803219F02E
:107FD00088E0F5DFFFCF84E1DECF1F93182FE3DFCA
:107FE0001150E9F7F2DF1F91089580E0E8DFEE27F6
:047FF000FF270994CA
:027FFE00040479
:00000001FF
