:100000000C9462000C948A000C948A000C948A0070
:100010000C948A000C948A000C948A000C948A0038
:100020000C948A000C948A000C948A000C94F602BA
:100030000C948A000C948A000C948A000C948A0018
:100040000C9454020C948A000C94C4020C949E02EA
:100050000C948A000C948A000C948A000C948A00F8
:100060000C948A000C948A000000000024002700F1
:100070002A0000000000250028002B0000000000DE
:1000800023002600290004040404040404040202DA
:100090000202020203030303030301020408102007
:1000A0004080010204081020010204081020000012
:1000B0000008000201000003040700000000000027
:1000C00000007A0411241FBECFEFD8E0DEBFCDBF01
:1000D00011E0A0E0B1E0EAE1F2E102C005900D928A
:1000E000AA32B107D9F721E0AAE2B1E001C01D921E
:1000F000A23EB207E1F710E0C2E6D0E004C02197CB
:10010000FE010E943A06C136D107C9F70E94A90331
:100110000C940B090C940000AF92BF92CF92DF9227
:10012000EF92FF920F931F93CF93DF936C017B01AC
:100130008B01040F151FEB015E01AE18BF08C0173D
:10014000D10759F06991D601ED91FC910190F081B0
:10015000E02DC6010995892B79F7C501DF91CF9173
:100160001F910F91FF90EF90DF90CF90BF90AF90D5
:100170000895FC01538D448D252F30E0842F90E0AD
:10018000821B930B541710F0CF9608950197089592
:10019000FC01918D828D981761F0A28DAE0FBF2F5B
:1001A000B11D5D968C91928D9F5F9F73928F90E0B1
:1001B00008958FEF9FEF089582E391E00E94C800B9
:1001C0000895FC01918D828D981731F0828DE80F92
:1001D000F11D858D90E008958FEF9FEF0895FC014C
:1001E000918D228D892F90E0805C9F4F821B910919
:1001F0008F739927089582E391E00E94EF0021E038
:10020000892B09F420E0822F089580E090E0892B6B
:1002100029F00E94FB0081110C9400000895FC015C
:10022000A48DA80FB92FB11DA35ABF4F2C91848D57
:1002300090E001968F739927848FA689B7892C93B4
:10024000A089B1898C91837080648C93938D848D07
:10025000981306C00288F389E02D80818F7D80830A
:100260000895EF92FF920F931F93CF93DF93EC01CA
:1002700081E0888F9B8D8C8D98131AC0E889F9894D
:10028000808185FF15C09FB7F894EE89FF89608350
:10029000E889F98980818370806480839FBF81E0D1
:1002A00090E0DF91CF911F910F91FF90EF90089513
:1002B000F62E0B8D10E00F5F1F4F0F731127E02EEE
:1002C0008C8D8E110CC00FB607FCFACFE889F98926
:1002D000808185FFF5CFCE010E940F01F1CFEB8D1C
:1002E000EC0FFD2FF11DE35AFF4FF0829FB7F894FA
:1002F0000B8FEA89FB8980818062CFCFCF93DF9318
:10030000EC01888D8823B9F0AA89BB89E889F9892D
:100310008C9185FD03C0808186FD0DC00FB607FC62
:10032000F7CF8C9185FFF2CF808185FFEDCFCE0195
:100330000E940F01E9CFDF91CF910895833081F0C2
:1003400028F4813099F08230A9F008958730A9F01F
:100350008830C9F08430B1F4809180008F7D03C073
:10036000809180008F7780938000089584B58F7787
:1003700084BD089584B58F7DFBCF8091B0008F77C9
:100380008093B00008958091B0008F7DF9CFCF9316
:10039000DF93282F30E0F901E255FF4F8491F901F6
:1003A000E656FF4FD491F901EA57FF4FC491CC2391
:1003B000A1F081110E949E01EC2FF0E0EE0FFF1FD3
:1003C000E458FF4FA591B491EC91ED2381E090E0CA
:1003D00009F480E0DF91CF91089580E090E0FACFBA
:1003E0001F93CF93DF93282F30E0F901E255FF4FA1
:1003F0008491F901E656FF4FD491F901EA57FF4F76
:10040000C491CC23A9F0162F81110E949E01EC2FDC
:10041000F0E0EE0FFF1FEE58FF4FA591B4918FB79C
:10042000F894EC91111108C0D095DE23DC938FBFB6
:10043000DF91CF911F910895DE2BF8CFCF93DF93FB
:1004400090E0FC01E656FF4F24918A579F4FFC0134
:1004500084918823D1F090E0880F991FFC01E8591E
:10046000FF4FA591B491FC01EE58FF4FC591D49177
:1004700061110EC09FB7F8948C91E22FE0958E2306
:100480008C932881E223E8839FBFDF91CF91089569
:100490008FB7F894EC91E22BEC938FBFF6CF682FD7
:1004A00082E391E00C9431011F920F920FB60F92EC
:1004B00011242F933F938F939F93AF93BF9380917A
:1004C000D4019091D501A091D601B091D70130917E
:1004D000D30123E0230F2D3758F50196A11DB11D3F
:1004E0002093D3018093D4019093D501A093D6019A
:1004F000B093D7018091CF019091D001A091D1010B
:10050000B091D2010196A11DB11D8093CF019093AE
:10051000D001A093D101B093D201BF91AF919F912F
:100520008F913F912F910F900FBE0F901F901895B4
:1005300026E8230F0296A11DB11DD2CF1F920F9264
:100540000FB60F9211242F933F934F935F936F93A6
:100550007F938F939F93AF93BF93EF93FF9382E328
:1005600091E00E940F01FF91EF91BF91AF919F9198
:100570008F917F916F915F914F913F912F910F904C
:100580000FBE0F901F9018951F920F920FB60F92EB
:1005900011242F938F939F93EF93FF93E091420148
:1005A000F09143018081E0914801F091490182FD81
:1005B0001BC0908180914B018F5F8F7320914C0104
:1005C000821741F0E0914B01F0E0EE5CFE4F958F19
:1005D00080934B01FF91EF919F918F912F910F90FD
:1005E0000FBE0F901F9018958081F4CF1F920F922D
:1005F0000FB60F9211242F933F934F935F936F93F6
:100600007F938F939F93AF93BF93EF93FF938091CB
:100610003001909131010197909331018093300125
:100620001816190684F08DE00E94C70161E0892B3D
:1006300009F460E08CE00E94F0018CE291E090937C
:1006400031018093300180912E0190912F0101970B
:1006500090932F0180932E0118161906BCF08CE0A0
:100660000E94C701892B51F084E00E94C70161E01C
:10067000892B09F060E084E00E94F0018091000184
:100680009091010190932F0180932E0180912C0174
:1006900090912D01019790932D0180932C011816B4
:1006A000190624F18AE00E94C701892B51F4809138
:1006B0000001909101018C599F4F9093010180930B
:1006C000000189E00E94C701892B51F4809100014B
:1006D000909101018456910990930101809300014A
:1006E00084E690E090932D0180932C0180912A0163
:1006F00090912B01019790932B0180932A0118165A
:1007000019069CF08CE00E94C701892BF9F08AE160
:1007100091E09F938F930E9440060F900F9088EE78
:1007200093E090932B0180932A01FF91EF91BF9169
:10073000AF919F918F917F916F915F914F913F9179
:100740002F910F900FBE0F901F90189581E291E0AE
:10075000E0CF789484B5826084BD84B5816084BD27
:1007600085B5826085BD85B5816085BD80916E004F
:10077000816080936E001092810080918100826080
:1007800080938100809181008160809381008091BD
:1007900080008160809380008091B10084608093AC
:1007A000B1008091B00081608093B00080917A00A8
:1007B000846080937A0080917A00826080937A00CE
:1007C00080917A00816080937A0080917A008068BD
:1007D00080937A001092C100E0914201F0914301B0
:1007E00082E08083E0913E01F0913F011082E09130
:1007F0004001F09141018FEC808310924A01E09119
:100800004601F091470186E08083E0914401F09138
:100810004501808180618083E0914401F091450130
:10082000808188608083E0914401F091450180815E
:1008300080688083E0914401F091450180818F7D43
:10084000808388EC90E09093310180933001109286
:100850002F0110922E018CE291E090932D01809354
:100860002C0184EF91E090932B0180932A01109248
:1008700080001092810080918100886080938100C7
:10088000809181008260809381008FEC97E090934B
:100890008900809388001092850010928400B19A9C
:1008A00080916F00826080936F0060E08DE00E9415
:1008B0001E0260E08AE00E941E0260E089E00E9461
:1008C0001E0261E08CE00E941E0261E084E00E9452
:1008D0001E026CED70E08FE492E00E94A704C0E07D
:1008E000D0E02097F1F30E94FB008823D1F30E940F
:1008F0000000F7CFE2E3F1E01382128288EE93E08A
:10090000A0E0B0E084839583A683B7838CE091E078
:100910009183808385EC90E09587848784EC90E0D8
:100920009787868780EC90E0918B808B81EC90E0BC
:10093000938B828B82EC90E0958B848B86EC90E09D
:10094000978B868B118E128E138E148E08950F93B3
:100950001F93CF93DF93009759F46115710541F40C
:10096000F0E0E0E0CF01DF91CF911F910F9108956A
:100970008B01EC016EE070E081E090E00E94F204F7
:10098000FC01892B69F380E883830115110571F05F
:100990001387028781E883838091D8019091D901E0
:1009A000892B21F4F093D901E093D8012097D1F25B
:1009B000D187C0878381826083838091DA0190919F
:1009C000DB01892B79F6F093DB01E093DA0180916A
:1009D000DC019091DD01892B29F6F093DD01E09394
:1009E000DC01C0CF0F931F93CF93DF93869F8001CD
:1009F000879F100D969F100D1124C8010E940E05AF
:100A0000EC01009729F0A80170E060E00E94330635
:100A1000CE01DF91CF911F910F9108950F931F93F6
:100A2000CF93DF938230910510F482E090E0E09163
:100A3000E001F091E10130E020E0B0E0A0E030978B
:100A400099F42115310509F44AC0281B390B2430CB
:100A50003105D8F58A819B816115710589F1FB010A
:100A600093838283FE0111C04081518102811381F1
:100A700048175907E0F04817590799F4109761F0A3
:100A800012960C93129713961C933296CF01DF9116
:100A9000CF911F910F9108950093E0011093E10110
:100AA000F4CF2115310551F04217530738F0A90151
:100AB000DB019A01BD01DF01F801C1CFEF01F9CFE0
:100AC0009093E1018093E001CDCFFE01E20FF31F8F
:100AD000819391932250310939832883D7CF209174
:100AE000DE013091DF01232B41F42091040130918C
:100AF00005013093DF012093DE0120910201309146
:100B000003012115310541F42DB73EB7409106018F
:100B100050910701241B350BE091DE01F091DF01BC
:100B2000E217F307A0F42E1B3F0B2817390778F0C4
:100B3000AC014E5F5F4F2417350748F04E0F5F1F23
:100B40005093DF014093DE01819391939FCFF0E0BA
:100B5000E0E09CCFCF93DF930097E9F0FC01329760
:100B600013821282A091E001B091E101ED0130E029
:100B700020E01097A1F420813181820F931F2091F2
:100B8000DE013091DF012817390709F061C0F093C9
:100B9000DF01E093DE01DF91CF910895EA01CE17E6
:100BA000DF07E8F54A815B819E0141155105B1F7E8
:100BB000E901FB83EA8349915991C40FD51FEC17D2
:100BC000FD0761F4808191810296840F951FE901F0
:100BD00099838883828193819B838A83F0E0E0E01C
:100BE00012968D919C9113970097B9F52D913C9198
:100BF0001197CD010296820F931F2091DE01309153
:100C0000DF012817390739F6309751F51092E101C5
:100C10001092E001B093DF01A093DE01BCCFD3833B
:100C2000C28340815181840F951FC817D90761F491
:100C30004E5F5F4F88819981480F591F51834083D0
:100C40008A819B81938382832115310509F0B0CF7E
:100C5000F093E101E093E0019ECFFD01DC01C0CF04
:100C600013821282D7CFDC0101C06D9341505040F6
:100C7000E0F70895EE0FFF1F0590F491E02D099421
:100C8000B0E0A0E0E6E4F6E00C94E408AE014B5FCF
:100C90005F4FFA0161917191AF018091DA019091FA
:100CA000DB010E945606E2E00C940009ABE0B0E0E4
:100CB000ECE5F6E00C94D4087C013B018A01FC01D0
:100CC00017821682838181FFC8C1CE0101965C0123
:100CD000F7019381F30193FD859193FF81913F018A
:100CE000882309F453C1853239F493FD859193FF2C
:100CF00081913F01853229F4B70190E00E944608B6
:100D0000E7CF912C212C312CFFE1F31538F08B32F9
:100D100011F190F4803209F1833229F137FC3CC0A3
:100D200020ED280F2A3050F536FE20C08AE0989E2C
:100D3000200D1124922E06C08D3291F0803371F770
:100D4000689430F8F30193FD859193FF81913F0101
:100D50008111DACF21C0689431F8689432F8F2CF6B
:100D6000689433F8EFCF689434F8ECCFEAE02E9E25
:100D7000200D1124222E689435F8E4CF8E3229F408
:100D800036FC04C1689436F8DDCF8C3619F46894CB
:100D900037F8D8CF8836B1F2982F9F7D955493308D
:100DA000E0F08336A1F18337C1F1833509F063C0E8
:100DB0002801F2E04F0E511CF801C080D180692D4E
:100DC00070E036FC02C06FEF7FEFC6010E94300872
:100DD0004C01689437F882010AC00C5F1F4FFFE393
:100DE000F98388248394912C6501E89437F833FEC5
:100DF0002DC0522C8114910471F5552009F468CF4F
:100E0000B70180E290E00E9446085A94F6CFF801BC
:100E1000808189830E5F1F4FE4CF2801F2E04F0EDF
:100E2000511CF801C080D180692D70E036FC02C0F1
:100E30006FEF7FEFC6010E943B084C018201D5CFC6
:100E4000B70180E290E00E9446082A942814190411
:100E500009F0B0F7CECFF60137FC859137FE8191CE
:100E60006F01B70190E00E94460851105A94F1E0DA
:100E70008F1A9108BFCF843619F0893609F077C0F0
:100E8000F80137FE6BC060817181828193810C5FB4
:100E90001F4FF32DFF763F2E97FF09C09095809549
:100EA000709561957F4F8F4F9F4F689437F82AE078
:100EB00030E0A5010E947608C82ECA188C2C432C5D
:100EC00036FE0CC0E89440F8C91440F434FE05C066
:100ED00032FC03C0F32DFE7E4F2E892C44FE95C0BC
:100EE000FE01EC0DF11D8081803309F087C0242DB7
:100EF000297E422E842D8870582E43FC95C040FEDA
:100F00008FC09C2C821418F42C0C922C981844FE40
:100F100091C0B70180E390E00E94460842FE09C0FC
:100F200088E790E041FE02C088E590E0B7010E94AA
:100F30004608C91408F48AC0CA94D12C9FEFC91A74
:100F4000D90ACA0CDB1CF60182916F01B70190E04F
:100F50000E944608AC14BD04B1F74FCF6081718187
:100F6000072E000C880B990B0E5F1F4F92CFD32CCE
:100F7000E894D4F82AE030E0853739F1232D297F31
:100F8000D22E8F3601F148F48835A9F0F701868119
:100F900097812B96E2E10C94F008803749F088376E
:100FA000A9F7D4FE02C06894D2F820E130E00DC069
:100FB0006894D4F8F6CF34FE03C0822F8660D82E12
:100FC00020E132E002C028E030E0F801D7FE0FC097
:100FD00060817181828193810C5F1F4FA5010E9406
:100FE0007608C82ECA183D2CE89437F867CF608180
:100FF000718190E080E00E5F1F4FF0CF42FC02C095
:10100000839478CF8394839475CF842D867809F464
:1010100071CFF6CFB70180E290E00E94460883943A
:101020008214C0F3512C73CF522C5818821408F438
:101030006ECFF8CF842D867809F47BCF8BE241FE0A
:1010400080E247FC8DE2B70190E071CFB70180E309
:1010500090E00E9446089A946CCF8FEF9FEF99CF53
:10106000FC010590615070400110D8F78095909573
:101070008E0F9F1F0895FC01615070400190011078
:10108000D8F7809590958E0F9F1F08950F931F930B
:10109000CF93DF93182F092FEB018B8181FD09C0BE
:1010A0001FEF0FEF812F902FDF91CF911F910F91A5
:1010B000089582FF14C02E813F818C819D81281765
:1010C00039073CF4E881F981CF010196998388833F
:1010D00010838E819F8101969F838E83E3CFE88565
:1010E000F985812F0995892BA1F3DACFFA01AA2777
:1010F000283051F1203181F1E8946F936E7F6E5F5B
:101100007F4F8F4F9F4FAF4FB1E03ED0B4E03CD008
:10111000670F781F891F9A1FA11D680F791F8A1FEB
:10112000911DA11D6A0F711D811D911DA11D20D052
:1011300009F468943F912AE0269F11243019305D0C
:101140003193DEF6CF010895462F4770405D4193FD
:10115000B3E00FD0C9F7F6CF462F4F70405D4A334A
:1011600018F0495D31FD4052419302D0A9F7EACF12
:10117000B4E0A6959795879577956795BA95C9F741
:1011800000976105710508959B01AC010A2E069434
:101190005795479537952795BA95C9F7620F731FED
:1011A000841F951FA01D08952F923F924F925F922A
:1011B0006F927F928F929F92AF92BF92CF92DF9267
:1011C000EF92FF920F931F93CF93DF93CDB7DEB7CC
:1011D000CA1BDB0B0FB6F894DEBF0FBECDBF099460
:1011E0002A88398848885F846E847D848C849B84B7
:1011F000AA84B984C884DF80EE80FD800C811B81C5
:10120000AA81B981CE0FD11D0FB6F894DEBF0FBEF3
:0A121000CDBFED010895F894FFCF63
:10121A00F4010000E20180000000000031018C00AE
:10122A00B9007E01EF00C800E1004C65644F6E0D05
:0A123A00004C65644F66660D00006D
:00000001FF
