:020000040000FA
:100000000C9464000C948C000C948C000C948C0068
:100010000C948C000C948C000C948C000C948C0030
:100020000C948C000C948C000C948C000C948C0020
:100030000C948C000C948C000C948C000C948C0010
:100040000C9455050C948C000C9423050C94FD0421
:100050000C948C000C948C000C948C000C948C00F0
:100060000C948C000C948C006364696E6F707375D3
:1000700078585B000000000800020100000304073C
:100080000000000000000000000000002500280023
:100090002B0000000000240027002A0004040404B0
:1000A0000404040402020202020203030303030322
:1000B00001020408102040800102040810200102FF
:1000C000040810209F05300911241FBECFEFD8E08F
:1000D000DEBFCDBF11E0A0E0B1E0E0E9FFE102C08A
:1000E00005900D92A839B107D9F722E0A8E9B1E04F
:1000F00001C01D92AD36B207E1F710E0C3E6D0E0D3
:1001000004C02197FE010E94A30BC236D107C9F794
:100110000E9401060C94BB0F0C94000090E0FC01BF
:10012000E055FF4F249184569F4FFC018491882312
:1001300099F090E0880F991FFC01EE56FF4FA591B2
:10014000B491FC01E857FF4F859194918FB7F894D3
:10015000EC91E22BEC938FBF0895AF92BF92CF92B8
:10016000DF92EF92FF920F931F93CF93DF936C0177
:100170007B018B01040F151FEB015E01AE18BF0858
:10018000C017D10759F06991D601ED91FC9101900A
:10019000F081E02DC6010995892B79F7C501DF9122
:1001A000CF911F910F91FF90EF90DF90CF90BF9074
:1001B000AF900895FC0144815581608171818BE489
:1001C00092E00C94AD00FC01538D448D252F30E05E
:1001D000842F90E0821B930B541710F0CF96089554
:1001E00001970895FC01918D828D981761F0A28D81
:1001F000AE0FBF2FB11D5D968C91928D9F5F9F7347
:10020000928F90E008958FEF9FEF089581EA91E03B
:100210000E94F2000895FC01918D828D981731F0B3
:10022000828DE80FF11D858D90E008958FEF9FEF8F
:100230000895FC01918D228D892F90E0805C9F4F65
:10024000821B91098F739927089581EA91E00E949A
:10025000190121E0892B09F420E0822F089580E024
:1002600090E0892B29F00E94250181110C94000057
:100270000895FC01A48DA80FB92FB11DA35ABF4F3B
:100280002C91848D90E001968F739927848FA68995
:10029000B7892C93A089B1898C91837080648C93E9
:1002A000938D848D981306C00288F389E02D808198
:1002B0008F7D80830895EF92FF920F931F93CF93CA
:1002C000DF93EC0181E0888F9B8D8C8D98131AC091
:1002D000E889F989808185FF15C09FB7F894EE8978
:1002E000FF896083E889F9898081837080648083D5
:1002F0009FBF81E090E0DF91CF911F910F91FF9020
:10030000EF900895F62E0B8D10E00F5F1F4F0F73C7
:100310001127E02E8C8D8E110CC00FB607FCFACF82
:10032000E889F989808185FFF5CFCE010E943901E6
:10033000F1CFEB8DEC0FFD2FF11DE35AFF4FF08253
:100340009FB7F8940B8FEA89FB8980818062CFCFB9
:10035000CF93DF93EC01888D8823B9F0AA89BB89FC
:10036000E889F9898C9185FD03C0808186FD0DC0E7
:100370000FB607FCF7CF8C9185FFF2CF808185FF08
:10038000EDCFCE010E943901E9CFDF91CF910895E1
:1003900090E0FC01EC58FF4F2491FC01E055FF4F29
:1003A0003491FC01E456FF4FE491EE23C9F022237F
:1003B00039F0233001F1A8F4213019F1223029F16C
:1003C000F0E0EE0FFF1FE857FF4FA591B4918FB7F4
:1003D000F894EC91611126C030953E233C938FBF79
:1003E00008952730A9F02830C9F0243049F78091CA
:1003F00080008F7D03C0809180008F778093800084
:10040000DFCF84B58F7784BDDBCF84B58F7DFBCF05
:100410008091B0008F778093B000D2CF8091B000F0
:100420008F7DF9CF3E2BDACF3FB7F89480919D01B5
:1004300090919E01A0919F01B091A00126B5A89B2B
:1004400005C02F3F19F00196A11DB11D3FBFBA2F66
:10045000A92F982F8827BC01CD01620F711D811D26
:10046000911D42E0660F771F881F991F4A95D1F7AB
:1004700008958F929F92AF92BF92CF92DF92EF92A8
:10048000FF924B015C010E9414026B017C010E94EF
:1004900014026C197D098E099F09683E734081051D
:1004A0009105A8F321E0821A9108A108B10888EE0D
:1004B000C80E83E0D81EE11CF11C81149104A10434
:1004C000B10429F7FF90EF90DF90CF90BF90AF90ED
:1004D0009F908F900895089590E080E00895682F90
:1004E00081EA91E00C945B01CF93DF93EC0160E033
:1004F0008E810E94C80161E08E810E94C80160E087
:100500008E810E94C8018BE891E00197F1F7DF919D
:10051000CF910895CF92DF92EF92FF920F931F93A6
:10052000CF93DF936C017C0187E0E80EF11CD0E0F3
:10053000C0E0062F10E0B8010C2E02C0759567953B
:100540000A94E2F76170F70181917F010E94C8016E
:100550002196C430D10579F7C601DF91CF911F9163
:100560000F91FF90EF90DF90CF900C947402CF9298
:10057000DF92EF92FF920F931F93CF93DF93EC01E3
:10058000F62E642F8C810E94C8018D818F3F19F057
:1005900060E00E94C8010F2D10E08F8584FF25C008
:1005A0006E0187E0C80ED11CF12CE12CB8010E2C95
:1005B00002C0759567950A94E2F76170F601819122
:1005C0006F010E94C801FFEFEF1AFF0A88E0E816EA
:1005D000F10461F7CE01DF91CF911F910F91FF9050
:1005E000EF90DF90CF900C947402B80184E0759581
:1005F00067958A95E1F7CE010E948A026F2DCE01A0
:10060000DF91CF911F910F91FF90EF90DF90CF90EE
:100610000C948A0240E0682F8BE492E00C94B702BD
:1006200081E00E940A038BE39FE10197F1F70895AF
:10063000CF93DF93823029F490915A02986090937F
:100640005A0280935E0210925F0280E480936002FF
:1006500080E18093610280E58093620280914F0285
:100660000E948E00809150028F3F11F00E948E00F8
:10067000809151020E948E00CBE4D2E09E012B5467
:10068000324080915A0284FD0AC084E090E02196B5
:10069000281739073CF48E810E948E00EFCF88E046
:1006A00090E0F5CF8BE39DE00197F1F760E080915A
:1006B0004F020E94C80160E0809151020E94C8016F
:1006C000809150028F3F19F060E00E94C801809134
:1006D0005A0284FD34C063E08BE492E00E948A02F7
:1006E000CBE4D6E4CE010197F1F763E08BE492E02E
:1006F0000E948A022197F1F763E08BE492E00E9466
:100700008A0283E592E00197F1F762E08BE492E0E0
:100710000E948A0280915A0280620E940A0384E049
:1007200080935B028CE00E940A030E94100382E027
:1007300080935C0286E0DF91CF910C940A03806283
:100740000E940A038BE496E40197F1F780915A0224
:1007500080620E940A0383E592E00197F1F780919D
:100760005A0280620E940A03D5CF90915E028917D7
:1007700010F08FEF890FE82FF0E0E55BFD4F8489E3
:1007800080680C940A0341E00E94B70281E090E087
:100790000895FC0101900020E9F73197AF01481B53
:1007A000590BBC018BE492E00C94AD00CF93DF9326
:1007B000EC01A881B981EB01E881F9811097F1F092
:1007C0003097B1F4EC018C819D81892BC9F08C911B
:1007D00090E00BC0DB0114968D919C91892B81F0E8
:1007E000808190E0919581959109DF91CF91089555
:1007F000BF01CD01DF91CF910C946F0C309751F771
:1008000090E080E0F2CFFC0180819181009711F0AF
:100810000C94980A08950F931F93CF93DF93EC01E4
:1008200088819981009759F02A813B8126173707E3
:1008300030F081E0DF91CF911F910F9108958B01EE
:100840006F5F7F4F0E94A90B009759F099838883AF
:100850001B830A832C813D81232B59F7FC011082D5
:10086000E8CF80E0E7CFEF92FF920F931F93CF93F3
:10087000DF93EC01FB01E080F180E114F10411F160
:100880000481158101151105A9F08C819D81080F46
:10089000191FB801CE010E940B04882399F028810A
:1008A00039818C819D81B701820F931F0E94780C42
:1008B0001D830C83CE01DF91CF911F910F91FF908B
:1008C000EF90089588819981009711F00E94980A0D
:1008D000198218821D821C821B821A82EBCFEF9232
:1008E000FF920F931F93CF93DF93EC017B018A015B
:1008F000BA010E940B0428813981811114C021158D
:10090000310519F0C9010E94980A198218821D82C6
:100910001C821B821A82CE01DF91CF911F910F9111
:10092000FF90EF9008951D830C83B701C9010E94C9
:10093000780CF1CFEF92FF920F931F93CF93DF9339
:10094000CDB7DEB762970FB6F894DEBF0FBECDBF4E
:100950008C01CB01F8011182108213821282158260
:1009600014824AE09E012F5F3F4F7901B9010E9436
:100970005B09F70101900020E9F73197AF014E19AB
:100980005F09B701C8010E946F0462960FB6F89420
:10099000DEBF0FBECDBFDF91CF911F910F91FF90B2
:1009A000EF900895FB01DC0111961C921E921396A4
:1009B0001C921E92129715961C921E9214978617DF
:1009C000970749F0608171816115710521F04481BB
:1009D00055810C946F040895FC01118210821382DA
:1009E000128215821482FB0101900020E9F73197F1
:1009F000AF01461B570B0C946F041F920F920FB65A
:100A00000F9211242F933F934F935F936F937F9394
:100A10008F939F93AF93BF93EF93FF9381EA91E0FE
:100A20000E943901FF91EF91BF91AF919F918F91FA
:100A30007F916F915F914F913F912F910F900FBEDA
:100A40000F901F9018951F920F920FB60F921124BE
:100A50002F938F939F93EF93FF93E091B101F091C8
:100A6000B2018081E091B701F091B80182FD1BC015
:100A700090818091BA018F5F8F732091BB018217A3
:100A800041F0E091BA01F0E0EF55FE4F958F809371
:100A9000BA01FF91EF919F918F912F910F900FBE0F
:100AA0000F901F9018958081F4CF1F920F920FB670
:100AB0000F9211242F933F938F939F93AF93BF93E4
:100AC0008091990190919A01A0919B01B0919C0114
:100AD0003091980123E0230F2D3758F50196A11D81
:100AE000B11D209398018093990190939A01A0934E
:100AF0009B01B0939C0180919D0190919E01A091DA
:100B00009F01B091A0010196A11DB11D80939D018F
:100B100090939E01A0939F01B093A001BF91AF91CC
:100B20009F918F913F912F910F900FBE0F901F902B
:100B3000189526E8230F0296A11DB11DD2CFE1EA38
:100B4000F1E01382128288EE93E0A0E0B0E08483AB
:100B50009583A683B7838AE091E09183808385ECB7
:100B600090E09587848784EC90E09787868780EC77
:100B700090E0918B808B81EC90E0938B828B82EC68
:100B800090E0958B848B86EC90E0978B868B118E12
:100B9000128E138E148EEBE4F2E0138212828CE13B
:100BA00091E09183808383E184838FEF858382E169
:100BB000868381E1878380E180878FE081878EE073
:100BC00082871386148615861686178681E00E9412
:100BD000180361E671E085E492E00E94EC04E0E431
:100BE000F2E0108282E381838DE082838CE0838354
:100BF0008BE08483EEE3F2E011828AE080830C9440
:100C00008E00CF93DF93CDB7DEB76F970FB6F89412
:100C1000DEBF0FBECDBF789484B5826084BD84B53D
:100C2000816084BD85B5826085BD85B5816085BDE7
:100C300080916E00816080936E001092810080919F
:100C40008100826080938100809181008160809327
:100C50008100809180008160809380008091B1004C
:100C600084608093B1008091B00081608093B00077
:100C700080917A00846080937A0080917A0082600B
:100C800080937A0080917A00816080937A008091CD
:100C90007A00806880937A001092C100E091B101DF
:100CA000F091B20182E08083E091AD01F091AE015C
:100CB0001082E091AF01F091B0018FEC808310922F
:100CC000B901E091B501F091B60186E08083E09131
:100CD000B301F091B401808180618083E091B30120
:100CE000F091B401808188608083E091B301F0913C
:100CF000B401808180688083E091B301F091B401F8
:100D000080818F7D808382E00E9418030E941003FF
:100D100080E00E94B50384E291E00E94C90381E073
:100D20000E94B50380E391E00E94C90380914202D2
:100D30000E948E00809143020E948E0080914402A6
:100D40000E948E0068EE73E080E090E00E9439021D
:100D50000E94100366E071E08FE692E00E94950920
:100D60003E018FE1680E711C4EE3E42E41E0F42E4B
:100D700084E6482ECC24CA94D12C5524539422E0E6
:100D8000322E30E0832E30E0932E81EA91E00E94F3
:100D90001901181619060CF0C5C07F926F92FF92C8
:100DA000EF920E94860C8F8D0F900F900F900F90F6
:100DB0008D3009F0ADC10E9410036AE671E0CE01EA
:100DC0000D960E94EC04BE01635F7F4F85E492E0C4
:100DD0000E94D60311E0892B49F16EE471E0CE0147
:100DE00007960E94EC04BE01695F7F4F85E492E0A4
:100DF0000E94D60311E0892BA9F061E471E0CE01D5
:100E000001960E94EC04BE016F5F7F4F85E492E083
:100E10000E94D60311E0892B09F010E0CE01019663
:100E20000E940304CE0107960E940304CE010D9692
:100E30000E940304112309F4CEC065E472E0CE01E0
:100E400049960E94D204109141020E9410038D8D98
:100E50009E8D892B09F45AC0149DC0011124B6013E
:100E60000E947B0B5B01098D1A8D6EE471E0C80155
:100E70000E946F0C892B09F067C05092400266E413
:100E800071E0CE0101960E94EC04CE0101960E9411
:100E9000DA00CE0101960E94030481E00E94B503AE
:100EA00067E571E0CE0143960E94EC04B501CE01E6
:100EB0000D960E949A046AE571E0CE0101960E94A7
:100EC000EC04BE016F5F7F4FCE0107960E94D204F3
:100ED000BE01635F7F4FCE0107960E943304BE01BF
:100EE0006D5E7F4F0E9433040E94DA00CE010796A8
:100EF0000E940304CE0101960E940304CE010D96C8
:100F00000E940304CE0143960E940304CE01499639
:100F10000E94030450E040E061E671E085E492E065
:100F20000E946F04A09041020A2D10E0B09044028C
:100F30008B2D0E948E000115110509F013C160E090
:100F40008B2D0E94C8013BC16AE671E0C8010E9476
:100F50006F0C892B49F53092400267E571E0CE01B4
:100F60000D960E94EC0462E671E0CE0101960E94AB
:100F7000EC04BE016F5F7F4FCE0107960E94D20442
:100F8000BE01635F7F4FCE0107960E9433040E942B
:100F9000DA00CE0107960E940304CE0101960E945A
:100FA0000304CE010D9677CF61E471E0C8010E9481
:100FB0006F0C892B09F0AACF1092400262E771E012
:100FC000CE0101960E94EC04CE0101960E94DA0047
:100FD000CE01019699CF6FE771E0CE0107960E948E
:100FE000EC04BE01695F7F4F85E492E00E94D60366
:100FF00011E0892BA9F062E871E0CE0101960E9410
:10100000EC04BE016F5F7F4F85E492E00E94D6033F
:1010100011E0892B09F010E0CE0101960E94030433
:10102000CE0107960E940304112351F165E472E09A
:10103000CE0107960E94D2040E9410036FE771E070
:10104000CE0101960E94EC04BE016F5F7F4FCE017E
:1010500007960E94D6038C01CE0101960E940304DC
:10106000012B49F010923F0286E891E00E94C903EB
:10107000CE0107964DCF50923F028FE891E0F6CF18
:10108000809145029091460210E0009719F00E946D
:101090003409162F0E9410031093410267E571E096
:1010A000CE0143960E94EC04149DC0011124B601A8
:1010B0000E947B0BCE010D960E949A046AE571E0B6
:1010C000CE0101960E94EC04BE016F5F7F4FCE01FE
:1010D00007960E94D204BE01635F7F4FCE01079640
:1010E0000E943304BE016D5E7F4F0E9433040E9454
:1010F000DA00CE0107960E940304CE0101960E94F9
:101100000304CE010D960E940304CE01439600CF46
:10111000082E000C990B0E947F0C8F8D89831A82F8
:101120000091490210914A020F5F1F4FB80185E4F8
:1011300092E00E940B04882309F4F4CE209145022A
:10114000309146028091490290914A02BE016F5F40
:101150007F4F820F931F0E94780C10934A020093D6
:101160004902E0CE0F3F110511F461E0E9CEEB2D0D
:10117000F0E0EC58FF4FE491E33009F44FC048F43D
:10118000E130C9F0E23009F444C0003811056CF7D1
:10119000D6CEE73009F44CC0E83009F451C0E43051
:1011A000A1F78091800080628093800010938B0073
:1011B00000938A0004C084B5806884BDA7BC909168
:1011C000400280914202913009F042C060E00E94EA
:1011D000C80161E0809143020E94C80180913E02F3
:1011E00090913F0260E0911161E00E94C80162E3CA
:1011F00070E080E090E00E9439028114910409F4CB
:10120000C4CD0E942501882309F4B2CD0E940000BC
:10121000AFCD84B5806284BDA8BCD1CF8091800061
:101220008068809380001093890000938800C7CF66
:101230008091B00080688093B000A092B300BFCFCF
:101240008091B00080628093B000A092B400B7CFCC
:1012500061E0923009F060E00E94C80160E0BACF1E
:1012600085E492E00C9403041F93FC0199278827DE
:10127000BC01E89411911032E9F3193010F01E30DE
:10128000C8F31B3251F01D3249F4689406C00E9425
:101290006609610F711D811D911D119110531A3046
:1012A000B0F33EF490958095709561957F4F8F4F88
:1012B0009F4F1F910895BB274A3031F4992322F4A0
:1012C000BDE2909581959F4F0C947C09592F482F32
:1012D000372F262F660F771F881F991F660F771FDE
:1012E000881F991F620F731F841F951F660F771F3A
:1012F000881F991F0895BB27FB015527AA27880F30
:10130000991FAA1FA41710F0A41B83955051B9F779
:10131000A05DAA3308F0A95DA193009779F7B111F8
:10132000B1931192CB010C94310B0F931F93CF9378
:10133000DF93009759F46115710541F4F0E0E0E0A6
:10134000CF01DF91CF911F910F9108958B01EC0197
:101350006EE070E081E090E00E94E009FC01892BE2
:1013600069F380E883830115110571F01387028703
:1013700081E883838091630290916402892B21F438
:10138000F0936402E09363022097D1F2D187C08783
:101390008381826083838091650290916602892BAC
:1013A00079F6F0936602E09365028091670290916E
:1013B0006802892B29F6F0936802E0936702C0CF98
:1013C0000F931F93CF93DF93869F8001879F100D0C
:1013D000969F100D1124C8010E94FC09EC01009792
:1013E00029F0A80170E060E00E942A0BCE01DF9195
:1013F000CF911F910F9108950F931F93CF93DF9378
:101400008230910510F482E090E0E0916B02F0915F
:101410006C0230E020E0B0E0A0E0309799F42115B4
:10142000310509F44AC0281B390B24303105D8F5A1
:101430008A819B816115710589F1FB019383828308
:10144000FE0111C040815181028113814817590763
:10145000E0F04817590799F4109761F012960C9331
:10146000129713961C933296CF01DF91CF911F9163
:101470000F91089500936B0210936C02F4CF211525
:10148000310551F04217530738F0A901DB019A01E9
:10149000BD01DF01F801C1CFEF01F9CF90936C02DC
:1014A00080936B02CDCFFE01E20FF31F81939193E6
:1014B0002250310939832883D7CF20916902309196
:1014C0006A02232B41F420910201309103013093F1
:1014D0006A022093690220910001309101012115D7
:1014E000310541F42DB73EB74091040150910501FB
:1014F000241B350BE0916902F0916A02E217F307B1
:10150000A0F42E1B3F0B2817390778F0AC014E5F73
:101510005F4F2417350748F04E0F5F1F50936A0244
:1015200040936902819391939FCFF0E0E0E09CCFDC
:10153000CF93DF930097E9F0FC0132971382128278
:10154000A0916B02B0916C02ED0130E020E01097A9
:10155000A1F420813181820F931F20916902309183
:101560006A022817390709F061C0F0936A02E09314
:101570006902DF91CF910895EA01CE17DF07E8F500
:101580004A815B819E0141155105B1F7E901FB8359
:10159000EA8349915991C40FD51FEC17FD0761F4F7
:1015A000808191810296840F951FE9019983888338
:1015B000828193819B838A83F0E0E0E012968D9193
:1015C0009C9113970097B9F52D913C911197CD01FE
:1015D0000296820F931F2091690230916A022817A8
:1015E000390739F6309751F510926C0210926B0260
:1015F000B0936A02A0936902BCCFD383C2834081B7
:101600005181840F951FC817D90761F44E5F5F4F52
:1016100088819981480F591F518340838A819B811A
:10162000938382832115310509F0B0CFF0936C02CA
:10163000E0936B029ECFFD01DC01C0CF13821282CA
:10164000D7CF91110C94410B803219F089508550FD
:10165000C8F70895DC0101C06D9341505040E0F798
:101660000895DC01FC01672F71917723E1F7329730
:1016700004C07C916D9370836291AE17BF07C8F36D
:1016800008959927882708952F923F924F925F924D
:101690006F927F928F929F92AF92BF92CF92DF9282
:1016A000EF92FF920F931F93CF93DF93CDB7DEB7E7
:1016B000CA1BDB0B0FB6F894DEBF0FBECDBF09947B
:1016C0002A88398848885F846E847D848C849B84D2
:1016D000AA84B984C884DF80EE80FD800C811B81E0
:1016E000AA81B981CE0FD11D0FB6F894DEBF0FBE0F
:1016F000CDBFED01089597FB072E16F4009407D097
:1017000077FD09D00E948F0B07FC05D03EF4909521
:1017100081959F4F0895709561957F4F0895AA1BFD
:10172000BB1B51E107C0AA1FBB1FA617B70710F0CC
:10173000A61BB70B881F991F5A95A9F780959095FE
:10174000BC01CD010895EE0FFF1F0590F491E02D2F
:101750000994B0E0A0E0EFEAFBE00C94460B8C01AA
:10176000009751F4CB010E94FC098C01C801CDB750
:10177000DEB7E0E10C94620BFC01E60FF71F9C0161
:1017800022503109E217F30708F49DC0D901CD9129
:10179000DC911197C617D70798F0C530D10530F303
:1017A000CE0104978617970708F3C61BD70B22971D
:1017B000C193D1936D937C93CF010E94980AD6CFA9
:1017C0005B01AC1ABD0A4C018C0E9D1EA0916B02F0
:1017D000B0916C02512C412CF12CE12C109731F579
:1017E0008091690290916A028815990509F05CC0A0
:1017F0004616570608F058C08091000190910101EB
:10180000009741F48DB79EB74091040150910501B6
:10181000841B950BE817F90708F055C0F0936A028E
:10182000E0936902F90171836083A0CF8D919C914F
:10183000119712966C90129713967C901397A81597
:10184000B90559F56C0142E0C40ED11CCA14DB0481
:1018500020F1AC014A195B09DA011296159780F064
:101860006282738251834083D9016D937C93E1142A
:10187000F10471F0D7011396FC93EE93129776CF93
:1018800022968C0F9D1FF90191838083F301EFCF86
:10189000F0936C02E0936B0269CF4816590608F486
:1018A0002C017D01D3019ACFCB010E94FC097C0160
:1018B000009749F0AE01B8010E94660CC8010E9471
:1018C000980A870153CF10E000E050CFFB01DC0104
:1018D00002C001900D9241505040D8F70895FB018D
:1018E000DC018D91019080190110D9F3990B0895B5
:1018F000FB01DC0101900D920020E1F70895609159
:101900006502709166020E94730F0895B0E0A0E036
:10191000ECE8FCE00C94540BAE014B5F5F4FFA0116
:1019200061917191AF0180916302909164020E9474
:10193000270EE2E00C94700B20FD09C0FC0123FD92
:1019400005C022FF02C073836283518340830895E0
:1019500044FD17C046FD1DC0DB01FC01AA0FBB1FE3
:10196000EE1FFF1F1094D1F76A0F7B1F8E1F9F1F62
:10197000660F771F881F991F620F711D811D911DB2
:10198000089533E0660F771F881F991F3150D1F7F4
:10199000F3CF34E0F7CF0F931F93CF93DF938C01F6
:1019A000C8010E94370FEC0197FD08C00E94210B6F
:1019B000892BB1F7B801CE010E94A30FCE01DF91B0
:1019C000CF911F910F9108958F929F92AF92BF92E6
:1019D000EF92FF920F931F93CF93DF938C01D62F3B
:1019E0007A01B22E0E94370F9C0133272B3231052A
:1019F00029F02D323105A9F46894B7F8D15061F47B
:101A000080E0DF91CF911F910F91FF90EF90BF90F9
:101A1000AF909F908F900895C8010E94370F97FD57
:101A2000EFCFCB2DCD7F2B2D2073F9F48033E9F44C
:101A3000AA24AA94AD0E89F0C8010E94370F97FD21
:101A40000CC0282F2F7D283561F4C264D25029F0B4
:101A5000C8010E94370F97FF08C0812C912C5401B8
:101A60001BC0B6FE2BC0C260DA2D812C912C540114
:101A700020ED280F283028F1C4FD09C02A3008F1D4
:101A8000C6FF05C02F7D3FEE320F3630C8F0B801DB
:101A90000E94A30FC1FFB4CFC7FF08C0B094A094A9
:101AA00090948094811C911CA11CB11C2C2FB50119
:101AB000A401C7010E949C0C81E0A3CFC261D4CFD6
:101AC00027504C2FC501B4010E94A80C4B015C01AA
:101AD000C260D15009F3C8010E94370F97FFC8CFE9
:101AE000D9CFA0E2B0E0E7E7FDE00C94490B5C0140
:101AF000962E7A01CE0101966C0180E2F6011192D8
:101B00008A95E9F7F501B381890130E020E0712C75
:101B1000812CA0E041E050E0F801B3FD8591B3FFD6
:101B20008191982F8F01811107C010E000E0C8015A
:101B3000A096EDE00C94650B8E3519F42115310556
:101B400041F1A21713064CF48D3549F18D3229F479
:101B5000811006C0882483941DC0882009F464C0C5
:101B6000E92FE695E695E695EC0DFD2DF11D892F03
:101B70008770BA0101C0660F8A95EAF78081682BE9
:101B80006083791651F0971510F49F5FE9CF91505B
:101B9000E7CFA1E02F5F3F4FBFCF812CFBCF882045
:101BA00019F08E8180628E83AA2359F0F6019E017E
:101BB0002F5D3F4F8081809580833196E217F30738
:101BC000C9F788248394C5010E94370F97FD16C07A
:101BD000E82FE695E695E695EC0DFD2DF11D2081AB
:101BE00030E0AC014770552702C0359527954A95DE
:101BF000E2F720FD06C0B5010E94A30F882069F01E
:101C000094CFE114F10429F0F7018083C701019614
:101C10007C019A94812C9110D6CFE114F10409F43F
:101C200086CFF701108283CFE82FE695E695E695FB
:101C3000EC0DFD2DF11D982F9770BA0101C0660FB4
:101C40009A95EAF79081692B6083782EA3CFB0E054
:101C5000A0E0EDE2FEE00C94470B6C01EB015A01B1
:101C6000FC0117821682512CF601E380FE01E3FC91
:101C70008591E3FE8191182FEF018823E9F090E030
:101C80000E94210B892B21F0C6010E94CB0CECCFC6
:101C9000153241F4FE01E3FC1591E3FE1191EF01D1
:101CA000153269F4C6010E94370F97FD8EC01817D0
:101CB000D9F2B6010E94A30F852D90E08AC000E002
:101CC0001A3231F4E3FC1591E3FE1191EF0101E0CA
:101CD000F12C20ED210F2A3048F101FF37C0FF2001
:101CE00059F31836B1F11C3609F43DC0112321F324
:101CF000612F70E088E690E00E942C0F892BE1F2C2
:101D0000912C812C00FD06C0F50180809180C501D9
:101D100002965C011E3679F5F6014681578170E026
:101D200060E0202FC4010E949C0C9ECF02606F2DAA
:101D300070E090E080E040E20E94A80CF62EFE01E8
:101D4000E3FC1591E3FE1191EF01C3CFFF24FA9458
:101D5000C8CFFE01E3FC1591E3FE1191EF011836A7
:101D600009F0C4CF08600460FE01E3FC1591E3FEB6
:101D70001191EF01BBCF1336C1F401FD02C0FF2466
:101D8000F394C6010E94370F97FD1FC08114910480
:101D900029F0F4018083C40101964C01FA94F110FA
:101DA000F0CF00FD61CF53945FCF1B35B9F49E0196
:101DB000A4016F2DC6010E94710DEC01892B89F7DA
:101DC000F6018381807309F477CF8FEF9FEF511075
:101DD00073CFCDB7DEB7EFE00C94630BC6010E9462
:101DE000CB0C97FDF2CF1F36A9F130F4143641F039
:101DF000193639F0006405C01337B9F01537D1F73B
:101E00000062202FA4016F2DC6010E94E40C8111F5
:101E1000C8CFD6CF8114910429F0F4016082C401A7
:101E200001964C01FA94FF2071F0C6010E94370F11
:101E30003C0197FD08C00E94210B892B59F3B60184
:101E4000C3010E94A30F8114910409F4AACFF401E5
:101E50001082A7CF0061D5CFFC010590061621F0B6
:101E60000020D9F7C00108953197CF010895CF938D
:101E7000DF93EC012B8120FF1AC026FF0CC02F7BC3
:101E80002B838E819F8101969F838E838A8190E030
:101E9000DF91CF91089522FF18C0E881F9818081F8
:101EA000082E000C990B009729F420622B838FEFEA
:101EB0009FEFEECF3196F983E8832E813F812F5F2C
:101EC0003F4F3F832E839927E3CFEA85FB85099512
:101ED00097FFF3CF2B81019621F080E2822B8B8339
:101EE000E6CF80E1FBCF0F931F93CF93DF93182FA3
:101EF000092FEB018B8181FD09C01FEF0FEF812FAF
:101F0000902FDF91CF911F910F91089582FF14C000
:101F10002E813F818C819D81281739073CF4E8810F
:101F2000F981CF0101969983888310838E819F81E7
:101F300001969F838E83E3CFE885F985812F0995EC
:101F4000892BA1F3DACFFB01238120FF11C026FDED
:101F50000FC08F3F980771F082832F7D2064238309
:101F600026813781215031093783268399270895A7
:101F70008FEF9FEF089510E0C3E6D0E004C0FE01AC
:101F80000E94A30B2196C436D107C9F7F894FFCF5E
:101F900000006D028000000000005B01AD00E30066
:101FA000A8011901F2000B0100000000C303AD00FD
:101FB0006C026B024C61626F7261746F722034004C
:101FC000446F646920437269737469616E002563AC
:101FD0000073746F70004469726563743A206261C3
:101FE000636B7761726400202500506F7765723AE9
:101FF00020004469726563743A20666F727761727B
:1020000064004D6F746F722073746F706564006F3D
:102010006E006F66660042756C62204F6666004215
:08202000756C62204F6E000098
:107E0000112484B714BE81FFF0D085E080938100F7
:107E100082E08093C00088E18093C10086E0809377
:107E2000C20080E18093C4008EE0C9D0259A86E02C
:107E300020E33CEF91E0309385002093840096BBD3
:107E4000B09BFECF1D9AA8958150A9F7CC24DD24C4
:107E500088248394B5E0AB2EA1E19A2EF3E0BF2EE7
:107E6000A2D0813461F49FD0082FAFD0023811F036
:107E7000013811F484E001C083E08DD089C08234E0
:107E800011F484E103C0853419F485E0A6D080C0E4
:107E9000853579F488D0E82EFF2485D0082F10E0AE
:107EA000102F00270E291F29000F111F8ED06801E7
:107EB0006FC0863521F484E090D080E0DECF843638
:107EC00009F040C070D06FD0082F6DD080E0C81688
:107ED00080E7D80618F4F601B7BEE895C0E0D1E017
:107EE00062D089930C17E1F7F0E0CF16F0E7DF06D8
:107EF00018F0F601B7BEE89568D007B600FCFDCFD4
:107F0000A601A0E0B1E02C9130E011968C91119780
:107F100090E0982F8827822B932B1296FA010C0160
:107F200087BEE89511244E5F5F4FF1E0A038BF0790
:107F300051F7F601A7BEE89507B600FCFDCF97BE46
:107F4000E89526C08437B1F42ED02DD0F82E2BD052
:107F50003CD0F601EF2C8F010F5F1F4F84911BD097
:107F6000EA94F801C1F70894C11CD11CFA94CF0C13
:107F7000D11C0EC0853739F428D08EE10CD085E9AC
:107F80000AD08FE07ACF813511F488E018D01DD067
:107F900080E101D065CF982F8091C00085FFFCCF94
:107FA0009093C60008958091C00087FFFCCF809118
:107FB000C00084FD01C0A8958091C6000895E0E648
:107FC000F0E098E1908380830895EDDF803219F02E
:107FD00088E0F5DFFFCF84E1DECF1F93182FE3DFCA
:107FE0001150E9F7F2DF1F91089580E0E8DFEE27F6
:047FF000FF270994CA
:027FFE00040479
:00000001FF
