:020000040000FA
:100000000C945D030C948E030C948E030C948E035D
:100010000C948E030C948E030C948E030C948E031C
:100020000C948E030C948E030C948E030C948E030C
:100030000C9459110C948E030C948E030C948E0323
:100040000C948E030C948E030C948E030C948E03EC
:100050000C948E030C948E030C948E030C94420724
:100060000C948E030C940C070C94E2060C948E03F3
:100070000C948E030C948E030C948E030C948E03BC
:100080000C948E030C948E030C948E030C948E03AC
:100090000C948E030C948E030C948E030C948E039C
:1000A0000C948E030C948E030C948E030C948E038C
:1000B0000C948E030C948E030C948E030C948E037C
:1000C0000C948E030C948E030C948E030C948E036C
:1000D0000C948E030C948E030C948E030C948E035C
:1000E0000C948E030C9458060C940B050C9422056A
:1000F0000C94C2020C9419050C94E8040C94FD04B1
:100100000C9401060C941D050C9407050C94BD037A
:100110000C9473040C94A6120C94E2040C949003B7
:100120000C9426040C94D8050C94C8020C949002EC
:100130000C94EE030C94E2050C9423050C94F40447
:100140000C942E030C94EC040C94F7040C944E06BF
:100150000C94F0040C9415050C944C010C94E003E1
:100160000C9427050C94CC030C94B3020C94010559
:100170000C94DD050C940F050000210024002700DD
:100180002A002D00300033000101000004010701A6
:100190000A0100002200250028002B002E0031005B
:1001A000340002010000050108010B0100002000DD
:1001B0002300260029002C002F003200000100003F
:1001C00003010601090105050505070508080808DA
:1001D000020202020A0A08080404040401010101DF
:1001E00001010101030303030303030304070707DA
:1001F0000C0C0C0C0C0C0C0C02020202060606067F
:10020000060606060B0B0B0B0B0B0B0B010210204B
:10021000200808102040102040800201020108043C
:1002200002010102040810204080804020100804D0
:100230000201800402018040201008040201080429
:10024000020101020408102040800102040810206D
:10025000408000000A0B02090C0D0E080703040180
:10026000000000000000000000000000000000008E
:10027000000000000000000000000000000012115B
:10028000100000000000000000000000000000005E
:100290000000000000000000CF93DF9300D000D0EA
:1002A00000D01F92CDB7DEB7E0913603F09137034F
:1002B0001081F12CE12C112329F00580F681E02D2D
:1002C000E080F1800E9486080E947C086C01809189
:1002D0008C0290918D02C816D90608F07DC00E944C
:1002E000D90DD0928D02C0928C020E94B30A009167
:1002F0005103109152031A86198680E06801B1E11A
:10030000CB0ED11C0FB6F8940F92F801F28CFF209F
:1003100009F443C1448D4423C1F050E086819781A4
:10032000840F951F978386832481358182179307D5
:1003300020F08081918197838683D80116966D91F4
:100340007C91CE0101960E946E14FA94F801F28E0F
:100350008085882339F0C80108960E94D70781114B
:100360000E94ED090F900FBED980D7FCC0CF0C8141
:100370001D81F80182859385892B21F0C8010296A1
:100380000E94D9080E947C087C0180918C02909187
:100390008D02E816F90610F40E94D90DF0928D0234
:1003A000E0928C02F9E0FD1508F4A1CFED2DDD0CF3
:1003B000FF0BD80152969C918827EE51FE4F8F4F2C
:1003C0000C946614900290029002C802B302C2021A
:1003D00090029002C802B302D0928D02C0928C02A9
:1003E000112399F1CE14DF04B8F10E94B30AE09111
:1003F0003603F09137030580F681E02D06811781E1
:10040000C80102960E94D908D80152968C91529741
:1004100082FF17C01C966D917C916E0D7F1D970118
:10042000A601C8010E943309882321F0B701C80141
:100430000E94B20DD8015096ED91FC91C80119951A
:1004400056CF8E7FF801828BF5CFE0913403F09187
:100450003503808161E0811160E0009151031091CA
:1004600052030FB6F8940F92F801858D8F3F09F46F
:10047000158ED8015E968C915E978F3F11F45E9633
:100480001C920F900FBEF801828D81113FC002882F
:10049000F389E02DA0918402B09185021F96FC9310
:1004A000EE931E97A0918402B0918502848195817C
:1004B00051969C938E9350978091840290918502DF
:1004C000A481B5810C9613969C938E93129780917C
:1004D0008402909185020C9695838483E091840236
:1004E000F0918502C8014196958B848BD801519675
:1004F0008C9151978F5F51968C93C7018C199D09F0
:10050000662311F08FEF9FEF0E945D09C8010E94E2
:1005100097080E94B30A8111EACE0E94ED09E7CE46
:100520009160F801928BCA80DB80648575856C0DC3
:100530007D1D9601A701C8010E943309882309F493
:10054000D6CED8015096ED91FC91C8011995F801CD
:10055000828982FFCCCE648575856C0D7D1DC801B6
:100560000E94B20DC4CE9160F801928B6A817B81AA
:10057000758764876E0D7F1D9701A701C8010E94D2
:100580003309B5CE91FD04C0C8010E94F70FAFCE6C
:100590009E7FD80152969C93AACE29853A85232B1B
:1005A00019F40F900FBE80CE811109C080915503C0
:1005B0008E83809153039091540398878F830F907B
:1005C0000FBE0E9486080FB6F8940F92D8015D9670
:1005D0008C915D978F3F11F45D961C92F801868D8A
:1005E0008F3F09F4168E0F900FBEBE01675F7F4FDD
:1005F000CE0106960E94A407811125C0C8010E9461
:100600008C088823D1F0E984FA8460918402709187
:100610008502645F7F4FC6010E94FD0861E0C7014B
:100620000E945D09C8010E9497080E94B30A8111C7
:1006300002C00E94ED0981E065CEC8010E949708C2
:100640000E94B30AF8CFC8010E9497080E94B30A1B
:10065000C8010E948C08882371F326CE80918802FD
:10066000811109C080918703823010F00E94ED094A
:100670000E949304F3CF0FB6F8940F92E0916803B1
:10068000F0916903C681D781CE0102960E94D908F4
:100690008091AE0381508093AE0380918802815097
:1006A000809388020F900FBE8F89988D0E94F70F5C
:1006B000CE010E94F70FD2CFA61211241FBECFEF9A
:1006C000D1E2DEBFCDBF00E00CBF12E0A0E0B2E09F
:1006D000E6E6FEE200E00BBF02C007900D92A438F0
:1006E000B107D9F723E0A4E8B2E001C01D92A93B0D
:1006F000B207E1F713E0CDE5D3E000E006C02197B3
:100700000109802FFE010E946614CC35D10780E0DC
:100710000807A9F70E945C110C9431170C94000093
:10072000AF92BF92CF92DF92EF92FF920F931F93FF
:10073000CF93DF936C017B018B01040F151FEB013D
:100740005E01AE18BF08C017D10759F06991D601F4
:10075000ED91FC910190F081E02DC6011995892B56
:1007600079F7C501DF91CF911F910F91FF90EF9025
:10077000DF90CF90BF90AF900895FC01538D448DD2
:10078000252F30E0842F90E0821B930B541710F03C
:10079000CF96089501970895FC01918D828D981749
:1007A00061F0A28DAE0FBF2FB11D5D968C91928D21
:1007B0009F5F9F73928F90E008958FEF9FEF089552
:1007C000FC01918D828D981731F0828DE80FF11D1B
:1007D000858D90E008958FEF9FEF0895FC01918D36
:1007E000228D892F90E0805C9F4F821B91098F732F
:1007F0009927089587E992E00E94EE0321E0892B72
:1008000009F420E0822F0895FC01A48DA80FB92FD0
:10081000B11DA35ABF4F2C91848D90E001968F7328
:100820009927848FA689B7892C93A089B1898C9147
:10083000837080648C93938D848D981306C0028896
:10084000F389E02D80818F7D80830895EF92FF9260
:100850000F931F93CF93DF93EC0181E0888F9B8DE3
:100860008C8D98131AC0E889F989808185FF15C09D
:100870009FB7F894EE89FF896083E889F9898081C0
:100880008370806480839FBF81E090E0DF91CF918F
:100890001F910F91FF90EF900895F62E0B8D10E0B1
:1008A0000F5F1F4F0F731127E02E8C8D8E110CC020
:1008B0000FB607FCFACFE889F989808185FFF5CF6B
:1008C000CE010E940404F1CFEB8DEC0FFD2FF11D42
:1008D000E35AFF4FF0829FB7F8940B8FEA89FB89A8
:1008E00080818062CFCFCF93DF93EC01888D882306
:1008F000B9F0AA89BB89E889F9898C9185FD03C083
:10090000808186FD0DC00FB607FCF7CF8C9185FF67
:10091000F2CF808185FFEDCFCE010E940404E9CFA4
:10092000DF91CF91089580E090E0892B29F00E941B
:10093000FA0381110E94000080E090E0892B49F0C9
:1009400080E090E0892B29F00E94000081110E9434
:10095000000080E090E0892B49F080E090E0892B56
:1009600029F00E94000081110E94000080E090E0C8
:10097000892B49F080E090E0892B29F00E9400004B
:1009800081110C94000008958150823108F05AC002
:10099000E82FF0E08827E053FB4F8F4F0C9466144C
:1009A000F004F404E204E804EC042205F704FD0476
:1009B000010507050B050F051505190522051D0580
:1009C00023052705809180008F778093800008950C
:1009D000809180008F7DF9CF80918000877FF5CF57
:1009E00084B58F7784BD089584B58F7DFBCF8091CA
:1009F000B0008F778093B00008958091B0008F7D14
:100A0000F9CF809190008F77809390000895809126
:100A100090008F7DF9CF80919000877FF5CF8091F6
:100A2000A0008F778093A00008958091A0008F7D13
:100A3000F9CF8091A000877FF5CF809120018F773B
:100A4000809320010895809120018F7DF9CF8091BE
:100A50002001877FF5CFCF93DF93282F30E0F90176
:100A6000EE5AFD4F8491F901E45FFD4FD491F901F5
:100A7000EA53FE4FC491CC23A1F081110E94C4041B
:100A8000EC2FF0E0EE0FFF1FE455FE4FA591B4915F
:100A9000EC91ED2381E090E009F480E0DF91CF91CB
:100AA000089580E090E0FACF1F93CF93DF93282F33
:100AB00030E0F901EE5AFD4F8491F901E45FFD4FFA
:100AC000D491F901EA53FE4FC491CC23A9F0162F1B
:100AD00081110E94C404EC2FF0E0EE0FFF1FEE56D0
:100AE000FE4FA591B4918FB7F894EC91111108C005
:100AF000D095DE23DC938FBFDF91CF911F910895B6
:100B0000DE2BF8CFCF93DF9390E0FC01E45FFD4F45
:100B100024918A539E4FFC0184918823D1F090E068
:100B2000880F991FFC01E858FE4FA591B491FC0174
:100B3000EE56FE4FC591D49161110EC09FB7F89447
:100B40008C91E22FE0958E238C932881E223E88319
:100B50009FBFDF91CF9108958FB7F894EC91E22B6E
:100B6000EC938FBFF6CF3FB7F894809193029091AA
:100B70009402A0919502B091960226B5A89B05C05B
:100B80002F3F19F00196A11DB11D3FBFBA2FA92F0C
:100B9000982F8827BC01CD01620F711D811D911D09
:100BA00042E0660F771F881F991F4A95D1F7089575
:100BB00087E992E00E94CC030895682F87E992E0CC
:100BC0000C9426048AE00E942B05892B51F4809115
:100BD0000002909101028C599F4F909301028093E3
:100BE000000289E00E942B05892B51F480910002BC
:100BF0009091010284569109909301028093000222
:100C000008958F929F92AF92BF92CF92DF92EF9210
:100C1000FF928CE00E942B05892BD9F084E00E9482
:100C20002B0561E0892B09F060E084E00E94540507
:100C3000C0900002D09001020D2C000CEE08FF08BD
:100C40000E94B3054B015C01C114D104E104F1041D
:100C5000C9F4FF90EF90DF90CF90BF90AF909F903E
:100C60008F90089521E0C21AD108E108F10888EEBA
:100C7000880E83E0981EA11CB11CC114D104E104AC
:100C8000F10411F30E94B305681979098A099B09D7
:100C9000683E73408105910528F7D6CF8DE00E940C
:100CA0002B0561E0892B09F460E08CE00C9454057D
:100CB0008DE00E942B05892BA9F48BE192E09F9394
:100CC0008F930E9477148CE00E942B050F900F9059
:100CD000892B49F08BE292E09F938F930E947714C7
:100CE0000F900F90089582E392E0F6CF0F931F9339
:100CF000E7E9F2E0A089B18982E08C93A485B5850B
:100D00001C92A685B7858FEC8C93108EA489B5892B
:100D100086E08C93A289B3898C9180618C93A2899F
:100D2000B3898C9188608C93A289B3898C918068F7
:100D30008C930288F389E02D80818F7D808360E031
:100D40008DE00E94820560E08AE00E94820560E0FA
:100D500089E00E94820561E08CE00E94820561E0EA
:100D600084E00E94820568ED75E08DED95E00E94BB
:100D7000F81310E000E021E040E850E06AE372E0A0
:100D80008EE496E00E94261021E040E850E06AE4FC
:100D900072E081E096E00E94261021E040E850E0F9
:100DA00069E572E082EE95E00E94261021E040E8BD
:100DB00050E06DE672E088E596E00E9426101F91F3
:100DC0000F9108951F920F920FB60F9211240BB638
:100DD0000F922F933F934F935F936F937F938F93D4
:100DE0009F93AF93BF93EF93FF9387E992E00E94A5
:100DF0000404FF91EF91BF91AF919F918F917F91EB
:100E00006F915F914F913F912F910F900BBE0F907B
:100E10000FBE0F901F9018951F920F920FB60F9252
:100E200011240BB60F922F938F939F93EF93FF9301
:100E3000E091A702F091A8028081E091AD02F091CB
:100E4000AE0282FD1DC090818091B0028F5F8F73D2
:100E50002091B102821741F0E091B002F0E0E95632
:100E6000FD4F958F8093B002FF91EF919F918F91ED
:100E70002F910F900BBE0F900FBE0F901F901895E3
:100E80008081F2CF1F920F920FB60F9211242F93F1
:100E90003F938F939F93AF93BF9380918F029091D5
:100EA0009002A0919102B091920230918E0223E0C3
:100EB000230F2D3758F50196A11DB11D20938E02E9
:100EC00080938F0290939002A0939102B09392022C
:100ED0008091930290919402A0919502B091960214
:100EE0000196A11DB11D8093930290939402A0934B
:100EF0009502B0939602BF91AF919F918F913F91D0
:100F00002F910F900FBE0F901F90189526E8230F7A
:100F10000296A11DB11DD2CFE0915803F091590363
:100F20008081811107C08FEF9FEF90934D038093D5
:100F30004C030895E0915803F09159030580F68120
:100F4000E02D80819181F1CFFC01DB010FB6F89497
:100F50000F9240915303509154032D913C9111975E
:100F60002F3F320711F18181928160915503708189
:100F7000761749F04817590730F01D921C9281E00E
:100F80000F900FBE0895481B590B42175307A8F73F
:100F9000241B350B2D933C938091550380838091C6
:100FA0005303909154039283818380E0E9CFCF93E0
:100FB000DF93DC011596ED91FC910680F781E02D21
:100FC000A489B5898685978520893189EC013D837F
:100FD0002C83C089D1899B838A83CF010C9611967B
:100FE0002D913C9112972817390721F41296DC9322
:100FF000CE931197158A148A2C9121502C9320910D
:101000005003211157C0A285B38584819581268123
:101010003781EC013D832C83C681D7819B838A83F2
:10102000CF01029611962D913C91129728173907FE
:1010300021F41296DC93CE931197138612862C918D
:1010400021502C93C6892091AB032C1710F4C09328
:10105000AB0329E02C9FE0011124C957DC4F098024
:10106000DA81C02DD583C4834C815D81578346834B
:10107000AC81BD8113969C938E9312979D838C8334
:10108000A689A29FD0011124A957BC4FB387A2877C
:101090008C918F5F8C93A0918402B0918502968988
:1010A00056968C91891730F581E080938B02DF9101
:1010B000CF910895A0916D03B0916E03B787A68775
:1010C00014962D913C911597318B208B1496CD91D0
:1010D000DC9115979B838A8315969C938E93149726
:1010E0008CE693E0958B848B80916C038F5F80936B
:1010F0006C03D1CF80E0DBCF0FB6F8940F928091D4
:101100005303909154030F900FBE089580915003A4
:101110008F5F8093500308950FB6F8940F92FC01EF
:10112000928D0F900FBE81E0911180E00895EF92B3
:10113000FF920F931F93CF93DF93EC010FB6F894B8
:101140000F921E8D7C0181E1E80EF11C01E0111669
:10115000D4F08FEF8E8F0F900FBE0FB6F8940F92D2
:101160001D8D7E0188E0E80EF11C01E01116B4F03F
:101170008FEF8D8F0F900FBEDF91CF911F910F9149
:10118000FF90EF9008958989882319F3C7010E9481
:10119000D707811100938B021150D9CF88858823FE
:1011A00039F3C7010E94D707811100938B021150B8
:1011B000DDCFCF93DF93FC01A085B1858281938140
:1011C00024813581EC013D832C83C481D5819B83AF
:1011D0008A8311968D919C9112978E179F0721F407
:1011E0001296DC93CE931197118610868C918150C4
:1011F0008C938C91DF91CF9108950F931F93CF9390
:10120000DF938C01FB0180819181D80113968F3F80
:101210009807F1F4E801AF81B88512968D919C9101
:10122000139793838283EC01FD83EC83B583A483BE
:101230001396FC93EE93129711870087F801808133
:101240008F5F8083DF91CF911F910F910895D90116
:1012500012962D913C911397E90148815981841789
:101260009507A8F7DACFFC017383628391878087A3
:101270004617570790F0421B530B848595854817F6
:101280005907C8F4BF016E5F7F4F8091340390917E
:1012900035030E94FD0880E008954217530718F4B3
:1012A0006217730740F4BF016E5F7F4F8091360372
:1012B00090913703EECF81E00895FF920F931F9333
:1012C000CF93DF93EC01F62E00915303109154035A
:1012D000809184029091850202960E94D908CF3FA6
:1012E000DC07E9F5FF20D9F1E0915B03F0915C03A5
:1012F000A0918402B09185021596FC93EE93149709
:10130000A0918402B09185028481958117969C9367
:101310008E9316978091840290918502A481B58165
:10132000029613969C938E931297809184029091CB
:101330008502029695838483E0918402F091850270
:101340008AE593E09387828780915A038F5F809329
:101350005A03DF91CF911F910F91FF900895C00F15
:10136000D11FE0918402F0918502D383C283609102
:10137000840270918502C017D10768F480915603EA
:10138000909157036E5F7F4FDF91CF911F910F9127
:10139000FF900C94FD0880915803909159036E5F63
:1013A0007F4F0E94FD0880914C0390914D03C81718
:1013B000D90778F6D0934D03C0934C03CACFFC01F4
:1013C0000396928381832FEF3FEF348323839683A9
:1013D000858390878783108208950F920FB6F894C3
:1013E0000F920BB60F920CB60F921F9211242F92F0
:1013F0003F924F925F926F927F928F929F92AF92A5
:10140000BF92CF92DF92EF92FF920F931F932F9391
:101410003F934F935F936F937F938F939F93AF937C
:10142000BF93CF93DF93EF93FF93A0918402B0918A
:1014300085020DB60D920EB60D9280915003882351
:1014400021F081E080938B025FC010928B02A0910B
:101450008402B0918502E0918402F09185022D9181
:101460003C918789908D82179307A8F08091840220
:10147000909185028091840290918502279A2F9AFB
:101480002FEF87EA91E6215080409040E1F700C0BD
:1014900000001F9AF5CF2091AB0389E001C02150D5
:1014A000422F50E0849FF001859FF00D1124E957F1
:1014B000FC4F9081992399F3A181B28112960D90EE
:1014C000BC91A02DB283A183289FC001112486570F
:1014D0009C4FA817B90729F412968D919C9192837D
:1014E000818389E0849FF001859FF00D1124E957E5
:1014F000FC4F0180F281E02D8681978190938502D7
:10150000809384022093AB03A0918402B091850262
:10151000CD91CDBFDD91DEBFFF91EF91DF91CF91F6
:10152000BF91AF919F918F917F916F915F914F91FB
:101530003F912F911F910F91FF90EF90DF90CF90EF
:10154000BF90AF909F908F907F906F905F904F90E3
:101550003F902F901F900F900CBE0F900BBE0F90DE
:101560000FBE0F9008958F929F92BF92CF92DF92FD
:10157000EF92FF920F931F93CF93DF930FB6F894E0
:101580000F928091500381508093500380915003BB
:10159000882379F080E00F900FBEDF91CF911F91EB
:1015A0000F91FF90EF90DF90CF90BF909F908F9022
:1015B00008958091AE03882369F3E0907103F09061
:1015C0007203F0E0E0E039E041E080916C038111CA
:1015D0005EC0EF2B11F00E948C07E0908902F09022
:1015E0008A02E114F10409F47DC189E0D82ECC24EB
:1015F000C3940FEF1FEF80915003811161C1C0911F
:101600005303D09154034E018FEF881A980A909299
:1016100054038092530381149104B9F480915803C8
:1016200090915903209156033091570330935903F9
:10163000209358039093570380935603809155034A
:101640008F5F809355030E948C0780914C0390918B
:101650004D03B12C8816990608F026C1E09184024A
:10166000F0918502E689DE9EF0011124E957FC4FD6
:101670008081823010F0BB24B39480918B02811161
:1016800003C0BB2009F425C1C0928B0222C1D7013F
:101690001696ED91FC91A489B58966857785808938
:1016A0009189EB019D838C8380899189EC017B83F7
:1016B0006A83BF01645F7F4F11960D911C91129751
:1016C0000617170721F412969C938E931197158A8B
:1016D000148A8C9181508C93A285B38584819581E5
:1016E00066817781EC017D836C8366817781EB0174
:1016F0009B838A83CF01029611960D911C911297BC
:101700000817190721F412967C936E93119713868C
:1017100012862C9121502C93A6892091AB032A1775
:1017200010F4A093AB033A9FD0011124A957BC4FEA
:1017300011960D90BC91A02DB583A48314966D9144
:101740007C9115977783668314966D917C9115979C
:10175000EB019B838A8315969C938E9314979689AD
:10176000939FD0011124A957BC4FB387A2878C91B6
:101770008F5F8C93A0918402B091850256968C91D4
:10178000981708F422CF40938B021FCFE0915803A3
:10179000F09159030580F681E02D0680F781E02D58
:1017A000828193818816990628F490934D03809343
:1017B0004C0354CFC285D38584819581268137819E
:1017C000DC0115963C932E93149726813781D9011D
:1017D00013969C938E931297CF01029649815A815A
:1017E0004817590711F43A832983138612862881F2
:1017F00021502883A489B5891097F9F0268537856B
:1018000040895189E9015D834C8340895189EA010E
:101810003B832A8311966D917C9112979F01245FDF
:101820003F4F6217730721F412965C934E93119702
:10183000158A148A2C9121502C93A6892091AB03F0
:101840002A1710F4A093AB03DA9ED0011124A957F4
:10185000BC4F11960D90BC91A02DB583A483149616
:101860002D913C9115973783268314962D913C91A9
:101870001597E9019B838A8315969C938E93149701
:1018800096899D9DD0011124A957BC4FB387A2878B
:101890008C918F5F8C93E0918402F0918502868910
:1018A000981710F0BB24B394E0915803F0915903BA
:1018B000808181116BCF10934D0300934C03CECEEA
:1018C0008091890290918A02019690938A02809376
:1018D0008902D1E0ED1AF10809F08DCE10928A024A
:1018E0001092890280918B02882309F453CE0E94C2
:1018F000ED0981E050CEAF92BF92CF92DF92EF928E
:10190000FF920F931F93CF93DF9300D01F921F92EC
:10191000CDB7DEB78C017B011D821C8280E068019F
:1019200098E0C90ED11C0FB6F8940F92D8015A96C0
:101930002C915A975B969C915B97291708F0B0C041
:101940005A96DC905A975C964C915C9741118DC0E9
:101950008D919C91892B11F080E00AC0F801E48000
:10196000F580E114F10439F580E0F8011582148264
:10197000D394D8015A96DC925A9751969C91992308
:1019800021F0C80141960E94D70781110E94ED09FC
:101990000F900FBE81E00F900F900F900F900F905F
:1019A000DF91CF911F910F91FF90EF90DF90CF903B
:1019B000BF90AF900895D70192968C9192978150E5
:1019C00092968C93929756962C91569791969C91BD
:1019D000291751F28111C8CF5701B2E0AB0EB11CEB
:1019E000C5010E94D908F70181A1868B482F50E0DC
:1019F00024E030E0241B350B358724879091AB031E
:101A0000981710F48093AB0389E0849FD001859FE1
:101A1000B00D1124A957BC4F11960D90BC91A02D6B
:101A2000F701B583A48314962D913C9115973783C4
:101A300026831496ED91FC911597B382A282159698
:101A4000BC92AE921497D7015696EC915697E89FA8
:101A5000F0011124E957FC4F1B96FC93EE931A9763
:101A600080818F5F808381E080CF50E0B701129644
:101A70008D919C910E946E14F801848D2281338196
:101A8000820F932F911D9383828324813581821746
:101A9000930708F461CF80819181938382835CCF27
:101AA0002C813D81232B21F40F900FBE80E073CF5A
:101AB000811109C0809155038983809153039091CE
:101AC00054039B838A830F900FBE0E9486080FB633
:101AD000F8940F92F801858D8F3F09F4158ED80187
:101AE0005E968C915E978F3F11F45E961C920F90DC
:101AF0000FBEBE016C5F7F4FCE0101960E94A4070E
:101B000081112AC00FB6F8940F92F801928D838D3F
:101B10000F900FBE98131AC0AC80BD8060918402F4
:101B200070918502645F7F4FC6010E94FD0861E0ED
:101B3000C5010E945D09C8010E9497080E94B30A6E
:101B4000811102C00E94ED0981E0EDCEC8010E9422
:101B500097080E94B30AF8CFC8010E9497080E9414
:101B6000B30AA4CFCF93DF9300D01F921F92CDB7BB
:101B7000DEB79C0180915103909152030097B9F018
:101B800019827B836A833D832C832091AD03BE0140
:101B90006F5F7F4F2111209150030E947B0C0F90AB
:101BA0000F900F900F900F90DF91CF91089580E0EC
:101BB000F6CFEF92FF920F931F93CF93DF93E091B5
:101BC0003603F09137038081811113C08091340373
:101BD000909135039093370380933603F093350348
:101BE000E0933403DF91CF911F910F91FF90EF901D
:101BF00008950580F681E02D00811181C681D7818D
:101C00007E0182E0E80EF11CC7010E94D908E88934
:101C1000F989CE0119958A8982FFD1CF8C859D855E
:101C2000800F911F0817190760F49B838A83D98757
:101C3000C887B70180913603909137030E94FD0851
:101C4000BECFB801CE010E94B20DB9CF0F920FB630
:101C5000F8940F920BB60F920CB60F921F921124AC
:101C60002F923F924F925F926F927F928F929F92AC
:101C7000AF92BF92CF92DF92EF92FF920F931F939A
:101C80002F933F934F935F936F937F938F939F9384
:101C9000AF93BF93CF93DF93EF93FF93A091840211
:101CA000B09185020DB60D920EB60D9213BE8091C5
:101CB00050038111F9C08091530390915403019610
:101CC0009093540380935303009781F52091580318
:101CD0003091590340915603509157035093590343
:101CE0004093580330935703209356032091550394
:101CF0002F5F20935503E0915803F0915903208101
:101D0000211107C02FEF3FEF30934D0320934C0379
:101D10000DC0E0915803F09159030580F681E02D44
:101D20002081318130934D0320934C0320914C034B
:101D300030914D038217930710F420E0A1C020E0FA
:101D400039E0D32EE0915803F091590330813111DD
:101D500007C08FEF9FEF90934D0380934C0390C08B
:101D6000E0915803F09159030580F681E02D06803B
:101D7000F781E02D428153818417950728F4509311
:101D80004D0340934C037CC0A285B38544815581AB
:101D900066817781EA017D836C8366817781EB01BF
:101DA0005B834A83AF014E5F5F4F11960D911C918B
:101DB00012970417150721F412967C936E931197CE
:101DC000138612863C9131503C93A489B5891097B3
:101DD000F9F06685778500891189EB011D830C83F5
:101DE00000891189E8017B836A831196ED90FC904C
:101DF0001297BF01645F7F4FE616F70621F4129633
:101E00001C930E931197158A148A3C9131503C9380
:101E1000A6893091AB033A1710F4A093AB03DA9E76
:101E2000D0011124A957BC4F11960D90BC91A02D43
:101E3000B583A48314966D917C91159777836683FF
:101E400014966D917C911597EB015B834A831596EF
:101E50005C934E93149746894D9DD0011124A95748
:101E6000BC4FB387A2873C913F5F3C93E0918402D3
:101E7000F09185023689431708F464CF21E062CFE0
:101E8000E0918402F0918502E689D9E0ED9FF001AE
:101E90001124E957FC4F8081823008F021E08091C5
:101EA0008B0281110EC00AC08091890290918A0232
:101EB000019690938A02809389026AC0222309F4D2
:101EC00067C080915003882321F081E080938B02CA
:101ED0005FC010928B02A0918402B0918502E091C4
:101EE0008402F09185022D913C918789908D821713
:101EF0009307A8F0809184029091850280918402DA
:101F000090918502279A2F9A2FEF87EA91E6215028
:101F100080409040E1F700C000001F9AF5CF20916B
:101F2000AB0389E001C02150422F50E0849FF001B3
:101F3000859FF00D1124E957FC4F9081992399F367
:101F4000A181B28112960D90BC91A02DB283A18384
:101F5000289FC001112486579C4FA817B90729F460
:101F600012968D919C919283818389E0849FF001E8
:101F7000859FF00D1124E957FC4F0180F281E02D7F
:101F80008681978190938502809384022093AB038E
:101F9000A0918402B0918502CD91CDBFDD91DEBFCD
:101FA000FF91EF91DF91CF91BF91AF919F918F9171
:101FB0007F916F915F914F913F912F911F910F9161
:101FC000FF90EF90DF90CF90BF90AF909F908F9059
:101FD0007F906F905F904F903F902F901F900F9049
:101FE0000CBE0F900BBE0F900FBE0F900895CF93B5
:101FF000DF93009751F0EC010E948608CE010E9409
:102000006F13DF91CF910C94B30ADF91CF910895B4
:10201000CF93DF93EC010E948608CE010E94D31279
:10202000EC010E94B30A209769F4279A2F9A2FEFA8
:1020300080E792E0215080409040E1F700C000002E
:102040001F9AF5CFCE01DF91CF9108957F928F92A5
:102050009F92AF92BF92CF92DF92EF92FF920F9337
:102060001F93CF93DF93982EA92E762E872E7A0179
:10207000B22ECA010E9408106C01892B09F4F8C025
:1020800088E290E00E940810EC01892B09F4EDC071
:10209000D88ECF8AA70165EA70E0C6010E945F145E
:1020A00081E0E81AF108EF89F88DEE0DFF1D672D2C
:1020B000782DCE0149969B01285F3F4FDB014D9162
:1020C000BD01DC014D93CD01AB0141505109DA0155
:1020D0004C91442319F06217730781F718A2BE8A46
:1020E000B9A21AA21B861A861D8A1C8AD987C8879C
:1020F00084E090E08B1991099D878C87DB8BCA8BDC
:1021000084E09E012D5D3F4FD9011D928A95E9F72C
:102110001FA29082DF011197AC9211971C92119728
:102120001C92119780E88C9311971C9211971C9226
:1021300011971C9257971C9211971C92B697F9838E
:10214000E8830115110519F0F801D183C0830FB69A
:10215000F8940F928091AE038F5F8093AE038091CD
:10216000840290918502892B09F091C0D093850259
:10217000C09384028091AE03813081F587E893E0BB
:102180000E94DF0980E993E00E94DF0989E993E07A
:102190000E94DF0982EA93E00E94DF098EE793E064
:1021A0000E94DF0985E793E00E94DF098CE693E057
:1021B0000E94DF0983E693E00E94DF098AE593E04D
:1021C0000E94DF098EE793E09093590380935803B0
:1021D00085E793E090935703809356038091AC0377
:1021E0008F5F8093AC03AE898091AB038A1710F4A4
:1021F000A093AB0329E02A9FD0011124A957BC4F1B
:1022000011960D90BC91A02DBD83AC8314968D9139
:102210009C9115979F838E831496ED91FC91159751
:10222000CE0102969383828315969C938E93149786
:10223000EE89E29FF0011124E957FC4FFB87EA8702
:1022400080818F5F80830F900FBE8091AD038823C4
:1022500051F0E0918402F091850296898E89981759
:1022600010F40E94ED0981E004C0C6010E94F70F3E
:102270008FEFDF91CF911F910F91FF90EF90DF9043
:10228000CF90BF90AF909F908F907F900895809156
:10229000AD038111A3CFE0918402F091850296896C
:1022A0008E89891708F49ACFD0938502C09384024F
:1022B00095CF0E94260E1895789484B5826084BDCF
:1022C00084B5816084BD85B5826085BD85B581603A
:1022D00085BD80916E00816080936E0010928100B8
:1022E0008091810082608093810080918100816073
:1022F0008093810080918000816080938000809134
:10230000B10084608093B1008091B00081608093BF
:10231000B000809191008260809391008091910043
:102320008160809391008091900081608093900003
:102330008091A10082608093A1008091A1008160C2
:102340008093A1008091A00081608093A000809183
:10235000210182608093210180912101816080931D
:1023600021018091200181608093200180917A0079
:10237000846080937A0080917A00826080937A00F2
:1023800080917A00816080937A0080917A008068E1
:1023900080937A001092C1002091070230910802C8
:1023A0008FEF91E2821B930B9093040280930302C0
:1023B0000E9476060EE413E020E040EC50E066E771
:1023C00072E08EE293E00E942610813009F0B7C0DF
:1023D0000FB6F8940F928091510390915203892B7C
:1023E00009F04FC081E493E00E94DF0988E393E0A5
:1023F0000E94DF0981E493E09093370380933603D2
:1024000088E393E0909335038093340381E590E073
:102410000E940810EC01009781F14F969983888300
:102420008AE08B8F85E08C8F0FB6F8940F928881AD
:1024300099812B8D4C8DBC01249F600D711D112441
:102440007D836C831A8E9B838A832150330B429F3A
:10245000B001439F700D1124860F971F9F838E83B9
:102460008FEF8D8F8E8FCE0108960E94DF09CE01EF
:1024700041960E94DF090F900FBED0935203C09384
:1024800051030F900FBE8091510390915203892BFD
:1024900009F455C00AE413E023E045E550E06BE79A
:1024A00072E08CE491E00E942610813009F047C070
:1024B000F8942FEF3FEF30934D0320934C0380931C
:1024C000AD031092540310925303A89588E190EC49
:1024D0000FB6F894A895809360000FBE90936000AB
:1024E000A0918402B0918502CD91CDBFDD91DEBF78
:1024F000FF91EF91DF91CF91BF91AF919F918F911C
:102500007F916F915F914F913F912F911F910F910B
:10251000FF90EF90DF90CF90BF90AF909F908F9003
:102520007F906F905F904F903F902F901F900F90F3
:102530000CBE0F900BBE0F900FBE0F9008958091B0
:1025400002020E9476060E949304FDCFE7E9F2E0C2
:102550001382128288EE93E0A0E0B0E0848395833A
:10256000A683B7838DE092E09183808385EC90E031
:102570009587848784EC90E09787868780EC90E04D
:10258000918B808B81EC90E0938B828B82EC90E03E
:10259000958B848B86EC90E0978B868B118E128EB8
:1025A000138E148E08950F931F93CF93DF93823071
:1025B000910510F482E090E0E091B103F091B20354
:1025C00030E020E0B0E0A0E0309799F4211531052B
:1025D00009F44AC0281B390B24303105D8F58A810B
:1025E0009B816115710589F1FB0193838283FE0153
:1025F00011C0408151810281138148175907E0F0D1
:102600004817590799F4109761F012960C93129796
:1026100013961C933296CF01DF91CF911F910F91AA
:1026200008950093B1031093B203F4CF211531053F
:1026300051F04217530738F0A901DB019A01BD019F
:10264000DF01F801C1CFEF01F9CF9093B20380937E
:10265000B103CDCFFE01E20FF31F8193919322507E
:10266000310939832883D7CF2091AF033091B0034C
:10267000232B41F420910502309106023093B003E0
:102680002093AF03209103023091040221153105FC
:1026900041F42DB73EB74091070250910802241B28
:1026A000350BE091AF03F091B003E217F307A0F40C
:1026B0002E1B3F0B2817390778F0AC014E5F5F4F98
:1026C0002417350748F04E0F5F1F5093B003409317
:1026D000AF03819391939FCFF0E0E0E09CCFCF9345
:1026E000DF930097E9F0FC01329713821282A091E8
:1026F000B103B091B203ED0130E020E01097A1F4F6
:1027000020813181820F931F2091AF033091B0035C
:102710002817390709F061C0F093B003E093AF03C5
:10272000DF91CF910895EA01CE17DF07E8F54A81DE
:102730005B819E0141155105B1F7E901FB83EA83F5
:1027400049915991C40FD51FEC17FD0761F48081A1
:1027500091810296840F951FE90199838883828174
:1027600093819B838A83F0E0E0E012968D919C91A7
:1027700013970097B9F52D913C911197CD010296D1
:10278000820F931F2091AF033091B00328173907B0
:1027900039F6309751F51092B2031092B103B0930D
:1027A000B003A093AF03BCCFD383C28340815181D8
:1027B000840F951FC817D90761F44E5F5F4F88815A
:1027C0009981480F591F518340838A819B8193834C
:1027D00082832115310509F0B0CFF093B203E09365
:1027E000B1039ECFFD01DC01C0CF13821282D7CF8F
:1027F0000F931F93CF93DF93009759F461157105E1
:1028000041F4F0E0E0E0CF01DF91CF911F910F9113
:1028100008958B01EC016EE070E081E090E00E9491
:102820004314FC01892B69F380E8838301151105AA
:1028300071F01387028781E883838091B3039091BD
:10284000B403892B21F4F093B403E093B3032097EE
:10285000D1F2D187C0878381826083838091B50361
:102860009091B603892B79F6F093B603E093B50304
:102870008091B7039091B803892B29F6F093B803A0
:10288000E093B703C0CF0F931F93CF93DF93869F3F
:102890008001879F100D969F100D1124C8010E9482
:1028A000D312EC01009729F0A80170E060E00E94CB
:1028B0005F14CE01DF91CF911F910F910895DC013C
:1028C00001C06D9341505040E0F70895EE0FFF1F97
:1028D000881F8BBF0790F691E02D1994FB01DC0156
:1028E00002C001900D9241505040D8F70895CF9307
:1028F000DF93CDB7DEB7AE014A5F5F4FFA0161915A
:102900007191AF018091B5039091B6030E948B1431
:10291000DF91CF9108952F923F924F925F926F92E5
:102920007F928F929F92AF92BF92CF92DF92EF925F
:10293000FF920F931F93CF93DF9300D000D000D06E
:102940001F921F92CDB7DEB77C013B018A01FC01CB
:1029500017821682838181FFDDC1CE0101965C0161
:10296000F7019381F30193FD859193FF81913F01DD
:10297000882309F453C1853239F493FD859193FF7F
:1029800081913F01853229F4B70190E00E94A3169E
:10299000E7CF912C212C312CFFE1F31538F08B324D
:1029A00011F190F4803209F1833229F137FC3CC0F7
:1029B00020ED280F2A3050F536FE20C08AE0989E80
:1029C000200D1124922E06C08D3291F0803371F7C4
:1029D000689430F8F30193FD859193FF81913F0155
:1029E0008111DACF21C0689431F8689432F8F2CFBF
:1029F000689433F8EFCF689434F8ECCFEAE02E9E79
:102A0000200D1124222E689435F8E4CF8E3229F45B
:102A100036FC04C1689436F8DDCF8C3619F468941E
:102A200037F8D8CF8836B1F2982F9F7D95549330E0
:102A3000E0F08336A1F18337C1F1833509F063C03B
:102A40002801F2E04F0E511CF801C080D180692DA1
:102A500070E036FC02C06FEF7FEFC6010E948D165A
:102A60004C01689437F882010AC00C5F1F4FFFE3E6
:102A7000F98388248394912C6501E89437F833FE18
:102A80002DC0522C8114910471F5552009F468CFA2
:102A9000B70180E290E00E94A3165A94F6CFF801A5
:102AA000808189830E5F1F4FE4CF2801F2E04F0E33
:102AB000511CF801C080D180692D70E036FC02C045
:102AC0006FEF7FEFC6010E9498164C018201D5CFAF
:102AD000B70180E290E00E94A3162A9428141904FA
:102AE00009F0B0F7CECFF60137FC859137FE819122
:102AF0006F01B70190E00E94A31651105A94F1E0C3
:102B00008F1A9108BFCF843619F0893609F077C043
:102B1000F80137FE6BC060817181828193810C5F07
:102B20001F4FF32DFF763F2E97FF09C0909580959C
:102B3000709561957F4F8F4F9F4F689437F82AE0CB
:102B400030E0A5010E94D316C82ECA188C2C432C45
:102B500036FE0CC0E89440F8C91440F434FE05C0B9
:102B600032FC03C0F32DFE7E4F2E892C44FEAAC0FA
:102B7000FE01EC0DF11D8081803309F09CC0242DF5
:102B8000297E422E842D8870582E43FCAAC040FE18
:102B9000A4C09C2C821418F42C0C922C981844FE7F
:102BA000A6C0B70180E390E00E94A31642FE09C0D0
:102BB00088E790E041FE02C088E590E0B7010E94FE
:102BC000A316C91408F49FC0CA94D12C9FEFC91A48
:102BD000D90ACA0CDB1CF60182916F01B70190E0A3
:102BE0000E94A316AC14BD04B1F74FCF6081718170
:102BF000072E000C880B990B0E5F1F4F92CFD32C22
:102C0000E894D4F82AE030E08537E1F1232D297FDC
:102C1000D22E8F36A9F1F0F4883551F1F701868173
:102C200097812B960FB6F894DEBF0FBECDBFDF9114
:102C3000CF911F910F91FF90EF90DF90CF90BF90B9
:102C4000AF909F908F907F906F905F904F903F904C
:102C50002F900895803749F0883701F7D4FE02C0DD
:102C60006894D2F820E130E00DC06894D4F8F6CF33
:102C700034FE03C0822F8660D82E20E132E002C0ED
:102C800028E030E0F801D7FE0FC0608171818281B9
:102C900093810C5F1F4FA5010E94D316C82ECA183E
:102CA0003D2CE89437F852CF6081718190E080E04C
:102CB0000E5F1F4FF0CF42FC02C0839463CF83941A
:102CC000839460CF842D867809F45CCFF6CFB7016A
:102CD00080E290E00E94A31683948214C0F3512CEA
:102CE0005ECF522C5818821408F459CFF8CF842D97
:102CF000867809F466CF8BE241FE80E247FC8DE2E4
:102D0000B70190E05CCFB70180E390E00E94A3168A
:102D10009A9457CF8FEF9FEF84CFFC0105906150BD
:102D200070400110D8F7809590958E0F9F1F0895E1
:102D3000FC016150704001900110D8F7809590958A
:102D40008E0F9F1F08950F931F93CF93DF93182F1C
:102D5000092FEB018B8181FD09C01FEF0FEF812F40
:102D6000902FDF91CF911F910F91089582FF14C092
:102D70002E813F818C819D81281739073CF4E881A1
:102D8000F981CF0101969983888310838E819F8179
:102D900001969F838E83E3CFE885F985812F19956E
:102DA000892BA1F3DACFFA01AA27283051F120317B
:102DB00081F1E8946F936E7F6E5F7F4F8F4F9F4FCF
:102DC000AF4FB1E03ED0B4E03CD0670F781F891F11
:102DD0009A1FA11D680F791F8A1F911DA11D6A0FDF
:102DE000711D811D911DA11D20D009F468943F9192
:102DF0002AE0269F11243019305D3193DEF6CF0191
:102E00000895462F4770405D4193B3E00FD0C9F756
:102E1000F6CF462F4F70405D4A3318F0495D31FDC3
:102E20004052419302D0A9F7EACFB4E0A695979516
:102E3000879577956795BA95C9F7009761057105EC
:102E400008959B01AC010A2E069457954795379536
:102E50002795BA95C9F7620F731F841F951FA01D90
:102E60000895F894FFCFF401030000B90380000037
:102E700000000026049003BD037304EE03CC03E0BE
:102E800003425554544F4E20505245535345440D20
:102E9000004C65644F6E0D004C65644F66660D0016
:102EA0005461736B415F427574746F6E4C6564005E
:102EB0005461736B425F426C696E6B4C6564005485
:102EC00061736B435F496E635F4465635F426C6926
:102ED0006E6B005461736B49646C650049444C45EA
:0A2EE00000546D7220537663000069
:10E000000D9489F10D94B2F10D94B2F10D94B2F129
:10E010000D94B2F10D94B2F10D94B2F10D94B2F1F0
:10E020000D94B2F10D94B2F10D94B2F10D94B2F1E0
:10E030000D94B2F10D94B2F10D94B2F10D94B2F1D0
:10E040000D94B2F10D94B2F10D94B2F10D94B2F1C0
:10E050000D94B2F10D94B2F10D94B2F10D94B2F1B0
:10E060000D94B2F10D94B2F10D94B2F10D94B2F1A0
:10E070000D94B2F10D94B2F10D94B2F10D94B2F190
:10E080000D94B2F10D94B2F10D94B2F10D94B2F180
:10E090000D94B2F10D94B2F10D94B2F10D94B2F170
:10E0A0000D94B2F10D94B2F10D94B2F10D94B2F160
:10E0B0000D94B2F10D94B2F10D94B2F10D94B2F150
:10E0C0000D94B2F10D94B2F10D94B2F10D94B2F140
:10E0D0000D94B2F10D94B2F10D94B2F10D94B2F130
:10E0E0000D94B2F141546D656761323536300041AF
:10E0F000726475696E6F206578706C6F72657220DE
:10E1000073746B3530305632206279204D4C530099
:10E11000426F6F746C6F616465723E004875683F52
:10E1200000436F6D70696C6564206F6E203D200048
:10E130004350552054797065202020203D20005FF9
:10E140005F4156525F415243485F5F3D2000415658
:10E1500052204C696243205665723D20004743437C
:10E160002056657273696F6E203D20004350552024
:10E1700049442020202020203D20004C6F7720663D
:10E18000757365202020203D20004869676820665F
:10E190007573652020203D200045787420667573D6
:10E1A00065202020203D20004C6F636B2066757336
:10E1B000652020203D20004D617220203720323024
:10E1C000313300312E362E3800342E332E350056A2
:10E1D00023202020414444522020206F7020636F70
:10E1E00064652020202020696E73747275637469E1
:10E1F0006F6E2061646472202020496E74657272B3
:10E20000757074006E6F20766563746F7200726A49
:10E210006D702020006A6D70200057686174207056
:10E220006F72743A00506F7274206E6F7420737541
:10E2300070706F72746564004D7573742062652030
:10E2400061206C6574746572002000577269747483
:10E25000696E672045450052656164696E672045B7
:10E26000450045452065727220636E743D00504F35
:10E27000525400303D5A65726F2061646472003FF1
:10E280003D43505520737461747300403D454550C3
:10E29000524F4D207465737400423D426C696E6B41
:10E2A000204C454400453D44756D70204545505215
:10E2B0004F4D00463D44756D7020464C415348001B
:10E2C000483D48656C70004C3D4C69737420492F83
:10E2D0004F20506F72747300513D51756974005234
:10E2E0003D44756D702052414D00563D73686F7707
:10E2F00020696E7465727275707420566563746FF0
:10E30000727300593D506F727420626C696E6B00BD
:10E310002A0011241FBECFEFD1E2DEBFCDBF01E046
:10E320000CBF12E0A0E0B2E0EEE1FDEF03E00BBFB6
:10E3300002C007900D92A030B107D9F712E0A0E01B
:10E34000B2E001C01D92AE30B107E1F70F9460F367
:10E350000D948DFE01E20EBF0FEF0DBF11241FBE05
:10E360000D9460F30D9400F020E030E040ED57E0B4
:10E3700005C0FA013197F1F72F5F3F4F2817390792
:10E38000C0F308959C01260F311DC901A0E0B0E043
:10E390002F5F3F4FABBFFC018791882361F08093D3
:10E3A000C6008091C00086FFFCCF8091C0008064D1
:10E3B0008093C000EACF08958DE08093C6008091DD
:10E3C000C00086FFFCCF8091C00080648093C000B5
:10E3D0008AE08093C6008091C00086FFFCCF8091C8
:10E3E000C00080648093C00008950F94C2F10F9420
:10E3F000DCF10895FC019081992359F09093C600B7
:10E400008091C00086FFFCCF8091C0008064809323
:10E41000C0003196992379F70895282F982F929567
:10E420009F70892F805D8A3308F0895F8093C600D2
:10E430008091C00086FFFCCF8091C00080648093F3
:10E44000C000822F8F70982F905D9A3308F0995FEB
:10E450009093C6008091C00086FFFCCF8091C000E1
:10E4600080648093C00008959C01FB01853691056E
:10E470001CF46330710594F0C90164E670E00F94F8
:10E480002EFE605D7F4F6093C6008091C00086FFC6
:10E49000FCCF8091C00080648093C0002B30310598
:10E4A00014F43297B4F0C90164E670E00F942EFEC4
:10E4B0006AE070E00F942EFE605D7F4F6093C600AF
:10E4C0008091C00086FFFCCF8091C0008064809363
:10E4D000C000C9016AE070E00F942EFEC0968093E0
:10E4E000C6008091C00086FFFCCF8091C000806490
:10E4F0008093C00008951F93182F8EE692EE60E07F
:10E500000F94C2F11093C6008091C00086FFFCCF2B
:10E510008091C00080648093C0000F94DCF11F9153
:10E5200008952F923F924F925F926F927F928F92B7
:10E530009F92AF92BF92CF92DF92EF92FF920F9392
:10E540001F93DF93CF93CDB7DEB762970FB6F894E2
:10E55000DEBF0FBECDBF382E622ECA01DB015C01CB
:10E560006D01772420E2222E2E010894411C511CBB
:10E570008BC081E0A81680E0B80681E0C80680E084
:10E58000D80628F0C601AA27BB270F940DF2BB2797
:10E59000AD2D9C2D8B2D0F940DF28A2D0F940DF225
:10E5A0002092C6008091C00086FFFCCF8091C00001
:10E5B00080648093C0009DE29093C6008091C0006B
:10E5C00086FFFCCF8091C00080648093C0002092C1
:10E5D000C6008091C00086FFFCCF8091C00080649F
:10E5E0008093C00019828601750188249924A1E0D6
:10E5F0003A1651F03A1620F0B2E03B1661F409C029
:10E600000BBFF701779007C0C7010F9477FE782EF4
:10E6100002C0F7017080872D0F940DF22092C60082
:10E620008091C00086FFFCCF8091C0008064809301
:10E63000C000872D8052F401EF70F0708F3520F408
:10E64000E40DF51D708204C0E40DF51D8EE280839B
:10E650000894E11CF11C011D111D0894811C911CE2
:10E6600090E18916910409F0C2CF80E190E0A0E02A
:10E67000B0E0A80EB91ECA1EDB1E198AC2010F9493
:10E68000FAF10F94DCF16A94662009F072CF629679
:10E690000FB6F894DEBF0FBECDBFCF91DF911F91B3
:10E6A0000F91FF90EF90DF90CF90BF90AF909F9031
:10E6B0008F907F906F905F904F903F902F90089534
:10E6C0002F923F924F925F926F927F928F929F9282
:10E6D000AF92BF92CF92DF92EF92FF920F931F9370
:10E6E000DF93CF93CDB7DEB7CD53D1400FB6F894BB
:10E6F000DEBF0FBECDBF01E20EBF0FEF0DBF94B75F
:10E70000F894A89514BE80916000886180936000A1
:10E7100010926000789493FF05C0E0910002F091A0
:10E7200001021995279A2F9A8091C00082608093E8
:10E73000C00080E18093C40088E18093C1000000A4
:10E74000EE24FF24870144E0A42EB12CCC24DD2448
:10E7500024C0C5010197F1F70894E11CF11C011DCB
:10E76000111D21E2E2162EE4F20620E0020720E06D
:10E77000120718F031E0C32ED12CC801B70127ECE5
:10E780003BE140E050E00F9441FE611571058105C9
:10E79000910519F485B1805885B98091C00087FD35
:10E7A00003C0C114D104A9F2A6014F5F5F4FC25E3E
:10E7B000DE4F59834883CE51D140C25EDE4F8881FF
:10E7C0009981CE51D140019711F00D9410FEC05D9A
:10E7D000DE4F19821882C053D14060E0C15DDE4F28
:10E7E0001882CF52D14088249924C35DDE4F19820C
:10E7F0001882CD52D140C05EDE4F188219821A8233
:10E800001B82C052D140CE5CDE4F188219821A8220
:10E810001B82C253D140EE24FF2487010BBFF701B6
:10E8200007911691C45CDE4F19830883CC53D14005
:10E830000D940BFEC25EDE4F28813981CE51D1404E
:10E840002130310509F52091C600C25EDE4F1982E4
:10E850001882CE51D14022C02F5F3F4F4F4F5F4FA4
:10E86000213082E138078AE7480780E0580780F0C6
:10E87000C45CDE4FE881F981CC53D140EF5FFF4F9C
:10E8800019F0EE27FF27099420E030E040E050E047
:10E890008091C00087FFE0CF2091C600C35DDE4FAE
:10E8A00048815981CD52D1404F5F5F4FC35DDE4FEC
:10E8B00059834883CD52D140213209F063C64A3092
:10E8C000510508F05FC60894811C911C53E0851621
:10E8D000910409F059C600E010E018C081E280936D
:10E8E000C6008091C00086FFFCCF8091C00080648C
:10E8F0008093C0002F5F3F4F2931310579F70F9486
:10E90000DCF10F5F1F4F0530110519F020E030E0FA
:10E91000E5CF10920A0210920B0210920C02109294
:10E920000D02109206021092070210920802109235
:10E930000902109202021092030210920402109235
:10E9400005028FEE90EE60E00F94F5F180E191EE1C
:10E9500060E00F94C2F18091C00087FFFCCF9091DE
:10E96000C600903608F09F759032B8F09093C600BC
:10E970008091C00086FFFCCF8091C00080648093AE
:10E98000C000A0E2A093C6008091C00086FFFCCF2B
:10E990008091C00080648093C000983409F4D7C18E
:10E9A0009934B8F4923409F459C1933458F490333B
:10E9B00019F1903308F4E3C59F33A1F1903409F0C5
:10E9C000DEC5BDC0953409F470C1963409F0D7C5D1
:10E9D00098C1923509F42BC2933538F49C3409F46C
:10E9E000F5C1913509F0CBC518C2963509F445C279
:10E9F000993509F0C4C567C483E792EE62E00F94CD
:10EA0000F5F110920602109207021092080210927D
:10EA1000090210920A0210920B0210920C0210923C
:10EA20000D0213C18FE792EE62E00F94F5F18FEEC5
:10EA300090EE60E00F94F5F181E291EE60E00F94CA
:10EA4000C2F187EB91EE60E00F94F5F180E391EE77
:10EA500060E00F94C2F184EE90EE60E00F94F5F167
:10EA60008FE391EE60E00F94C2F186E090E061E008
:10EA700070E00F9434F20F94DCF18DE591EE60E0DC
:10EA80000F94C2F189EC91EE60E00F94F5F18EE401
:10EA900091EE60E00F94C2F183EC91EE60E00F9490
:10EAA000F5F18CE691EE60E00F94C2F18EE10F94E7
:10EAB0000DF288E90F940DF281E00F940DF20F949E
:10EAC000DCF18BE791EE60E00F94C2F119E0E0E039
:10EAD000F0E010935700E4918E2F0F940DF20F94F5
:10EAE000DCF18AE891EE60E00F94C2F1E3E0F0E03F
:10EAF00010935700E4918E2F0F940DF20F94DCF1D8
:10EB000089E991EE60E00F94C2F1E2E0F0E0109349
:10EB10005700E4918E2F0F940DF20F94DCF188EAE8
:10EB200091EE60E00F94C2F1E1E0F0E01093570045
:10EB30001491812F0F940DF20F94DCF107CF8BE825
:10EB400092EE62E00F94F5F18BE492EE60E00F94A8
:10EB5000F5F10F94DCF100E010E019C0C8016F2D51
:10EB60000F947FFEFF2031F489E492EE60E00F9471
:10EB7000C2F10BC0F092C6008091C00086FFFCCFAE
:10EB80008091C00080648093C0000F5F1F4FC80158
:10EB900081519F41A0E0B0E0ABBFFC01F790BAE229
:10EBA000FB1621F0E2E000301E07C1F60F94DCF105
:10EBB0000F94DCF187E592EE60E00F94F5F10F948D
:10EBC000DCF1CC24DD2400E010E01EC0C8010F946D
:10EBD00077FEF82E882331F489E492EE60E00F94FA
:10EBE000C2F10BC08093C6008091C00086FFFCCFAD
:10EBF0008091C00080648093C000FE1419F00894D6
:10EC0000C11CD11C0F5F1F4FC80181519F41A0E063
:10EC1000B0E0ABBFFC01E790FAE2EF1621F022E092
:10EC20000030120799F60F94DCF10F94DCF182E6C4
:10EC300092EE60E00F94C2F1C60161E070E00F94C3
:10EC400034F20F94DCF10F94DCF110920202109276
:10EC50000302109204021092050278CE89E992EE26
:10EC600062E00F94F5F1279A2F9A16C02F9880E052
:10EC700090E0E0EDF7E03197F1F7019684369105E9
:10EC8000C1F72F9A80E090E0E0EDF7E03197F1F7DF
:10EC9000019684369105C1F78091C00087FFE6CFC9
:10ECA0008091C00087FFFCCF64C485EA92EE62E0E9
:10ECB0000F94F5F140910202509103026091040219
:10ECC0007091050281E020E10F9491F2809102029F
:10ECD00090910302A0910402B091050280509F4FD1
:10ECE000AF4FBF4F8093020290930302A0930402A0
:10ECF000B093050280509041A040B04008F426CE69
:10ED0000A4CF83EB92EE62E00F94F5F140910602FE
:10ED100050910702609108027091090280E020E1A1
:10ED20000F9491F28091060290910702A09108023F
:10ED3000B091090280509F4FAF4FBF4F80930602A2
:10ED400090930702A0930802B0930902FFCD80ECD4
:10ED500092EE62E00F94F5F183E792EE60E00F949B
:10ED6000F5F18FE792EE60E00F94F5F18BE892EE0B
:10ED700060E00F94F5F189E992EE60E00F94F5F10F
:10ED800085EA92EE60E00F94F5F183EB92EE60E09D
:10ED90000F94F5F180EC92EE60E00F94F5F187ECC2
:10EDA00092EE60E00F94F5F188ED92EE60E00F9442
:10EDB000F5F18FED92EE60E00F94F5F18AEE92EEB0
:10EDC00060E00F94F5F183E093EEBDCD87EC92EE19
:10EDD00062E00F94F5F181E40F947BF282E40F94EA
:10EDE0007BF283E40F947BF284E40F947BF285E45E
:10EDF0000F947BF286E40F947BF287E40F947BF20E
:10EE000088E40F947BF28AE40F947BF28BE40F94F6
:10EE10007BF28CE40F947BF299CD88ED92EE62E068
:10EE20000F94F5F1772473948824992409C48FED05
:10EE300092EE62E00F94F5F140910A0250910B02BC
:10EE400060910C0270910D0282E020E10F9491F22A
:10EE500080910A0290910B02A0910C02B0910D02D8
:10EE600080509F4FAF4FBF4F80930A0290930B0289
:10EE7000A0930C02B0930D0269CD8AEE92EE62E08F
:10EE80000F94F5F184EE90EE60E00F94F5F18FECC5
:10EE900091EE60E00F94F5F1662477244301CC5D98
:10EEA000DE4F19821882C452D140D401C301B695F5
:10EEB000A79597958795CA5DDE4F88839983AA8326
:10EEC000BB83C652D140CC5DDE4FA881B981C4520C
:10EED000D1401196CC5DDE4FB983A883C452D14096
:10EEE000CD0162E070E00F9434F2B0E2B093C6005E
:10EEF0008091C00086FFFCCF8091C0008064809329
:10EF0000C000EDE2E093C6008091C00086FFFCCF18
:10EF10008091C00080648093C000F0E2F093C6004E
:10EF20008091C00086FFFCCF8091C00080648093F8
:10EF3000C000CA5DDE4FE880F9800A811B81C6529D
:10EF4000D140BB27A12F902F8F2D0F940DF2CA5DBA
:10EF5000DE4F8881C652D1400F940DF2B0E2FB2EF5
:10EF6000F092C6008091C00086FFFCCF8091C00067
:10EF700080648093C0000DE30093C6008091C000C0
:10EF800086FFFCCF8091C00080648093C00010E2B7
:10EF90001093C6008091C00086FFFCCF8091C00016
:10EFA00080648093C0008BBEF3012791C65DDE4F65
:10EFB0002883CA52D140A22EBB24CC24DD2408943D
:10EFC000611C711C811C911C8BBEF3018791282E42
:10EFD0003324442455240894611C711C811C911C09
:10EFE0008BBEF3013791C55DDE4F3883CB52D140E4
:10EFF0000894611C711C811C911C8BBEF30147910C
:10F00000C45DDE4F4883CC52D140ADEFEA2EAFEF66
:10F01000FA2EAFEF0A2FAFEF1A2F6E0C7F1C801E57
:10F02000911E142D032DF22CEE24EA0CFB1C0C1D5A
:10F030001D1D0F940DF220E22093C6008091C000A8
:10F0400086FFFCCF8091C00080648093C000C65DC5
:10F05000DE4F8881CA52D1400F940DF230E23093D6
:10F06000C6008091C00086FFFCCF8091C000806404
:10F070008093C000C45DDE4F8881CC52D1400F9494
:10F080000DF240E24093C6008091C00086FFFCCFA5
:10F090008091C00080648093C000C55DDE4F888190
:10F0A000CB52D1400F940DF250E25093C6008091A4
:10F0B000C00086FFFCCF8091C00080648093C000B8
:10F0C0008FEFE8168FEFF80680E0080780E018075A
:10F0D00031F484E092EE60E00F94C2F1DFC0D80119
:10F0E000C7018070907CA070B0708050904CA040A0
:10F0F000B040D1F52FEF3FE340E050E0E222F322B1
:10F1000004231523CA5DDE4FA880B980CA80DB8046
:10F11000C652D140AE0CBF1CC01ED11EAA0CBB1CD7
:10F12000CC1CDD1C8EE092EE60E00F94C2F1BB2798
:10F13000A12F902F8F2D0F940DF28E2D0F940DF285
:10F1400030E23093C6008091C00086FFFCCF8091F2
:10F15000C00080648093C0004EE34093C60080915D
:10F16000C00086FFFCCF87C08EE09EEFA0E0B0E03D
:10F17000E822F9220A231B239CE0E91694E9F90608
:10F1800090E0090790E0190709F088C0C45DDE4FE0
:10F19000A881CC52D140EA2EFF2400E010E0102FCD
:10F1A0000F2DFE2CEE24C55DDE4FB881CB52D14031
:10F1B000EB0EF11C011D111DD601C501817090706F
:10F1C000A070B070DC0199278827E80EF91E0A1F8D
:10F1D0001B1F20EF30E040E050E0A222B322C42207
:10F1E000D52241E1AA0CBB1CCC1CDD1C4A95D1F7F1
:10F1F000EA0CFB1C0C1D1D1D81E090E0A0E0B0E0BE
:10F20000282239224A225B2235E1220C331C441C7D
:10F21000551C3A95D1F7E20CF31C041D151D57013E
:10F220006801AA0CBB1CCC1CDD1C85E192EE60E0E1
:10F230000F94C2F1C801AA27BB270F940DF2BB2778
:10F24000A12F902F8F2D0F940DF28E2D0F940DF274
:10F2500090E29093C6008091C00086FFFCCF809121
:10F26000C00080648093C000AEE3A093C60080918C
:10F27000C00086FFFCCF8091C00080648093C000F6
:10F28000C601AA27BB270F940DF2BB27AD2D9C2DDD
:10F290008B2D0F940DF28A2D0F940DF20F94DCF14B
:10F2A000CC5DDE4FE881F981C452D140F99709F471
:10F2B0004DCBF4E0EF2EF12C012D112D6E0C7F1CA7
:10F2C000801E911EF2CD83E093EE62E00F94F5F183
:10F2D0008AE192EE60E00F94C2F18091C00087FF56
:10F2E000FCCF1091C6001F751093C6008091C0001E
:10F2F00086FFFCCF8091C00080648093C0000F9493
:10F30000DCF1812F81548A3108F036C1163409F4BA
:10F3100095C0173490F4133409F44EC0143430F40B
:10F320001134F1F0123409F01DC130C0143409F465
:10F3300059C0153409F016C16BC01A3409F4C4C0A1
:10F340001B3438F4173409F48FC0183409F00AC19B
:10F35000A1C01B3409F4D2C01C3409F003C1E8C0B9
:10F360008FEF81B90DC082B1809582B980E090E0C5
:10F37000E0EDF7E03197F1F70196883C9105C1F790
:10F380008091C00087FFEFCF12B8EFC08FEF84B934
:10F390000DC085B1809585B980E090E0E0EDF7E0A3
:10F3A0003197F1F70196883C9105C1F78091C00033
:10F3B00087FFEFCF15B8D9C08FEF87B90DC088B1DF
:10F3C000809588B980E090E0E0EDF7E03197F1F7C3
:10F3D0000196883C9105C1F78091C00087FFEFCF6F
:10F3E00018B8C3C08FEF8AB90DC08BB180958BB9A7
:10F3F00080E090E0E0EDF7E03197F1F70196883C8E
:10F400009105C1F78091C00087FFEFCF1BB8ADC059
:10F410008FEF8DB90DC08EB180958EB980E090E0F0
:10F42000E0EDF7E03197F1F70196883C9105C1F7DF
:10F430008091C00087FFEFCF1EB897C08FEF80BBD1
:10F440000DC081B3809581BB80E090E0E0EDF7E0F6
:10F450003197F1F70196883C9105C1F78091C00082
:10F4600087FFEFCF11BA81C08FEF83BB0DC084B38C
:10F47000809584BB80E090E0E0EDF7E03197F1F714
:10F480000196883C9105C1F78091C00087FFEFCFBE
:10F4900014BA6BC08FEF809301010FC080910201FD
:10F4A00080958093020180E090E0E0EDF7E03197F5
:10F4B000F1F70196883C9105C1F78091C00087FF64
:10F4C000EDCF1092020151C08FEF809304010FC065
:10F4D0008091050180958093050180E090E0E0ED4A
:10F4E000F7E03197F1F70196883C9105C1F78091DB
:10F4F000C00087FFEDCF1092050137C08FEF8093DA
:10F5000007010FC08091080180958093080180E079
:10F5100090E0E0EDF7E03197F1F70196883C910536
:10F52000C1F78091C00087FFEDCF109208011DC088
:10F530008FEF80930A010FC080910B01809580931B
:10F540000B0180E090E0E0EDF7E03197F1F70196F4
:10F55000883C9105C1F78091C00087FFEDCF1092E4
:10F560000B0103C085E292EEEEC98091C00087FFD7
:10F57000FCCF8091C600EAC988E392EEE4C98CE131
:10F5800091EEE1C988249924933011F1943028F444
:10F59000913089F09230B8F408C0953061F195301F
:10F5A000F0F0963009F048C043C02B3109F042C951
:10F5B00091E06BE13FC96227C15DDE4F2883CF52E6
:10F5C000D14092E037C9B22FA0E0622793E032C960
:10F5D000822F90E0A82BB92B622794E02BC92E3004
:10F5E00009F039C3622795E0C05DDE4F19821882A9
:10F5F000C053D1401FC9E1E0F0E0EC0FFD1FC05D3A
:10F60000DE4F08811981C053D140E00FF11F2083E4
:10F610000F5F1F4FC05DDE4F19830883C053D14079
:10F6200062270A171B0709F005C9D80196E002C92D
:10F63000261709F010C303C0973009F0FBC87724E0
:10F640009981933109F412C19431C8F4963009F4C8
:10F65000D8C0973050F4923009F406C1933009F4C1
:10F660006DC0913009F059C253C0913109F477C08F
:10F67000923108F0BBC0903109F04FC2F5C098310B
:10F6800009F487C0993150F4953109F4EFC09531F0
:10F6900008F4C6C1963109F040C2C2C19A3109F4DA
:10F6A0006CC09A3108F491C09B3109F45BC09D3164
:10F6B00009F033C29D81903359F48F81882311F46E
:10F6C0009EE11CC0813011F091E018C098E916C08D
:10F6D000892F807591F0903539F4E0E0F0E089E011
:10F6E0008093570094910AC0983539F4E3E0F0E034
:10F6F00089E080935700949101C090E01A821B82A8
:10F700008D818C831D829E831F8227E030E009C299
:10F710001A8288E08B8381E48C8386E58D8382E581
:10F720008E8389E48F8383E5888780E589878FE5E9
:10F730008A8782E38B872BE030E0F3C18A818139AD
:10F7400041F0823941F0803911F48FE005C080E04A
:10F7500003C082E001C08AE01A828B8344C0772410
:10F76000739482C08D81882311F48EE12CC0813086
:10F7700011F081E028C088E926C01A82E1E0F0E0BB
:10F7800089E08093570084918B831C8224E030E0D1
:10F79000C8C18B81803589F48C81883039F4E2E0EE
:10F7A000F0E089E08093570084910DC0E0E0F0E044
:10F7B00089E080935700849106C0E3E0F0E089E09F
:10F7C0008093570084911A82DFCF8D81836C99E0FA
:10F7D000E1E0F0E0082E90935700E89507B600FCB2
:10F7E000FDCF1A821B8223E030E09BC180EC8A832C
:10F7F000CE5CDE4F188219821A821B82C253D1401E
:10F800008EC18A8190E0A0E0B0E0582F44273327D2
:10F8100022278B8190E0A0E0B0E0DC0199278827C7
:10F82000282B392B4A2B5B2B8D8190E0A0E0B0E098
:10F83000282B392B4A2B5B2B8C8190E0A0E0B0E089
:10F84000BA2FA92F982F8827282B392B4A2B5B2BCF
:10F85000220F331F441F551FC05EDE4F288339839C
:10F860004A835B83C052D1401A8259C13A81C95C34
:10F87000DE4F3883C753D140CA5CDE4F1882C6536F
:10F88000D1408B81C82EDD24CA5CDE4F488159816E
:10F89000C653D140C42AD52A933109F082C0CE5C28
:10F8A000DE4F88819981AA81BB81C253D1408050AB
:10F8B000904CA340B04030F583E0CE5CDE4FE88052
:10F8C000F9800A811B81C253D140F70100935B008C
:10F8D00080935700E89507B600FCFDCFCE5CDE4F65
:10F8E000088119812A813B81C253D14000501F4FAA
:10F8F0002F4F3F4FCE5CDE4F088319832A833B8313
:10F90000C253D140C05EDE4F488159816A817B81FC
:10F91000C052D140DE011B9631E08C9111962C91A2
:10F9200011971296C75CDE4F2883C953D140C85C3B
:10F93000DE4F1882C853D14090E0C85CDE4FE881AA
:10F94000F981C853D1408E2B9F2B0C01FA01609393
:10F950005B0030935700E89511244E5F5F4F6F4F67
:10F960007F4F0EEFE02E0FEFF02ECE0CDF1CC114F8
:10F97000D10499F685E0C05EDE4F088119812A81A5
:10F980003B81C052D140F80120935B008093570027
:10F99000E89507B600FCFDCF81E180935700E8951C
:10F9A00035C0C05EDE4F88819981AA81BB81C0527B
:10F9B000D140B695A795979587957C018601ABE0D8
:10F9C000AA2EB12CAC0EBD1E0BC0D5016D915D01F0
:10F9D000C7010F947FFE0894E11CF11C01501040F8
:10F9E0000115110591F7A60160E070E0440F551F65
:10F9F000661F771FC05EDE4FE880F9800A811B8199
:10FA0000C052D1404E0D5F1D601F711F1A82C05E33
:10FA1000DE4F488359836A837B83C052D1407FC0C5
:10FA2000FA80C55CDE4FF882CB53D140C65CDE4F16
:10FA30001882CA53D1408B81C82EDD24C65CDE4FAC
:10FA400008811981CA53D140C02AD12A1A828981DA
:10FA5000BE016D5F7F4F843121F59601C05EDE4FA0
:10FA6000E880F9800A811B81C052D1400BBFF701A9
:10FA700087919691DB018C9311969C936E5F7F4FDB
:10FA8000D801C7010296A11DB11DC05EDE4F88835B
:10FA90009983AA83BB83C052D14022503040F1F6F3
:10FAA00036C0C05EDE4F288139814A815B81C052F9
:10FAB000D1400894C108D108760100E010E0089414
:10FAC000C11CD11C0894E11CF11C011D111DE20E8A
:10FAD000F31E041F151F21BDBB27A52F942F832FB5
:10FAE00082BD2F5F3F4F4F4F5F4FF89A80B5DB01CC
:10FAF0008D93BD012E153F054007510761F7C05E8C
:10FB0000DE4F288339834A835B83C052D1409601FC
:10FB10002D5F3F4FFB01108204C080EC8A8322E0FE
:10FB200030E08BE18093C6008091C00086FFFCCF5F
:10FB30008091C00080648093C000C15DDE4FF88179
:10FB4000CF52D140F093C6008091C00086FFFCCF19
:10FB50008091C00080648093C000432F3093C60022
:10FB60008091C00086FFFCCF8091C00080648093AC
:10FB7000C000922F2093C6008091C00086FFFCCF6A
:10FB80008091C00080648093C0008EE08093C600A6
:10FB90008091C00086FFFCCF8091C000806480937C
:10FBA000C00065E1C15DDE4FE880CF52D1406E25D7
:10FBB00069276427FE01319610C090819093C6009A
:10FBC0008091C00086FFFCCF31968091C000806498
:10FBD0008093C0006927215030402115310569F715
:10FBE0006093C6008091C00086FFFCCF8091C0006A
:10FBF00080648093C00085B1805885B9772081F4F6
:10FC0000C15DDE4F0881CF52D1400F5FC15DDE4F35
:10FC10000883CF52D14090E0A0E0B0E00D941AF4F8
:10FC200027982F9880E090E020ED37E0F901319798
:10FC3000F1F7019684369105C9F700008091C00064
:10FC40008D7F8093C00081E180935700E895EE2777
:10FC5000FF270994FFCF90E00D941AF497FB092E2B
:10FC600007260AD077FD04D02ED006D000201AF443
:10FC7000709561957F4F0895F6F7909581959F4F08
:10FC80000895A1E21A2EAA1BBB1BFD010DC0AA1FDD
:10FC9000BB1FEE1FFF1FA217B307E407F50720F0F5
:10FCA000A21BB30BE40BF50B661F771F881F991F70
:10FCB0001A9469F760957095809590959B01AC01B9
:10FCC000BD01CF010895AA1BBB1B51E107C0AA1FAC
:10FCD000BB1FA617B70710F0A61BB70B881F991FED
:10FCE0005A95A9F780959095BC01CD010895F99991
:10FCF000FECF92BD81BDF89A992780B50895262F31
:10FD0000F999FECF1FBA92BD81BD20BD0FB6F89400
:0EFD1000FA9AF99A0FBE01960895F894FFCF63
:00000001FF
