:020000040000FA
:100000000C9462000C948A000C948A000C948A0070
:100010000C948A000C948A000C94B40F0C948A00FF
:100020000C948A000C948A000C948A000C948A0028
:100030000C948A000C948A000C948A000C948A0018
:100040000C9431030C948A000C94A1030C947B0350
:100050000C948A000C948A000C948A000C948A00F8
:100060000C948A000C948A000000000024002700F1
:100070002A0000000000250028002B0000000000DE
:1000800023002600290004040404040404040202DA
:100090000202020203030303030301020408102007
:1000A0004080010204081020010204081020000012
:1000B0000008000201000003040700000000000027
:1000C0000000D41011241FBECFEFD8E0DEBFCDBF9B
:1000D00011E0A0E0B1E0E0EEFAE202C005900D927E
:1000E000AA37B107D9F722E0AAE7B1E001C01D9213
:1000F000AF3AB207E1F710E0C2E6D0E004C02197C2
:10010000FE010E949412C136D107C9F70E94B70FB1
:100110000C946E150C940000AF92BF92CF92DF92B8
:10012000EF92FF920F931F93CF93DF936C017B01AC
:100130008B01040F151FEB015E01AE18BF08C0173D
:10014000D10759F06991D601ED91FC910190F081B0
:10015000E02DC6010995892B79F7C501DF91CF9173
:100160001F910F91FF90EF90DF90CF90BF90AF90D5
:100170000895FC01538D448D252F30E0842F90E0AD
:10018000821B930B541710F0CF9608950197089592
:10019000FC01918D828D981761F0A28DAE0FBF2F5B
:1001A000B11D5D968C91928D9F5F9F73928F90E0B1
:1001B00008958FEF9FEF0895FC01918D828D981720
:1001C00031F0828DE80FF11D858D90E008958FEF5D
:1001D0009FEF0895FC01918D228D892F90E0805C26
:1001E0009F4F821B91098F739927089584E891E0AE
:1001F0000E94EA0021E0892B09F420E0822F089573
:100200000E94F60081110C940000089580E090E0B7
:10021000892B11F00C9400010895FC01A48DA80F06
:10022000B92FB11DA35ABF4F2C91848D90E0019638
:100230008F739927848FA689B7892C93A089B18958
:100240008C91837080648C93938D848D981306C0F9
:100250000288F389E02D80818F7D80830895EF925D
:10026000FF920F931F93CF93DF93EC0181E0888F70
:100270009B8D8C8D98131AC0E889F989808185FF40
:1002800015C09FB7F894EE89FF896083E889F989E2
:1002900080818370806480839FBF81E090E0DF91E4
:1002A000CF911F910F91FF90EF900895F62E0B8D37
:1002B00010E00F5F1F4F0F731127E02E8C8D8E11F2
:1002C0000CC00FB607FCFACFE889F989808185FF59
:1002D000F5CFCE010E940D01F1CFEB8DEC0FFD2F7C
:1002E000F11DE35AFF4FF0829FB7F8940B8FEA8914
:1002F000FB8980818062CFCFCF93DF93EC01888D23
:100300008823B9F0AA89BB89E889F9898C9185FD90
:1003100003C0808186FD0DC00FB607FCF7CF8C911E
:1003200085FFF2CF808185FFEDCFCE010E940D01C8
:10033000E9CFDF91CF910895833081F028F48130A7
:1003400099F08230A9F008958730A9F08830C9F07B
:100350008430B1F4809180008F7D03C08091800053
:100360008F7780938000089584B58F7784BD08953A
:1003700084B58F7DFBCF8091B0008F778093B000E4
:1003800008958091B0008F7DF9CFCF93DF93282F10
:1003900030E0F901E255FF4F8491F901E656FF4F35
:1003A000D491F901EA57FF4FC491CC23A1F08111F8
:1003B0000E949C01EC2FF0E0EE0FFF1FE458FF4F6E
:1003C000A591B491EC91ED2381E090E009F480E0F7
:1003D000DF91CF91089580E090E0FACF1F93CF9303
:1003E000DF93282F30E0F901E255FF4F8491F901A6
:1003F000E656FF4FD491F901EA57FF4FC491CC2341
:10040000A9F0162F81110E949C01EC2FF0E0EE0F55
:10041000FF1FEE58FF4FA591B4918FB7F894EC9160
:10042000111108C0D095DE23DC938FBFDF91CF91EF
:100430001F910895DE2BF8CFCF93DF9390E0FC015E
:10044000E656FF4F24918A579F4FFC0184918823E1
:10045000D1F090E0880F991FFC01E859FF4FA5915A
:10046000B491FC01EE58FF4FC591D49161110EC0BB
:100470009FB7F8948C91E22FE0958E238C9328817E
:10048000E223E8839FBFDF91CF9108958FB7F8945F
:10049000EC91E22BEC938FBFF6CF84E891E00E94C1
:1004A000C8000895682F84E891E00C942F018AE039
:1004B0000E94C501892B51F48091000190910101A6
:1004C0008C599F4F909301018093000189E00E9415
:1004D000C501892B51F4809100019091010184564E
:1004E0009109909301018093000186E090E00E94C1
:1004F000650ADDCF8CE00E94C501892B51F084E0B4
:100500000E94C50161E0892B09F060E084E00E944F
:10051000EE01809100019091010124E0969587956C
:100520002A95E1F70E94650AE5CF8DE00E94C5019A
:1005300061E0892B09F460E08CE00E94EE0182E129
:1005400090E00E94650AF1CFCBE1D1E002E311E037
:100550008BE2E82E81E0F82EDF93CF930E94A31266
:100560008CE00E94C5010F900F90892B59F0FF92EB
:10057000EF920E94A3120F900F908CE090E00E94E7
:10058000650AEACF1F930F93F4CF0F931F93E4E80C
:10059000F1E0A089B18982E08C93A485B5851C9295
:1005A000A685B7858FEC8C93108EA489B58986E0DB
:1005B0008C93A289B3898C9180618C93A289B38931
:1005C0008C9188608C93A289B3898C9180688C937C
:1005D0000288F389E02D80818F7D808360E08DE04B
:1005E0000E941C0260E08AE00E941C0260E089E038
:1005F0000E941C0261E08CE00E941C0261E084E029
:100600000E941C026DE472E082E592E00E942612D4
:1006100010E000E021E040E850E066E671E084EAA6
:1006200092E00E94870E21E040E850E06AE371E02A
:1006300085E992E00E94870E21E040E850E069E4FD
:1006400071E08AE792E00E94870E21E040E850E0E6
:1006500068E571E087E592E00E94870E1F910F9197
:1006600008951F920F920FB60F9211242F933F936C
:100670008F939F93AF93BF938091420290914302D7
:10068000A0914402B09145023091410223E0230F32
:100690002D3758F50196A11DB11D2093410280937D
:1006A000420290934302A0934402B093450280918A
:1006B0003D0290913E02A0913F02B091400201960E
:1006C000A11DB11D80933D0290933E02A0933F0275
:1006D000B0934002BF91AF919F918F913F912F9125
:1006E0000F900FBE0F901F90189526E8230F0296CB
:1006F000A11DB11DD2CF1F920F920FB60F921124E0
:100700002F933F934F935F936F937F938F939F9319
:10071000AF93BF93EF93FF9384E891E00E940D01A4
:10072000FF91EF91BF91AF919F918F917F916F91C9
:100730005F914F913F912F910F900FBE0F901F909F
:1007400018951F920F920FB60F9211242F938F932B
:100750009F93EF93FF93E0919401F0919501808135
:10076000E0919A01F0919B0182FD1BC090818091E4
:100770009D018F5F8F7320919E01821741F0E09160
:100780009D01F0E0EC57FE4F958F80939D01FF9106
:10079000EF919F918F912F910F900FBE0F901F900F
:1007A00018958081F4CFE0914E02F0914F02808144
:1007B000811107C08FEF9FEF90933A028093390227
:1007C0000895E0914E02F0914F020580F681E02DF0
:1007D00080819181F1CFFC01DB010FB6F8940F927B
:1007E0004091490250914A022D913C9111972F3F1F
:1007F000320711F18181928160914B0270817617ED
:1008000049F04817590730F01D921C9281E00F9073
:100810000FBE0895481B590B42175307A8F7241B16
:10082000350B2D933C9380914B028083809149023C
:1008300090914A029283818380E0E9CFCF93DF9346
:10084000DC011596ED91FC910680F781E02DA489DD
:10085000B5898685978520893189EC013D832C8374
:10086000C089D1899B838A83CF010C9611962D91E3
:100870003C9112972817390721F41296DC93CE93F6
:100880001197158A148A2C9121502C93209146029D
:10089000211157C0A285B385848195812681378136
:1008A000EC013D832C83C681D7819B838A83CF0152
:1008B000029611962D913C9112972817390721F431
:1008C0001296DC93CE931197138612862C912150A9
:1008D0002C93C6892091A1022C1710F4C093A10279
:1008E00029E02C9FE0011124C358DD4F0980DA81F3
:1008F000C02DD583C4834C815D8157834683AC81F1
:10090000BD8113969C938E9312979D838C83A689A9
:10091000A29FD0011124A358BD4FB387A2878C9109
:100920008F5F8C93A0917A01B0917B019689569646
:100930008C91891730F581E080938001DF91CF9110
:100940000895A0916302B0916402B787A6871496B8
:100950002D913C911597318B208B1496CD91DC9184
:1009600015979B838A8315969C938E93149782E6A2
:1009700092E0958B848B809162028F5F80936202FC
:10098000D1CF80E0DBCF0FB6F8940F92809149026F
:1009900090914A020F900FBE0895809146028F5F9A
:1009A0008093460208950FB6F8940F92FC01928D41
:1009B0000F900FBE81E0911180E00895EF92FF92B9
:1009C0000F931F93CF93DF93EC010FB6F8940F9220
:1009D0001E8D7C0181E1E80EF11C01E01116D4F0BE
:1009E0008FEF8E8F0F900FBE0FB6F8940F921D8D64
:1009F0007E0188E0E80EF11C01E01116B4F08FEFE3
:100A00008D8F0F900FBEDF91CF911F910F91FF90AF
:100A1000EF9008958989882319F3C7010E941E0465
:100A20008111009380011150D9CF8885882339F333
:100A3000C7010E941E048111009380011150DDCF77
:100A4000CF93DF93FC01A085B185828193812481BE
:100A50003581EC013D832C83C481D5819B838A83BE
:100A600011968D919C9112978E179F0721F41296E3
:100A7000DC93CE931197118610868C9181508C93C4
:100A80008C91DF91CF9108950F931F93CF93DF93B4
:100A90008C01FB0180819181D80113968F3F9807CB
:100AA000F1F4E801AF81B88512968D919C9113976E
:100AB00093838283EC01FD83EC83B583A483139637
:100AC000FC93EE93129711870087F80180818F5F66
:100AD0008083DF91CF911F910F910895D9011296D4
:100AE0002D913C911397E90148815981841795070D
:100AF000A8F7DACFFC01738362839187808746175A
:100B0000570790F0421B530B84859585481759076A
:100B1000C8F4BF016E5F7F4F809121029091220245
:100B20000E94440580E008954217530718F46217A5
:100B3000730740F4BF016E5F7F4F80912302909155
:100B40002402EECF81E00895FF920F931F93CF937D
:100B5000DF93EC01F62E0091490210914A02809138
:100B60007A0190917B0102960E942005CF3FDC071D
:100B7000E9F5FF20D9F1E0915102F0915202A091E4
:100B80007A01B0917B011596FC93EE931497A09196
:100B90007A01B0917B018481958117969C938E9305
:100BA000169780917A0190917B01A481B58102967C
:100BB00013969C938E93129780917A0190917B016A
:100BC000029695838483E0917A01F0917B0180E520
:100BD00092E093878287809150028F5F80935002CA
:100BE000DF91CF911F910F91FF900895C00FD11FFA
:100BF000E0917A01F0917B01D383C28360917A0105
:100C000070917B01C017D10768F480914C029091DC
:100C10004D026E5F7F4FDF91CF911F910F91FF903B
:100C20000C94440580914E0290914F026E5F7F4F6D
:100C30000E9444058091390290913A02C817D90761
:100C400078F6D0933A02C0933902CACFFC010396DA
:100C5000928381832FEF3FEF3483238396838583B1
:100C600090878783108208950F920FB6F8940F92A1
:100C70001F9211242F923F924F925F926F927F9218
:100C80008F929F92AF92BF92CF92DF92EF92FF929C
:100C90000F931F932F933F934F935F936F937F9384
:100CA0008F939F93AF93BF93CF93DF93EF93FF9374
:100CB000A0917A01B0917B010DB60D920EB60D9206
:100CC00080914602882321F081E0809380015FC0FB
:100CD00010928001A0917A01B0917B01E0917A019C
:100CE000F0917B012D913C918789908D821793071C
:100CF000A8F080917A0190917B0180917A01909186
:100D00007B01259A2D9A2FEF87EA91E621508040AA
:100D10009040E1F700C000001D9AF5CF2091A1029C
:100D200089E001C02150422F50E0849FF001859F4F
:100D3000F00D1124E358FD4F9081992399F3A1817F
:100D4000B28112960D90BC91A02DB283A183289FF1
:100D5000C001112480589D4FA817B90729F4129695
:100D60008D919C919283818389E0849FF001859F7E
:100D7000F00D1124E358FD4F0180F281E02D8681B2
:100D8000978190937B0180937A012093A102A09197
:100D90007A01B0917B01CD91CDBFDD91DEBFFF9196
:100DA000EF91DF91CF91BF91AF919F918F917F9103
:100DB0006F915F914F913F912F911F910F91FF90F4
:100DC000EF90DF90CF90BF90AF909F908F907F90EB
:100DD0006F905F904F903F902F901F900F900FBE9D
:100DE0000F9008958F929F92BF92CF92DF92EF92D1
:100DF000FF920F931F93CF93DF930FB6F8940F9248
:100E00008091460281508093460280914602882359
:100E100079F080E00F900FBEDF91CF911F910F917D
:100E2000FF90EF90DF90CF90BF909F908F900895AC
:100E30008091A402882369F3E0906702F090680231
:100E4000F0E0E0E039E041E08091620281115EC0B3
:100E5000EF2B11F00E94D303E0907E01F0907F0110
:100E6000E114F10409F47DC189E0D82ECC24C394A7
:100E70000FEF1FEF80914602811161C1C0914902BD
:100E8000D0914A024E018FEF881A980A90924A0236
:100E90008092490281149104B9F480914E0290919C
:100EA0004F0220914C0230914D0230934F0220931B
:100EB0004E0290934D0280934C0280914B028F5FC3
:100EC00080934B020E94D3038091390290913A02A1
:100ED000B12C8816990608F026C1E0917A01F091AC
:100EE0007B01E689DE9EF0011124E358FD4F8081ED
:100EF000823010F0BB24B39480918001811103C033
:100F0000BB2009F425C1C092800122C1D7011696E9
:100F1000ED91FC91A489B589668577858089918951
:100F2000EB019D838C8380899189EC017B836A83AB
:100F3000BF01645F7F4F11960D911C9112970617A8
:100F4000170721F412969C938E931197158A148A91
:100F50008C9181508C93A285B38584819581668123
:100F60007781EC017D836C8366817781EB019B83C4
:100F70008A83CF01029611960D911C911297081742
:100F8000190721F412967C936E931197138612869B
:100F90002C9121502C93A6892091A1022A1710F49C
:100FA000A093A1023A9FD0011124A358BD4F1196DE
:100FB0000D90BC91A02DB583A48314966D917C9166
:100FC00015977783668314966D917C911597EB0145
:100FD0009B838A8315969C938E9314979689939FEF
:100FE000D0011124A358BD4FB387A2878C918F5F86
:100FF0008C93A0917A01B0917B0156968C919817B1
:1010000008F422CF409380011FCFE0914E02F0916F
:101010004F020580F681E02D0680F781E02D828168
:1010200093818816990628F490933A0280933902A6
:1010300054CFC285D3858481958126813781DC0197
:1010400015963C932E93149726813781D9011396D8
:101050009C938E931297CF01029649815A8148172B
:10106000590711F43A832983138612862881215067
:101070002883A489B5891097F9F02685378540899A
:101080005189E9015D834C8340895189EA013B83A1
:101090002A8311966D917C9112979F01245F3F4F97
:1010A0006217730721F412965C934E931197158A79
:1010B000148A2C9121502C93A6892091A1022A17E1
:1010C00010F4A093A102DA9ED0011124A358BD4FC1
:1010D00011960D90BC91A02DB583A48314962D91EB
:1010E0003C9115973783268314962D913C91159743
:1010F000E9019B838A8315969C938E931497968916
:101100009D9DD0011124A358BD4FB387A2878C9118
:101110008F5F8C93E0917A01F0917B01868998171B
:1011200010F0BB24B394E0914E02F0914F02808105
:1011300081116BCF10933A0200933902CECE809189
:101140007E0190917F01019690937F0180937E01B3
:10115000D1E0ED1AF10809F08DCE10927F011092C6
:101160007E0180918001882309F453CE0E943406C9
:1011700081E050CEAF92BF92CF92DF92EF92FF927A
:101180000F931F93CF93DF9300D000D01F92CDB762
:10119000DEB78C017B011D821C8280E0680198E033
:1011A000C90ED11C0FB6F8940F92D8015A962C9103
:1011B0005A975B969C915B97291708F0B0C05A9696
:1011C000DC905A975C964C915C9741118DC08D9143
:1011D0009C91892B11F080E00AC0F801E480F58031
:1011E000E114F10439F580E0F80115821482D394FA
:1011F000D8015A96DC925A9751969C91992321F0E6
:10120000C80141960E941E0481110E9434060F906D
:101210000FBE81E00F900F900F900F900F90DF9115
:10122000CF911F910F91FF90EF90DF90CF90BF90E3
:10123000AF900895D70192968C9192978150929693
:101240008C93929756962C91569791969C9129172C
:1012500051F28111C8CF5701B2E0AB0EB11CC501EC
:101260000E942005F70181A1868B482F50E024E0E1
:1012700030E0241B350B358724879091A102981705
:1012800010F48093A10289E0849FD001859FB00D66
:101290001124A358BD4F11960D90BC91A02DF701BC
:1012A000B583A48314962D913C911597378326839B
:1012B0001496ED91FC911597B382A2821596BC927B
:1012C000AE921497D7015696EC915697E89FF0018D
:1012D0001124E358FD4F1B96FC93EE931A978081DF
:1012E0008F5F808381E080CF50E0B70112968D91AF
:1012F0009C910E949A12F801848D22813381820F81
:10130000932F911D938382832481358182179307C4
:1013100008F461CF80819181938382835CCF2C819B
:101320003D81232B21F40F900FBE80E073CF8111FC
:1013300009C080914B0289838091490290914A02B1
:101340009B838A830F900FBE0E94CD040FB6F89442
:101350000F92F801858D8F3F09F4158ED8015E96A6
:101360008C915E978F3F11F45E961C920F900FBE8A
:10137000BE016C5F7F4FCE0101960E94EB0381118D
:101380002AC00FB6F8940F92F801928D838D0F90BA
:101390000FBE98131AC0AC80BD8060917A01709125
:1013A0007B01645F7F4FC6010E94440561E0C50177
:1013B0000E94A405C8010E94DE040E94F206811169
:1013C00002C00E94340681E0EDCEC8010E94DE0416
:1013D0000E94F206F8CFC8010E94DE040E94F206C5
:1013E000A4CFCF93DF9300D000D01F92CDB7DEB74C
:1013F0009C0180914702909148020097B9F01982B0
:101400007B836A833D832C832091A302BE016F5F9F
:101410007F4F2111209146020E94BA080F900F9031
:101420000F900F900F90DF91CF91089580E0F6CF4D
:10143000EF92FF920F931F93CF93DF93E0912302DC
:10144000F09124028081811113C08091210290913A
:1014500022029093240280932302F0932202E093CD
:101460002102DF91CF911F910F91FF90EF9008958E
:101470000580F681E02D00811181C681D7817E0132
:1014800082E0E80EF11CC7010E942005E889F98975
:10149000CE0109958A8982FFD1CF8C859D85800FE9
:1014A000911F0817190760F49B838A83D987C8871F
:1014B000B70180912302909124020E944405BECF7F
:1014C000B801CE010E94F109B9CFCF93DF93EC01AF
:1014D000892B29F40E943406DF91CF9108950E9450
:1014E000CD0460E0CE010E94A4050E94F20688238C
:1014F00089F3F2CF0F920FB6F8940F921F92112436
:101500002F923F924F925F926F927F928F929F9213
:10151000AF92BF92CF92DF92EF92FF920F931F9301
:101520002F933F934F935F936F937F938F939F93EB
:10153000AF93BF93CF93DF93EF93FF93A0917A0183
:10154000B0917B010DB60D920EB60D9213BE809137
:1015500046028111F9C08091490290914A02019698
:1015600090934A0280934902009781F520914E02A0
:1015700030914F0240914C0250914D0250934F02D6
:1015800040934E0230934D0220934C0220914B0227
:101590002F5F20934B02E0914E02F0914F02208189
:1015A000211107C02FEF3FEF30933A022093390209
:1015B0000DC0E0914E02F0914F020580F681E02DC2
:1015C0002081318130933A022093390220913902EF
:1015D00030913A028217930710F420E0A1C020E076
:1015E00039E0D32EE0914E02F0914F02308131115B
:1015F00007C08FEF9FEF90933A028093390290C01B
:10160000E0914E02F0914F020580F681E02D0680B8
:10161000F781E02D428153818417950728F4509378
:101620003A02409339027CC0A285B385448155813A
:1016300066817781EA017D836C8366817781EB0126
:101640005B834A83AF014E5F5F4F11960D911C91F2
:1016500012970417150721F412967C936E93119735
:10166000138612863C9131503C93A489B58910971A
:10167000F9F06685778500891189EB011D830C835C
:1016800000891189E8017B836A831196ED90FC90B3
:101690001297BF01645F7F4FE616F70621F412969A
:1016A0001C930E931197158A148A3C9131503C93E8
:1016B000A6893091A1023A1710F4A093A102DA9EF4
:1016C000D0011124A358BD4F11960D90BC91A02DAF
:1016D000B583A48314966D917C9115977783668367
:1016E00014966D917C911597EB015B834A83159657
:1016F0005C934E93149746894D9DD0011124A358B5
:10170000BD4FB387A2873C913F5F3C93E0917A0144
:10171000F0917B013689431708F464CF21E062CF52
:10172000E0917A01F0917B01E689D9E0ED9FF0012B
:101730001124E358FD4F8081823008F021E0809130
:10174000800181110EC00AC080917E0190917F01BD
:10175000019690937F0180937E016AC0222309F451
:1017600067C080914602882321F081E08093800148
:101770005FC010928001A0917A01B0917B01E0914D
:101780007A01F0917B012D913C918789908D821790
:101790009307A8F080917A0190917B0180917A0162
:1017A00090917B01259A2D9A2FEF87EA91E621509F
:1017B00080409040E1F700C000001D9AF5CF2091D5
:1017C000A10289E001C02150422F50E0849FF00126
:1017D000859FF00D1124E358FD4F9081992399F3D3
:1017E000A181B28112960D90BC91A02DB283A183EC
:1017F000289FC001112480589D4FA817B90729F4CC
:1018000012968D919C919283818389E0849FF0014F
:10181000859FF00D1124E358FD4F0180F281E02DEA
:101820008681978190937B0180937A012093A10216
:10183000A0917A01B0917B01CD91CDBFDD91DEBF4A
:10184000FF91EF91DF91CF91BF91AF919F918F91D8
:101850007F916F915F914F913F912F911F910F91C8
:10186000FF90EF90DF90CF90BF90AF909F908F90C0
:101870007F906F905F904F903F902F901F900F90B0
:101880000FBE0F900895CF93DF93009751F0EC01B6
:101890000E94CD04CE010E949D11DF91CF910C9446
:1018A000F206DF91CF910895CF93DF93CDB7DEB7E6
:1018B0002A970FB6F894DEBF0FBECDBFE09123028A
:1018C000F09124021081F12CE12C112329F00580E4
:1018D000F681E02DE080F1800E94CD040E94C304D7
:1018E0006C018091820190918301C816D90608F09D
:1018F0007BC00E94180AD0928301C09282010E948C
:10190000F20600914702109148021A86198680E07B
:101910006801B1E1CB0ED11C0FB6F8940F92F8011B
:10192000F28CFF2009F441C1448D4423C1F050E002
:1019300086819781840F951F9783868324813581C3
:101940008217930720F08081918197838683D80145
:1019500016966D917C91CE0101960E949A12FA948E
:10196000F801F28E8085882339F0C80108960E941C
:101970001E0481110E9434060F900FBED980D7FC3F
:10198000C0CF0C811D81F80182859385892B21F0C0
:10199000C80102960E9420050E94C3047C01809128
:1019A000820190918301E816F90610F40E94180A4A
:1019B000F0928301E0928201F9E0FD1508F4A1CFD5
:1019C000ED2DDD0CFF0BE651F34FD80152968C91B3
:1019D0000C949412980D980D980DD00DBB0DCA0D56
:1019E000980D980DD00DBB0DD0928301C09282014D
:1019F000112399F1CE14DF04B8F10E94F206E091B0
:101A00002302F09124020580F681E02D06811781E2
:101A1000C80102960E942005D80152968C915297D7
:101A200082FF17C01C966D917C916E0D7F1D9701F2
:101A3000A601C8010E947A05882321F0B701C801D8
:101A40000E94F109D8015096ED91FC91C8010995C9
:101A500058CF8E7FF801828BF5CFE0912102F09173
:101A60002202808161E0811160E0009147021091C3
:101A700048020FB6F8940F92F801858D8F3F09F454
:101A8000158ED8015E968C915E978F3F11F45E960D
:101A90001C920F900FBEF801828D81113FC0028809
:101AA000F389E02DA0917A01B0917B011F96FC9300
:101AB000EE931E97A0917A01B0917B01848195816C
:101AC00051969C938E93509780917A0190917B01CF
:101AD000A481B5810C9613969C938E931297809156
:101AE0007A0190917B010C9695838483E0917A0131
:101AF000F0917B01C8014196958B848BD80151965A
:101B00008C9151978F5F51968C93C7018C199D09C9
:101B1000662311F08FEF9FEF0E94A405C8010E9479
:101B2000DE040E94F2068111ECCE0E943406E9CE5A
:101B30008160F801828BCA80DB80648575856C0DBD
:101B40007D1D9601A701C8010E947A05882309F42A
:101B5000D8CED8015096ED91FC91C8010995F801B5
:101B6000828982FFCECE648575856C0D7D1DC8018E
:101B70000E94F109C6CE8160F801828B6A817B8167
:101B8000758764876E0D7F1D9701A701C8010E94AC
:101B90007A05B7CE81FD04C0C8010E94430CB1CEC6
:101BA0008E7FD80152968C93ACCE29853A85232B13
:101BB00019F40F900FBE82CE811109C080914B02A3
:101BC0008E838091490290914A0298878F830F906B
:101BD0000FBE0E94CD040FB6F8940F92D8015D9607
:101BE0008C915D978F3F11F45D961C92F801868D64
:101BF0008F3F09F4168E0F900FBEBE01675F7F4FB7
:101C0000CE0106960E94EB03811125C0C8010E94F7
:101C1000D3048823D1F0E984FA8460917A01709129
:101C20007B01645F7F4FC6010E94440561E0C701EC
:101C30000E94A405C8010E94DE040E94F2068111E0
:101C400002C00E94340681E067CEC8010E94DE0413
:101C50000E94F206F8CFC8010E94DE040E94F2063C
:101C6000C8010E94D304882371F328CE00E010E05D
:101C70008091810181110CC080917D02823010F031
:101C80000E9434060115110599F30E940001F0CF5E
:101C90000FB6F8940F92E0915E02F0915F02C68158
:101CA000D781CE0102960E9420058091A402815026
:101CB0008093A402809181018150809381010F90D3
:101CC0000FBE8F89988D0E94430CCE010E94430C59
:101CD000CFCFCF93DF93EC010E94CD04CE010E94C1
:101CE0000111EC010E94F206209769F4259A2D9AC1
:101CF0002FEF80E792E0215080409040E1F700C054
:101D000000001D9AF5CFCE01DF91CF9108957F920B
:101D10008F929F92AF92BF92CF92DF92EF92FF92FB
:101D20000F931F93CF93DF93982EA92E762E872E95
:101D30007A01B22ECA010E94690E6C01892B09F446
:101D4000F2C088E290E00E94690EEC01892B09F450
:101D5000E7C0D88ECF8AA70165EA70E0C6010E946D
:101D60008D1281E0E81AF108EF89F88DEE0DFF1D64
:101D7000672D782DCE0149969B01285F3F4FDB01EF
:101D80004D91BD01DC014D93CD01AB014150510995
:101D9000DA014C91442319F06217730781F718A2F6
:101DA000BE8AB9A21AA21B861A861D8A1C8AD987E6
:101DB000C88784E090E08B1991099D878C87DB8B25
:101DC000CA8B84E09E012D5D3F4FD9011D928A95FB
:101DD000E9F71FA29082DF011197AC9211971C9234
:101DE000119780E88C9311971C9257971C9211972A
:101DF0001C92B397F983E8830115110519F0F801D6
:101E0000D183C0830FB6F8940F928091A4028F5FA4
:101E10008093A40280917A0190917B01892B09F033
:101E200091C0D0937B01C0937A018091A40281304C
:101E300081F58DE792E00E94260686E892E00E94F6
:101E400026068FE892E00E94260688E992E00E942A
:101E5000260684E792E00E9426068BE692E00E9426
:101E6000260682E692E00E94260689E592E00E941C
:101E7000260680E592E00E94260684E792E0909391
:101E80004F0280934E028BE692E090934D02809336
:101E90004C028091A2028F5F8093A202AE89809152
:101EA000A1028A1710F4A093A10229E02A9FD00171
:101EB0001124A358BD4F11960D90BC91A02DBD8348
:101EC000AC8314968D919C9115979F838E83149665
:101ED000ED91FC911597CE0102969383828315961E
:101EE0009C938E931497EE89E29FF0011124E3589E
:101EF000FD4FFB87EA8780818F5F80830F900FBE45
:101F00008091A302882351F0E0917A01F0917B0146
:101F100096898E89981710F40E94340681E004C0D7
:101F2000C6010E94430C8FEFDF91CF911F910F915B
:101F3000FF90EF90DF90CF90BF90AF909F908F90E9
:101F40007F9008958091A3028111A3CFE0917A013F
:101F5000F0917B0196898E89891708F49ACFD093E6
:101F60007B01C0937A0195CF0E947A0A18957894E4
:101F700084B5826084BD84B5816084BD85B582608E
:101F800085BD85B5816085BD80916E00816080933F
:101F90006E001092810080918100826080938100A8
:101FA00080918100816080938100809180008160B8
:101FB000809380008091B10084608093B100809113
:101FC000B00081608093B00080917A00846080933B
:101FD0007A0080917A00826080937A0080917A0002
:101FE000816080937A0080917A00806880937A0083
:101FF0001092C10020910701309108018FEF98E005
:10200000821B930B90930401809303010E94C502ED
:102010000BE312E020E040EC50E06CE671E086E378
:102020009EE00E94870E813009F0B3C00FB6F8948D
:102030000F928091470290914802892B09F04FC07E
:102040008EE292E00E94260685E292E00E94260639
:102050008EE292E0909324028093230285E292E044
:10206000909322028093210281E590E00E94690E04
:10207000EC01009781F14F96998388838AE08B8FDA
:1020800085E08C8F0FB6F8940F92888199812B8D03
:102090004C8DBC01249F600D711D11247D836C83C8
:1020A0001A8E9B838A832150330B429FB001439F3A
:1020B000700D1124860F971F9F838E838FEF8D8F56
:1020C0008E8FCE0108960E942606CE0141960E9470
:1020D00026060F900FBED0934802C09347020F9080
:1020E0000FBE8091470290914802892B09F451C09C
:1020F00007E312E023E045E550E061E771E084E5A5
:102100009CE00E94870E813009F043C0F8942FEFC5
:102110003FEF30933A02209339028093A30210924A
:102120004A0210924902A89588E190EC0FB6F89403
:10213000A895809360000FBE90936000A0917A01F3
:10214000B0917B01CD91CDBFDD91DEBFFF91EF91CD
:10215000DF91CF91BF91AF919F918F917F916F91BF
:102160005F914F913F912F911F910F91FF90EF90B1
:10217000DF90CF90BF90AF909F908F907F906F90A7
:102180005F904F903F902F901F900F900FBE0F9039
:102190000895809102010E94C502C0E0D0E020971E
:1021A000F1F30E940001FBCFE4E8F1E01382128218
:1021B00088EE93E0A0E0B0E084839583A683B783A4
:1021C0008DE091E09183808385EC90E09587848712
:1021D00084EC90E09787868780EC90E0918B808BF1
:1021E00081EC90E0938B828B82EC90E0958B848BDA
:1021F00086EC90E0978B868B118E128E138E148E48
:1022000008950F931F93CF93DF938230910510F4BD
:1022100082E090E0E091A702F091A80230E020E097
:10222000B0E0A0E0309799F42115310509F44AC0D7
:10223000281B390B24303105D8F58A819B81611523
:10224000710589F1FB0193838283FE0111C04081F6
:1022500051810281138148175907E0F04817590747
:1022600099F4109761F012960C93129713961C93A1
:102270003296CF01DF91CF911F910F910895009376
:10228000A7021093A802F4CF2115310551F042178F
:10229000530738F0A901DB019A01BD01DF01F80104
:1022A000C1CFEF01F9CF9093A8028093A702CDCFC1
:1022B000FE01E20FF31F819391932250310939837C
:1022C0002883D7CF2091A5023091A602232B41F479
:1022D00020910501309106013093A6022093A502BA
:1022E00020910301309104012115310541F42DB7EE
:1022F0003EB74091070150910801241B350BE09136
:10230000A502F091A602E217F307A0F42E1B3F0BE3
:102310002817390778F0AC014E5F5F4F2417350757
:1023200048F04E0F5F1F5093A6024093A502819381
:1023300091939FCFF0E0E0E09CCFCF93DF930097A5
:10234000E9F0FC01329713821282A091A702B091AA
:10235000A802ED0130E020E01097A1F42081318146
:10236000820F931F2091A5023091A60228173907EA
:1023700009F061C0F093A602E093A502DF91CF912E
:102380000895EA01CE17DF07E8F54A815B819E01D7
:1023900041155105B1F7E901FB83EA834991599150
:1023A000C40FD51FEC17FD0761F48081918102965F
:1023B000840F951FE90199838883828193819B8390
:1023C0008A83F0E0E0E012968D919C91139700973C
:1023D000B9F52D913C911197CD010296820F931F73
:1023E0002091A5023091A6022817390739F63097B7
:1023F00051F51092A8021092A702B093A602A093E2
:10240000A502BCCFD383C28340815181840F951F25
:10241000C817D90761F44E5F5F4F88819981480FD3
:10242000591F518340838A819B8193838283211525
:10243000310509F0B0CFF093A802E093A7029ECF38
:10244000FD01DC01C0CF13821282D7CF0F931F93FF
:10245000CF93DF93009759F46115710541F4F0E0D3
:10246000E0E0CF01DF91CF911F910F9108958B0193
:10247000EC016EE070E081E090E00E947112FC01DE
:10248000892B69F380E883830115110571F01387A7
:10249000028781E883838091A9029091AA02892B07
:1024A00021F4F093AA02E093A9022097D1F2D187F8
:1024B000C0878381826083838091AB029091AC025C
:1024C000892B79F6F093AC02E093AB028091AD02D8
:1024D0009091AE02892B29F6F093AE02E093AD0203
:1024E000C0CF0F931F93CF93DF93869F8001879F69
:1024F000100D969F100D1124C8010E940111EC01CE
:10250000009729F0A80170E060E00E948D12CE01D2
:10251000DF91CF911F910F910895DC0101C06D9360
:1025200041505040E0F70895EE0FFF1F0590F491E1
:10253000E02D0994FB01DC0102C001900D92415095
:102540005040D8F70895B0E0A0E0E9EAF2E10C9439
:102550004715AE014B5F5F4FFA0161917191AF0179
:102560008091AB029091AC020E94B912E2E00C940F
:102570006315ABE0B0E0EFEBF2E10C9437157C01B2
:102580003B018A01FC0117821682838181FFC8C149
:10259000CE0101965C01F7019381F30193FD8591D2
:1025A00093FF81913F01882309F453C1853239F4A7
:1025B00093FD859193FF81913F01853229F4B70105
:1025C00090E00E94A914E7CF912C212C312CFFE13F
:1025D000F31538F08B3211F190F4803209F1833227
:1025E00029F137FC3CC020ED280F2A3050F536FE8B
:1025F00020C08AE0989E200D1124922E06C08D32B4
:1026000091F0803371F7689430F8F30193FD859170
:1026100093FF81913F018111DACF21C0689431F895
:10262000689432F8F2CF689433F8EFCF689434F8B6
:10263000ECCFEAE02E9E200D1124222E689435F86E
:10264000E4CF8E3229F436FC04C1689436F8DDCF2D
:102650008C3619F4689437F8D8CF8836B1F2982FB1
:102660009F7D95549330E0F08336A1F18337C1F11B
:10267000833509F063C02801F2E04F0E511CF801C8
:10268000C080D180692D70E036FC02C06FEF7FEF13
:10269000C6010E9493144C01689437F882010AC065
:1026A0000C5F1F4FFFE3F98388248394912C65010D
:1026B000E89437F833FE2DC0522C8114910471F543
:1026C000552009F468CFB70180E290E00E94A91478
:1026D0005A94F6CFF801808189830E5F1F4FE4CFB3
:1026E0002801F2E04F0E511CF801C080D180692D05
:1026F00070E036FC02C06FEF7FEFC6010E949E14AF
:102700004C018201D5CFB70180E290E00E94A9146C
:102710002A942814190409F0B0F7CECFF60137FC3B
:10272000859137FE81916F01B70190E00E94A91455
:1027300051105A94F1E08F1A9108BFCF843619F0E6
:10274000893609F077C0F80137FE6BC0608171816E
:10275000828193810C5F1F4FF32DFF763F2E97FFF1
:1027600009C090958095709561957F4F8F4F9F4FD1
:10277000689437F82AE030E0A5010E94D914C82EE9
:10278000CA188C2C432C36FE0CC0E89440F8C914AF
:1027900040F434FE05C032FC03C0F32DFE7E4F2E04
:1027A000892C44FE95C0FE01EC0DF11D8081803323
:1027B00009F087C0242D297E422E842D8870582E42
:1027C00043FC95C040FE8FC09C2C821418F42C0C46
:1027D000922C981844FE91C0B70180E390E00E94CB
:1027E000A91442FE09C088E790E041FE02C088E5D6
:1027F00090E0B7010E94A914C91408F48AC0CA94D1
:10280000D12C9FEFC91AD90ACA0CDB1CF6018291A0
:102810006F01B70190E00E94A914AC14BD04B1F798
:102820004FCF60817181072E000C880B990B0E5FD2
:102830001F4F92CFD32CE894D4F82AE030E08537AC
:1028400039F1232D297FD22E8F3601F148F48835B6
:10285000A9F0F701868197812B96E2E10C9453153C
:10286000803749F08837A9F7D4FE02C06894D2F8BF
:1028700020E130E00DC06894D4F8F6CF34FE03C0F8
:10288000822F8660D82E20E132E002C028E030E0BE
:10289000F801D7FE0FC060817181828193810C5F46
:1028A0001F4FA5010E94D914C82ECA183D2CE894C8
:1028B00037F867CF6081718190E080E00E5F1F4F35
:1028C000F0CF42FC02C0839478CF8394839475CF79
:1028D000842D867809F471CFF6CFB70180E290E0BD
:1028E0000E94A91483948214C0F3512C73CF522CEC
:1028F0005818821408F46ECFF8CF842D867809F426
:102900007BCF8BE241FE80E247FC8DE2B70190E095
:1029100071CFB70180E390E00E94A9149A946CCF24
:102920008FEF9FEF99CFFC0105906150704001102F
:10293000D8F7809590958E0F9F1F0895FC016150E8
:10294000704001900110D8F7809590958E0F9F1FD1
:1029500008950F931F93CF93DF93182F092FEB0147
:102960008B8181FD09C01FEF0FEF812F902FDF9129
:10297000CF911F910F91089582FF14C02E813F8146
:102980008C819D81281739073CF4E881F981CF01BA
:1029900001969983888310838E819F8101969F83FE
:1029A0008E83E3CFE885F985812F0995892BA1F3E3
:1029B000DACFFA01AA27283051F1203181F1E894C9
:1029C0006F936E7F6E5F7F4F8F4F9F4FAF4FB1E022
:1029D0003ED0B4E03CD0670F781F891F9A1FA11D1D
:1029E000680F791F8A1F911DA11D6A0F711D811D1E
:1029F000911DA11D20D009F468943F912AE0269FE3
:102A000011243019305D3193DEF6CF010895462F41
:102A10004770405D4193B3E00FD0C9F7F6CF462F22
:102A20004F70405D4A3318F0495D31FD405241938B
:102A300002D0A9F7EACFB4E0A69597958795779548
:102A40006795BA95C9F700976105710508959B01CF
:102A5000AC010A2E06945795479537952795BA9558
:102A6000C9F7620F731F841F951FA01D08952F9231
:102A70003F924F925F926F927F928F929F92AF920E
:102A8000BF92CF92DF92EF92FF920F931F93CF935B
:102A9000DF93CDB7DEB7CA1BDB0B0FB6F894DEBFF2
:102AA0000FBECDBF09942A88398848885F846E8418
:102AB0007D848C849B84AA84B984C884DF80EE8062
:102AC000FD800C811B81AA81B981CE0FD11D0FB66B
:102AD000F894DEBF0FBECDBFED010895F894FFCF8F
:102AE000F401030000AF028000000000002F018C01
:102AF00000B9007C01EA00C800DC00425554544F84
:102B00004E20505245535345440D004C65644F6E62
:102B10000D004C65644F66660D005461736B414255
:102B20007574746F6E4C6564005461736B425F42E0
:102B30006C696E6B4C6564005461736B435F496EE6
:102B4000635F4465635F426C696E6B0049444C454A
:0A2B500000546D72205376630000FC
:107E0000112484B714BE81FFF0D085E080938100F7
:107E100082E08093C00088E18093C10086E0809377
:107E2000C20080E18093C4008EE0C9D0259A86E02C
:107E300020E33CEF91E0309385002093840096BBD3
:107E4000B09BFECF1D9AA8958150A9F7CC24DD24C4
:107E500088248394B5E0AB2EA1E19A2EF3E0BF2EE7
:107E6000A2D0813461F49FD0082FAFD0023811F036
:107E7000013811F484E001C083E08DD089C08234E0
:107E800011F484E103C0853419F485E0A6D080C0E4
:107E9000853579F488D0E82EFF2485D0082F10E0AE
:107EA000102F00270E291F29000F111F8ED06801E7
:107EB0006FC0863521F484E090D080E0DECF843638
:107EC00009F040C070D06FD0082F6DD080E0C81688
:107ED00080E7D80618F4F601B7BEE895C0E0D1E017
:107EE00062D089930C17E1F7F0E0CF16F0E7DF06D8
:107EF00018F0F601B7BEE89568D007B600FCFDCFD4
:107F0000A601A0E0B1E02C9130E011968C91119780
:107F100090E0982F8827822B932B1296FA010C0160
:107F200087BEE89511244E5F5F4FF1E0A038BF0790
:107F300051F7F601A7BEE89507B600FCFDCF97BE46
:107F4000E89526C08437B1F42ED02DD0F82E2BD052
:107F50003CD0F601EF2C8F010F5F1F4F84911BD097
:107F6000EA94F801C1F70894C11CD11CFA94CF0C13
:107F7000D11C0EC0853739F428D08EE10CD085E9AC
:107F80000AD08FE07ACF813511F488E018D01DD067
:107F900080E101D065CF982F8091C00085FFFCCF94
:107FA0009093C60008958091C00087FFFCCF809118
:107FB000C00084FD01C0A8958091C6000895E0E648
:107FC000F0E098E1908380830895EDDF803219F02E
:107FD00088E0F5DFFFCF84E1DECF1F93182FE3DFCA
:107FE0001150E9F7F2DF1F91089580E0E8DFEE27F6
:047FF000FF270994CA
:027FFE00040479
:00000001FF
